:020000040800F2
:10000000600C0020050100080D1300080F13000804
:1000100013130008171300081B130008000000004A
:100020000000000000000000000000001F13000896
:100030002113000800000000231300082513000806
:100040001F0100081F0100081F0100081F01000810
:100050001F0100081F0100081F0100081F01000800
:100060001F0100081F0100081F0100081F010008F0
:100070001F0100081F0100081F0100081F010008E0
:100080001F0100081F0100081F0100081F010008D0
:100090001F0100081F0100081F0100081F010008C0
:1000A0001F0100081F0100081F0100081F010008B0
:1000B0001F0100081F0100081F0100081F010008A0
:1000C0001F0100081F0100081F0100081F01000890
:1000D0001F010008311300081F0100081F0100085C
:1000E0001F0100081F0100081F010008DFF810D0E1
:1000F00004F0ECFA00480047F1120008AFF300806A
:10010000600C00200648804706480047FEE7FEE7EF
:10011000FEE7FEE7FEE7FEE7FEE7FEE7FEE7FEE7B7
:1001200007020008ED0000080CB5002001900090C7
:100130006C48006840F480306A49086000BF694834
:10014000006800F4003000900198401C0190009875
:1001500018B90198B0F5A06FF1D16248006800F4B9
:10016000003010B10120009001E0002000900098C4
:10017000012843D15C48006840F010005A490860EB
:100180000846006820F0030008600846006840F058
:100190000200086053484068524948600846406879
:1001A00048600846406840F48060486008464068FF
:1001B00020F47C1048600846406840F4E81048602D
:1001C0000846006840F08070086000BF454800683D
:1001D00000F000700028F9D04248406820F0030089
:1001E000404948600846406840F00200486000BF4F
:1001F0003C48406800F00C000828F9D10CBD10B54F
:10020000FFF792FF10BD10B53648006840F00100BE
:10021000344908600846406834490840314948601C
:1002200008460068324908402E49086008460068C0
:1002300020F4802008600846406820F4FE004860F2
:100240004FF41F008860FFF7DAFF4FF00060294984
:10025000086010BD10B5002100200022214B5B6812
:1002600003F00C0121B1042906D0082928D107E0A8
:10027000214B224C236027E01F4B204C236023E0BE
:10028000184B5B6803F47010164B5B6803F4803204
:10029000022303EB904022B9194B4343174C2360D0
:1002A0000DE0104B5B6803F4003323B1144B434360
:1002B000124C236003E0104B4343104C236003E0D7
:1002C0000D4B0E4C236000BF00BF064B5B68C3F3B1
:1002D00003130C4CE15C094B1B68CB40074C2360BB
:1002E00010BD000000100240002002400000FFF896
:1002F000FFFFF6FE08ED00E000127A00000000208B
:1003000000093D000400002031490143314A1160D9
:10031000704770B5002100230F22C47804B32D4C20
:10032000246804F4E064C4F5E064210AC1F1040324
:10033000CA40447804FA03F1847814402143090147
:10034000254C0678A155047804F01F050124AC4023
:1003500005786D11AD0005F1E025C5F8004109E013
:10036000047804F01F050124AC401C4D067876117A
:1003700045F8264070BD1A4A0A400243154B1B1F20
:100380001A60704739B1134A121D12680243114BAB
:100390001B1D1A6006E00F4A121D126882430D4BA6
:1003A0001B1D1A607047042808D14FF0E02109692D
:1003B00041F004014FF0E022116107E04FF0E0212D
:1003C000096921F004014FF0E0221161704700003B
:1003D0000000FA050CED00E000E400E080E100E040
:1003E00080FFFF1F10B50446CC48844208D101218C
:1003F000042000F02FFD0021042000F02BFD46E03A
:10040000C748844208D10121082000F023FD0021C3
:10041000082000F01FFD3AE0C248844208D10121C3
:10042000102000F017FD0021102000F013FD2EE039
:10043000BD48844208D10121202000F00BFD00219D
:10044000202000F007FD22E0B848844208D10121B5
:10045000402000F0FFFC0021402000F0FBFC16E0F3
:10046000B348844208D10121802000F0F3FC002130
:10047000802000F0EFFC0AE0AE48844207D1012161
:10048000801500F0E7FC0021A01500F0E3FC10BD92
:1004900010B50121084600F0DDFC0021012000F02C
:1004A000D9FC10BD2DE9F0410246002500260020B0
:1004B00000230024002791F803C00CF00F0591F8E9
:1004C00003C00CF0100CBCF1000F03D091F802C077
:1004D0004CEA050591F800C0BCF1000F31D014685A
:1004E00000202BE04FF0010C0CFA00F3B1F800C033
:1004F0000CEA03069E4220D183004FF00F0C0CFA49
:1005000003F7BC4305FA03FC4CEA040491F803C06A
:10051000BCF1280F06D14FF0010C0CFA00FCC2F818
:1005200014C00AE091F803C0BCF1480F05D14FF0A8
:10053000010C0CFA00FCC2F810C0401C0828D1D3F2
:100540001460B1F800C0BCF1FF0F34DD5468002026
:100550002EE000F1080C4FF0010808FA0CF3B1F896
:1005600000C00CEA03069E4221D183004FF00F0C1D
:100570000CFA03F7BC4305FA03FC4CEA040491F8B7
:1005800003C0BCF1280F05D100F1080C08FA0CF8E3
:10059000C2F8148091F803C0BCF1480F07D100F1F4
:1005A000080C4FF0010808FA0CF8C2F81080401C43
:1005B0000828CED35460BDE8F0814FF6FF7101806A
:1005C000022181700421C1707047024600209368A7
:1005D0000B400BB1012000E0002070470146886805
:1005E00080B2704702460020D3680B400BB1012057
:1005F00000E0002070470146C86880B27047016182
:100600007047416170470AB1016100E04161704784
:10061000C16070474FF480320A4382618161826118
:1006200082698269704702460020434B18684FF682
:100630008073184040EA021008433F4B186070472F
:100640003E49C8617047F0B50A46002300240021E6
:10065000002500F00046B6F1004F02D1364EF16998
:1006600001E0354E7168C0F3034583B200F44016D3
:10067000B6F5401F08D121F070612F4E766826F044
:1006800070662D4F7E6012E000F48016B6F5801F74
:1006900006D1032606FA05F4A14341F0706106E095
:1006A000460D360103FA06F6B14341F0706122B1FE
:1006B000460D360103FA06F6314300F00046B6F166
:1006C000004F02D11C4EF16101E01B4E7160F0BD84
:1006D00030B500228B071C0F0F2303FA04F2164BD0
:1006E00008338C1053F824309343134C08348D1086
:1006F00044F8253023468C1053F824308C07240FFF
:1007000000FA04F423430C4C08348D1044F82530CF
:1007100030BD0A49DC310860704700000008014024
:10072000000C01400010014000140140001801407D
:10073000001C014000200140000001400000204258
:1007400010B50446F748844209D10121480500F05C
:100750008EFB00214FF4001000F089FB08E001211E
:10076000880500F084FB00214FF4800000F07FFB3F
:1007700010BD2DE9F04385B004460D460026B14674
:100780000427DFF8A483A6884FF6C07006406846A9
:1007900000F0D9FADDF80880E448B8FBF0F01FFA61
:1007A00080F946EA0906A68020884FF6FE710840C7
:1007B00020800026DE49286888420CD8286840003E
:1007C000B8FBF0F087B2042F00DA04273E4309F1AA
:1007D0000100208427E0E8884BF6FF71884206D1AB
:1007E000286800EB4000B8FBF0F087B209E0286809
:1007F00000EBC00101EB0010B8FBF0F087B247F44A
:100800008047C7F30B0008B947F0010747F40040E1
:1008100006434FF4967009FB00F04FF47A7190FB99
:10082000F1F0401C2084A683208840F00100208045
:1008300026884FF6F5300640A888698908430643A4
:100840002680A88929890843208105B0BDE8F08366
:1008500041F288310160002181804BF6FF71C18037
:100860000021018141814FF480418181704721B194
:10087000028842F00102028004E002884FF6FE7313
:100880001A400280704721B1828842F4006282805F
:1008900004E082884FF2FF731A408280704721B1D2
:1008A000828842F48052828004E082884EF6FF7390
:1008B0001A408280704721B1028842F4807202801F
:1008C00004E002884FF6FF631A400280704721B1AE
:1008D000028842F40072028004E002884FF6FF535F
:1008E0001A400280704721B1028842F4806202807F
:1008F00004E002884FF6FF331A40028070470A4630
:10090000002181894FF60173194002F0FE0319435B
:100910008181704721B1828942F00102828104E025
:1009200082894FF6FE731A408281704721B1028896
:1009300042F04002028004E002884FF6BF731A4082
:10094000028070471AB183880B43838002E083885A
:100950008B4383807047018270470146088AC0B28A
:10096000704712B141F0010102E04FF6FE731940E9
:100970000182704708B5024600200090009200985E
:10098000084400900098008808BD21B1028842F414
:100990000042028003E00288C2F30E020280704728
:1009A000B1F5006F04D1028842F40062028004E0D5
:1009B00002884FF2FF731A4002807047B1F5005F62
:1009C00004D1028842F40052028004E002884DF60D
:1009D000FF731A400280704721B1028842F48052AE
:1009E000028004E002884EF6FF731A4002807047CE
:1009F000B1F5006F04D1028842F40062028004E085
:100A000002884FF2FF731A400280704721B10288BA
:100A100042F02002028004E002884FF6DF731A40A1
:100A2000028070470146088B0012704721B102888E
:100A300042F01002028004E002884FF6EF731A4081
:100A40000280704721B9028842F08002028004E0EF
:100A500002884FF67F731A4002807047B1F5804FCD
:100A600005D0828B4BF6FF731A40828303E0828BA2
:100A700042F480428283704770B50246002400250C
:100A800000230020958A138B1B0445EA030626F0F9
:100A90007F4404EA01068E4201D1012000E00020DB
:100AA00070BD10B501460020002300228B8A0A8BFE
:100AB000120443EA020424F07F4010BD0CB5024644
:100AC000002000230193009300920B0F019321F06B
:100AD0007F41019B1BB1009B1433009303E0090C81
:100AE000009B18330093009B1B680B400BB1012047
:100AF00000E000200CBD002221F07F42D34383821E
:100B0000704730B5024600200023948801F0E0656C
:100B100004EA154321F07F41948A0C4054B14BB153
:100B2000012008E00054004000127A0040420F000B
:100B3000A0860100002030BD002221F07F42D34377
:100B400083827047DF48006840F00100DD4908609B
:100B500008464068DC490840DA49486008460068B1
:100B6000DA490840D74908600846006820F4802028
:100B700008600846406820F4FE0048604FF41F00FB
:100B800088607047CF49096821F48031CD4A1160EF
:100B90001146096821F480211160B0F5803F03D02F
:100BA000B0F5802F0ED106E0C649096841F48031C6
:100BB000C44A116007E0C349096841F4A021C14A51
:100BC000116000E000BF00BF704710B50146002271
:100BD000002300204A11012A02D1BA4C236806E002
:100BE000022A02D1B74C236A01E0B64C636A01F0D5
:100BF0001F02012494401C400CB1012000E00020A1
:100C000010BD38B5002000900024002500BF312021
:100C1000FFF7DBFF05460098401C00900098B0F5F8
:100C2000A06F01D0002DF2D03120FFF7CEFF08B128
:100C3000012400E00024204638BD01460020A14ADE
:100C4000106820F0F80040EAC10010607047A04929
:100C500008607047024600209A4B586820F47C10C8
:100C600042EA01031843974B586070479849086659
:100C7000704701460020934A506820F00300084363
:100C8000506070478F48406800F00C007047014684
:100C900000208C4A506820F0F000084350607047F4
:100CA00001460020874A506820F4E0600843506005
:100CB000704701460020834A506820F4605040EAA3
:100CC000C1005060704729B17E4A527A02437D4B81
:100CD0005A7204E07B4A527A82437A4B5A727047C6
:100CE0007B49D8310860704701460020754A50683A
:100CF00020F440400843506070470021714A203280
:100D00001170704A82F82010012802D004280AD1FC
:100D100004E001216B4A2032117005E00521694A87
:100D20002032117000E000BF00BF704769490860C1
:100D300070476449096A0143624A11627047654914
:100D400044390860704730B5002100220024002398
:100D50005C4D6D6805F00C0121B1042905D008290E
:100D600023D105E05C4D056022E05B4D05601FE08E
:100D7000544D6D6805F47012524D6D6805F4803461
:100D8000022505EB92421CB9544D554305600BE01A
:100D90004C4D6D6805F400351DB1504D554305604F
:100DA00002E04D4D5543056002E04B4D056000BF2C
:100DB00000BF444D6D6805F0F0010909484D6B5CBA
:100DC0000568DD4045603F4D6D6805F4E061090A46
:100DD000434D6B5C4568DD4085603A4D6D6805F4B8
:100DE0006051C90A3E4D6B5C4568DD40C560354DBC
:100DF0006D6805F44041890B3A4D6B5CC568B5FBE5
:100E0000F3F5056130BD29B12E4A526902432D4BDD
:100E10005A6104E02B4A526982432A4B5A61704757
:100E200029B1284A92690243264B9A6104E0254A77
:100E300092698243234B9A61704729B1214AD26952
:100E40000243204BDA6104E01E4AD26982431D4B03
:100E5000DA61704729B11B4AD2680243194BDA6044
:100E600004E0184AD2688243164BDA60704729B111
:100E7000144A12690243134B1A6104E0114A1269C1
:100E80008243104B1A61704712494039086070471D
:100E90000F49C86470470B49C87170470948406AD8
:100EA00040F0807007494862704701460020054ABB
:100EB00092680A400AB1012000E000207047014911
:100EC00088727047001002400000FFF8FFFFF6FE36
:100ED000000042428004424200127A0000093D00B4
:100EE000140000202400002010B50446FB48844272
:100EF00009D101218803FFF7ADFF00214FF48040A5
:100F0000FFF7A8FF32E0F648844209D101214804E6
:100F1000FFF7ADFF00214FF40030FFF7A8FF25E0F9
:100F2000F048844209D101218804FFF7A0FF002185
:100F30004FF48020FFF79BFF18E0EB48844209D173
:100F40000121C804FFF793FF00214FF40020FFF7B1
:100F50008EFF0BE0E548844208D101210805FFF728
:100F600086FF00214FF48010FFF781FF10BD2DE9AF
:100F7000F04786B005460E460024A24600BFA146B3
:100F80000027B08900B100BF2F462C8A4CF6FF70B5
:100F90000440F08804432C82AC894EF6F3100440E0
:100FA000B08831890843718908430443AC81AC8A15
:100FB0004FF6FF400440B0890443AC8201A8FFF71C
:100FC000C2FEC648874202D1DDF810A001E0DDF87C
:100FD0000CA0A88900F4004040B10AEBCA0000EB65
:100FE0000A1031684900B0FBF1F807E00AEBCA00CB
:100FF00000EB0A1031688900B0FBF1F86420B8FBFF
:10100000F0F004012009642101FB1089A88900F493
:10101000004040B1322000EBC900B0FBF1F000F01D
:101020000700044308E0322000EB09106421B0FB04
:10103000F1F000F00F0004432C8106B0BDE8F0870A
:101040004FF41651016000218180C18001810C2183
:10105000418100218181704710B502460020108A2D
:101060004FF2FF0318400B884C8823438C8823439E
:10107000CC8823431843108210BD00210180418099
:101080008180C180704721B1828942F400528281FF
:1010900004E082894DF6FF731A4082817047F0B5F3
:1010A0000346002400260025002040F66A17B942B6
:1010B00000D100BF1846C1F3421401F01F060127FA
:1010C00007FA06F5012C01D10C3004E0022C01D105
:1010D000103000E014301AB107682F43076002E0B7
:1010E0000768AF430760F0BD1AB1838A0B43838260
:1010F00002E0838A8B4383827047028A4FF6F07343
:101100001A400282028A0A430282704782894FF2A1
:10111000FF731A40828182890A438281704721B11C
:10112000828942F00202828104E082894FF6FD73D7
:101130001A4082817047028A4FF6DF731A4002829A
:10114000028A0A430282704721B1028A42F4804235
:10115000028204E0028A4BF6FF731A400282704753
:10116000C1F308028280704701468888C0F30800F6
:101170007047818941F0010181817047028BD2B2B1
:101180000283028B42EA012202837047028B02F43F
:101190007F420283028B0A430283704721B1828A15
:1011A00042F02002828204E0828A4FF6DF731A4006
:1011B0008282704721B1828A42F01002828204E06A
:1011C000828A4FF6EF731A408282704721B1828A79
:1011D00042F00802828204E0828A4FF6F7731A40D6
:1011E0008282704721B1828942F40042828103E009
:1011F0008289C2F30E028281704721B1828A42F451
:101200000062828204E0828A4FF2FF731A40828277
:101210007047828A4FF6FB731A408282828A0A43A1
:101220008282704721B1828A42F00202828204E007
:10123000828A4FF6FD731A40828270470246002070
:10124000B1F5007F00D100BF13880B400BB1012026
:1012500000E00020704701F40072B2F5007F00D179
:1012600000BFCA430280704770B5024600240023C5
:101270000025002040F66A16B14200D100BFC1F33C
:10128000421501F01F03012606FA03F3012D02D1D6
:101290009689334006E0022D02D1168A334001E0E0
:1012A000968A33400C12012606FA04F4168834405C
:1012B00013B10CB1012000E0002070BD10B5002278
:1012C000002340F66A14A14200D100BF0A12012493
:1012D0009440A3B2DC43048010BD000000380140FC
:1012E0000044004000480040004C004000500040D6
:1012F0004FF4A060FFF708F800F01CF800F089F840
:1013000000F046F901E002F015FAFCE7704700BF73
:10131000FEE700BFFEE700BFFEE700BFFEE7704745
:101320007047704710B500F054F800F0EFFD10BDA5
:101330007047000070B56FF00400FFF734F82948DB
:1013400000684FF47A72B0FBF2F1B1F1807F01D303
:1013500001201DE021F07F40401E4FF0E02250614F
:1013600050170F22002807DA13071D0E1E4B00F03E
:101370000F04241F1D5503E013071C0E1B4B1C54A8
:1013800000BF00204FF0E022906107201061002094
:1013900008B100BFFEE74FF0E020006940F0010017
:1013A0004FF0E021086170BD1149086000BF10498D
:1013B00009680029FBD1704700B50246002305E00B
:1013C0004FF47A70FFF7F0FF581CC3B29342F7D383
:1013D00000BD0748006820B105480068401E044968
:1013E000086070470000002018ED00E000E400E015
:1013F0002800002008B525208DF8000001208DF878
:1014000001008DF802008DF803006846FEF781FFA9
:1014100008BD00B585B001210420FFF701FD0121C1
:101420008803FFF7FDFC4FF40070ADF810001820A2
:101430008DF8130003208DF8120004A95248FFF71D
:1014400031F84FF48060ADF8100004208DF81300DF
:1014500004A94D48FFF726F84FF4E1300090002032
:10146000ADF80400ADF80600ADF80800ADF80C00CA
:101470000C20ADF80A0069464448FFF778FDFFF7F5
:10148000B9FF012240F225514048FFF708FE012133
:101490003E48FFF7F8FD05B000BD70B504460D46A7
:1014A00029462046FFF75CFE00BF80212046FFF75B
:1014B000C5FE0028F9D070BD2DE9F04107460D4664
:1014C0001646002405E0295D3846FFF7E6FF601C5C
:1014D000C4B2B442F7DB00BF40213846FFF7AEFE8E
:1014E0000028F9D0BDE8F08170B506460C4600250D
:1014F00000BF615D3046FFF7D0FF6D1C605D0028C6
:10150000F7D100BF40213046FFF798FE0028F9D000
:1015100070BD2DE9F04105460C46260AE7B231467A
:101520002846FFF71DFE00BF80212846FFF786FEF4
:101530000028F9D039462846FFF712FE00BF802167
:101540002846FFF77BFE0028F9D0BDE8F08170B592
:1015500004460D46E1B20D48FFF702FE00BF8021B0
:101560000A48FFF76BFE0028F9D0204670BD10B581
:10157000044600BF20210548FFF760FE0028F9D08F
:101580000248FFF7F1FD10BD00080140003801409E
:1015900010B500F0ABFC10BD10B5002000F039FC18
:1015A00010BD10B500F031FC10BD2DE9F04105462D
:1015B0000E46144600F093FC58B13146284600F020
:1015C00058FB40EA04073A463146284600F05FFBE4
:1015D0000AE03146284600F04CFB20EA04073A4670
:1015E0003146284600F053FBBDE8F0812DE9FF4F5E
:1015F00081B080460C46994604EB0902511ECA1779
:1016000001EB5272D2102046E31704EB5373A2EBA6
:10161000E3020092B8F1800F01DC402C02DD05B03E
:10162000BDE8F08F47465DE00098B8B925462646EC
:10163000E11704EB5171C910A4EBC103A9F1010139
:10164000DFF828C41CF801109940CAB2E11704EB76
:101650005171C8103946FFF7A8FF42E025462646DB
:10166000E11704EB5171C910A4EBC101C1F10701ED
:10167000FE4B595CA346E31704EB5373DB10A4EB5A
:10168000C3039940CAB2E11705EB5171C81039463E
:10169000FFF78BFF4FF0010A0BE02546E11704EB43
:1016A00051710AEBE100FF223946FFF77EFF0AF194
:1016B000010A00988245F0DBA9F101010D19E91733
:1016C00005EB5171C910A5EBC101E84B5A5C2646E8
:1016D000E11704EB5171CB10009958183946FFF708
:1016E00064FF7F1C03984044B84201DD802F9BDBE0
:1016F00000BF94E72DE9F05F82460C461746E219D9
:10170000511ECA1701EB5272D2102046E31704EBA8
:101710005373A2EBE309B9F1000F16D12546264613
:10172000E11704EB5171C910A4EBC103791EDFF876
:101730003CC31CF801109940CAB2E11704EB517187
:10174000C8105146FFF731FF3FE025462646E11716
:1017500004EB5171C910A4EBC101C1F10701C34BE6
:10176000595CA346E31704EB5373DB10A4EBC303EC
:101770009940CAB2E11705EB5171C8105146FFF705
:1017800014FF4FF001080BE02546E11704EB5171FF
:1017900008EBE100FF225146FFF707FF08F10108BF
:1017A000C845F1DB791E0D19E91705EB5171C91018
:1017B000A5EBC101AD4B5A5C2646E11704EB517114
:1017C00009EBE1005146FFF7F0FEBDE8F09F2DE97F
:1017D000F84F0446A146A246A54850444FEA500A95
:1017E00054462146484602F043FC2146009002F050
:1017F000E7FB834602F048FE074600229D4B02F0BD
:101800001CFD054602F053FE04462046BDE8F88F55
:1018100030B503460BB9002030BD00219A0F9B0064
:10182000012A01D9491C521A0F240DE049009200E7
:1018300002EB93720D46012000EB45059B00AA4286
:1018400001D3521B491C641E002CEFD10846E3E76C
:101850002DE9FF4F8BB092469B46DDE91889DBF8F6
:1018600000100C98081A4043DAF800200B99521A1D
:10187000DAF80030591A02FB01000A900A9802F0C7
:10188000BDFD0890FFF7A3FF099002F0FDFD04469F
:101890000D46DBF800200C99501A02F0B8FDCDE996
:1018A0000801DAF800200B99501A02F0B0FDCDE9DA
:1018B0000601DDE9082303F08FFB06460F461A9860
:1018C000002842D042464B463046394602F00EFCD4
:1018D000CDE9000103F04EFC22462B46CDE9020182
:1018E00002F0ABFCCDE906010B9802F090FDCDE9CA
:1018F0000401DDE9062302F0F9FBCDE9080102F05D
:10190000A4FDCAF8000042464B463046394602F074
:10191000EDFBCDE9000103F07BFC22462B46CDE92F
:10192000020102F08AFCCDE906010C9802F06FFD7D
:10193000CDE90401DDE9062302F0D8FBCDE9080179
:1019400002F083FDCBF8000041E042464B463046B2
:10195000394602F06CFCCDE9000103F00BFC224695
:101960002B46CDE9020102F068FCCDE906010B9897
:1019700002F04DFDCDE90401DDE9062302F0B6FBDE
:10198000CDE9080102F061FDCAF8000042464B466D
:101990003046394602F04BFCCDE9000103F038FC3B
:1019A00022462B46CDE9020102F047FCCDE90601B3
:1019B0000C9802F02CFDCDE90401DDE9062302F0CC
:1019C00095FBCDE9080102F040FDCBF800000FB017
:1019D000BDE8F08F2DE9F04782460021504602F025
:1019E00083FD02D1002001460CE0504602F04CFD80
:1019F0008046214A214B02F020FC06460022204B63
:101A000002F08DFC044602F052FD1E498860BDE8DC
:101A1000F0871C49C86070471A4A106051607047CF
:101A20002DE9F04106460F4614461D46394630461C
:101A3000FFF7F2FF2846FFF7ECFF2046FFF7CAFF4B
:101A4000BDE8F0812DE9F04188B004460D46164608
:101A5000059504960B49886802F016FD074609486B
:101A6000C068084ACDE9007102900DE03C000020FA
:101A700062CF763F0000E03F6E861BF0F9210940FF
:101A8000008066402C000020516804AB106805AA55
:101A9000FFF7DEFE0598069004980790DDE9060141
:101AA000C4E9000108B0BDE8F0812DE9F041044629
:101AB0000D4616461F46FFF774FD2946204600F0E6
:101AC00071F9B04220D13A462946204600F0ECF8A0
:101AD000611EC8B23B4632462946FFF7E6FF611C4D
:101AE000C8B23B4632462946FFF7DFFF681CC1B249
:101AF0003B4632462046FFF7D8FF681EC1B23B4640
:101B000032462046FFF7D1FFBDE8F08170B50646AA
:101B10000C4615462146304600F044F9A8420BD148
:101B20000CB9002070BD601EC1B22A463046FFF7D6
:101B3000EDFF401CC0B2F5E70020F3E770B50646A4
:101B40000C4615462146304600F02CF9A8420CD12F
:101B50003F2C01D1002070BD601CC1B22A46304626
:101B6000FFF7D4FF401CC0B2F5E70020F3E72DE9F2
:101B7000F0470746884615469A464FF0000900266A
:101B80003C4615E0EAB2E0B24146FFF7D7FF814696
:101B9000EAB2E0B24146FFF7B9FF064609EB06029A
:101BA000A8EB060153462046FFF7A4FD601C04B2D3
:101BB0004146204600F0F6F8A84201D1802CE1DB36
:101BC0007C1E15E0EAB2E0B24146FFF7B7FF81465E
:101BD000EAB2E0B24146FFF799FF064609EB06027A
:101BE000A8EB060153462046FFF784FD601E04B2B1
:101BF0004146204600F0D6F8A84201D1002CE1DC95
:101C0000BDE8F08701460878704710B5024601200C
:101C100000E050430B1EA1F10104E1B2F9D110BD67
:101C200010B504460C48006858B9FFF7BAFCFFF736
:101C3000B3FC4FF47A7090FBF4F007490860012080
:101C400010BD0020FCE70449086000BF0249096894
:101C50000029FBD1704770474800002000209849B8
:101C600008707047012096490870704794480078C2
:101C7000704702469248007820B1924800EBC210AB
:101C8000405C7047904800EBC210405CF9E78C4B19
:101C90001B7823B18B4B03EBC0135A5403E08A4BE0
:101CA00003EBC0135A547047F0B514467F2801DC8B
:101CB0003F2900DDF0BD824A1278C2B3DCB1CD17F6
:101CC00001EB5575ED107F4E06EBC5152D5C0B46EF
:101CD000CE1701EB5676F610A1EBC6070126BE40E3
:101CE00035430A46CE1701EB5676F610754F07EBD3
:101CF000C616355454E0CD1701EB5575ED10714EF5
:101D000006EBC5152D5C0B46CE1701EB5676F6108B
:101D1000A1EBC6070126BE40B5430A46CE1701EB2C
:101D20005676F610674F07EBC616355438E0FFE7D6
:101D3000DCB1CD1701EB5575ED10634E06EBC51503
:101D40002D5C0B46CE1701EB5676F610A1EBC607BD
:101D50000126BE4035430A46CE1701EB5676F610F3
:101D6000594F07EBC61635541AE0CD1701EB5575E0
:101D7000ED10554E06EBC5152D5C0B46CE1701EB4D
:101D80005676F610A1EBC6070126BE40B5430A46BB
:101D9000CE1701EB5676F6104B4F07EBC6163554AF
:101DA00000BF87E7F0B504467F2C01DC3F2901DD49
:101DB0000020F0BD4248007898B10A46C81701EBF0
:101DC0005070C0103F4B03EBC010005D0D46CB17A9
:101DD00001EB5373DB10A1EBC303184100F00100CA
:101DE000E7E70B46C81701EB5070C010364F07EB02
:101DF000C010005D0E46CF1701EB5777FF10A1EB27
:101E0000C707384100F00100D3E710B500F074F8BF
:101E100010BD10B5044622464FF48061294802F0F7
:101E2000BDF810BD10B54FF48061274802F0BDF831
:101E300010BD70B5064636B1012E0BD0022E24D04F
:101E4000032E3AD109E04FF480621F491D4802F089
:101E500093F833E0FFF7E6FF30E0002412E00025BE
:101E60000DE0184800EBC410405D174901EBC411A8
:101E7000495D0843134901EBC41148556D1C802D81
:101E8000EFDB641C082CEADB18E0002412E00025DC
:101E90000DE00C4800EBC410405D0B4901EBC41190
:101EA000495D8843074901EBC41148556D1C802DDD
:101EB000EFDB641C082CEADB00E000BF00BF70BD54
:101EC00044000020600000206004002005490870E4
:101ED000704704480078704703490870704702480B
:101EE00000787047450000204600002010B501F042
:101EF000E9F801F0D9F910BD10B5094801F069F908
:101F000010BD10B5074801F064F910BD064800681F
:101F100020B105480068401E034908607047000072
:101F200060000020600400204800002070B50446D6
:101F30000D46FFF7CEFF0646324629462046FFF7FC
:101F4000B3FE70BD70B504460D4629462046FFF726
:101F500029FF08B1012070BD0020FCE7FC4A106099
:101F6000FC4A116070470CB5F94909680091F949BC
:101F700009680191DDE90012C0E900120CBDF448C6
:101F800000687047F348006870472DE9FF4F85B03F
:101F900081464FF0000AD3460798A0EB0905069941
:101FA0000898461A1FFA89F00390069880B20290AA
:101FB000002D01DD012705E00DB9002702E04FF0FB
:101FC000FF376D42002E02DD4FF0010806E016B922
:101FD0004FF0000802E04FF0FF387642B54201DDD5
:101FE0002C4600E03446002004901DE0FFF771FF0E
:101FF00002460190DDE90210FFF756FEAA44B34401
:10200000A24505DDAAEB040A0398384480B2039088
:10201000A34505DDABEB040B0298404480B202906F
:102020000498401C80B20490611C04988842DDDD55
:1020300009B0BDE8F08F70B505460C4623462A4628
:10204000C4480168C2480068FFF79FFFC0480560A8
:10205000C048046070BD2DE9F04704460F4616469F
:1020600004EB0608FFF735FF8146002C01DA00205B
:1020700000E02046054605E04A4639462846FFF777
:1020800013FE6D1CB8F1800F01DA404600E080209D
:10209000A842F1DCBDE8F0872DE9F04707460C4681
:1020A000164604EB0608FFF714FF8146002C01DA00
:1020B000002000E02046054605E04A46294638460D
:1020C000FFF7F2FD6D1CB8F1400F01DA404600E069
:1020D0004020A842F1DCBDE8F08770B504460E460A
:1020E0000025D4E90001FFF739FF012507E004EBE3
:1020F000C50254F835005168FFF79DFF6D1CB542CD
:10210000F5DB70BD2DE9F04104460D4616461F462D
:102110002B46324629462046FFF737FF3B463246DC
:1021200039462046FFF731FF3B46224629462046E6
:10213000FFF72BFF3B46324629463046FFF725FF87
:10214000BDE8F0812DE9F04104460D4616461F46D4
:102150003B46324629462046FFF7D4FF781B431EF4
:10216000301B421E691C601CFFF740FABDE8F0817D
:102170002DE9F04104460D4616461F46A019421EA1
:102180002B4629462046FFF700FFE819431EA019F9
:10219000421EE819411E2046FFF7F7FEE819431ECC
:1021A000224629462046FFF7F0FEE9194B1EA119E9
:1021B0004A1EA119481E2946FFF7E7FEBDE8F08137
:1021C0002DE9F04104460D4616461F463B46324671
:1021D00029462046FFF7CCFF7B1E721E691C601C3F
:1021E000FFF704FABDE8F0812DE9F04706460F46F7
:1021F000904600240FFA88F50320A0EB48000FFA60
:1022000080F952E0FFF765FE82467919301952468F
:10221000FFF74AFDFFF75DFE82467919301B5246F3
:10222000FFF742FDFFF755FE82463919701B5246F3
:10223000FFF73AFDFFF74DFE8246391B701B5246F1
:10224000FFF732FDFFF745FE8246791B301B5246F1
:10225000FFF72AFDFFF73DFE8246791B30195246F3
:10226000FFF722FDFFF735FE8246391B70195246F3
:10227000FFF71AFDFFF72DFE8246391970195246F5
:10228000FFF712FD601C04B2B9F1000F05DAA000DF
:10229000801D48440FFA80F907E0601B80000A3077
:1022A00048440FFA80F9681E05B2AC42AADDBDE8C9
:1022B000F0872DE9FE4F06460F4690469A46DDF818
:1022C0003090C8F1010B012002904FEA48004042D3
:1022D000019000244546FFF7FCFD009034E0BBF17F
:1022E000000F05DB6D1E0198801C0190019883444E
:1022F000641C0298801C0290029883440AF001003A
:1023000078B16B005B1C4B44DAB2791B3019FFF7D4
:10231000C3FE63005B1C4B44DAB2391B7019FFF734
:10232000BBFE0AF0020078B16B005B1C4B44DAB2D2
:10233000791B301BFFF7B0FE63005B1C4B44DAB225
:10234000391B701BFFF7A8FEAC42C8DBBDE8FE8F4F
:102350004C00002050000020F8B506460D461446FB
:102360006000401CC2B2291B3046FFF795FE0020DA
:10237000E2B20323294600903046FFF79AFFF8BDEA
:102380002DE9FC5F06460F4691469846C9F1010AC1
:102390004FF0010B4FEA49004042019000244D46A6
:1023A000FFF797FD009040E0BAF1000F05DB6D1ECE
:1023B0000198801C019001988244641C0BF1020B6F
:1023C000DA4408F0040048B179193019009AFFF78F
:1023D0006BFC39197019009AFFF766FC08F00200CF
:1023E00048B1791B3019009AFFF75EFC391B701950
:1023F000009AFFF759FC08F0080048B13919701B22
:10240000009AFFF751FC7919301B009AFFF74CFC3A
:1024100008F0010048B1391B701B009AFFF744FC1B
:10242000791B301B009AFFF73FFCAC42BCDBBDE8D8
:10243000FC9F2DE9F04786B005460E4614461F4620
:10244000DDF838804FF000096846FFF78CFDDDE9C4
:102450000001CDE9020131462846FFF7DDFA0020F0
:10246000FFF7D7FAB8F5B47F01DD4FF4B478002058
:10247000FFF7B0FA321929466846FFF7E3FADDE9BB
:102480000001CDE90401DDE90401FFF767FD3846ED
:1024900001F0B4FF814614E04846FFF79BFA321979
:1024A00029466846FFF7CEFADDE90001CDE90401CF
:1024B000DDE90401FFF7BFFDFE49484601F080FD5C
:1024C0008146404601F09AFF8246494602F016F8DE
:1024D000E2D328193146FFF7AEFDDDE90201FFF72F
:1024E0003DFD06B0BDE8F08710B5029C10BD2DE99A
:1024F000F04105460E4617469846069C022101FB10
:102500001471CAB228193146FFF7A5FD022303FB57
:102510001473DAB206EB0803591E2819FFF79BFD66
:10252000022000FB1480C2B231192846FFF7B4FD27
:10253000022303FB1483DAB23119EB19581EFFF79B
:10254000ABFD3119281901232246FFF719FF311974
:10255000EA19121B501E02232246FFF711FF06EB59
:102560000802121B511EEA19121B501E0423224698
:10257000FFF706FF06EB0802121B511E281908235D
:102580002246FFF7FDFEBDE8F0812DE9F843054640
:102590000E4617469846089C022101FB1472281922
:1025A00043463146FFF70CFE022000FB1480401E1C
:1025B0003119EA19121B0090501E01232246FFF721
:1025C00078FE022000FB1480401E3119009028196B
:1025D00002232246FFF76DFEBDE8F8832DE9FF4F89
:1025E00099B006460F4698461B9800FB00F908FB79
:1025F00008FA4FEA490017904FEA4A001690002562
:10260000444600201590179860431490FFF761FC32
:10261000391913907019139AFFF746FBFFF759FC0D
:1026200039191390701B139AFFF73EFBFFF751FC0B
:10263000391B13907019139AFFF736FBFFF749FC0B
:10264000391B1390701B139AFFF72EFB484601F0BD
:10265000DEFE0022984BCDE90C0101F0EEFDCDE944
:10266000100109FB18A001F0D2FECDE90E01DDE951
:10267000102301F03BFDCDE9120101F0E6FE834697
:1026800036E06D1CDDE9150108441590BBF1000F23
:1026900003DA1598504483440AE0641E179914988D
:1026A000401A149015980AEB00011498081A8344F4
:1026B000FFF70FFC391913907019139AFFF7F4FA0A
:1026C000FFF707FC39191390701B139AFFF7ECFA08
:1026D000FFF7FFFB391B13907019139AFFF7E4FA09
:1026E000FFF7F7FB391B1390701B139AFFF7DCFA07
:1026F000DDE914108842C4DB09FB0AF001F087FE13
:10270000CDE91001611E01FB09F1621E01FB02F01F
:1027100001F07DFECDE90C01284601F078FE002293
:10272000664BCDE9040101F0E1FCCDE90801284642
:1027300001F06DFE0022614BCDE9000101F0D6FCF5
:10274000CDE90401504601F062FECDE90201DDE968
:10275000042301F072FDCDE90601DDE9082301F053
:102760006CFDCDE90A01DDE90C2301F0BFFCCDE9E8
:102770000E01DDE9102301F05AFDCDE9120101F04F
:1027800064FE834637E0641E17991498401A14902B
:10279000BBF1000F04DD1498A9EB000083440AE0AC
:1027A0006D1CDDE91501084415901498A9EB000192
:1027B000159808448344FFF78CFB3919139070195E
:1027C000139AFFF771FAFFF784FB39191390701B06
:1027D000139AFFF769FAFFF77CFB391B1390701906
:1027E000139AFFF761FAFFF774FB391B1390701B04
:1027F000139AFFF759FA002CC5DC1DB0BDE8F08F25
:102800002DE9FF4F85B0824616461F46B3460BFBA7
:1028100006FB4FEA4B0B0397039F07FB07F0039060
:10282000039840000390354600244FF00108A8EBC0
:102830000608A8EB060808FB07F808FB07F8B146EE
:1028400009FB06F900200490039802900298704357
:102850000290002001903CE0631CDAB2069B191B39
:102860000AEB0500FFF718FC631CDAB2069B191B84
:10287000AAEB0500FFF710FC611CCAB20AEB0500C9
:102880000699FFF709FC611CCAB2AAEB050006997C
:10289000FFF702FC641C01985844019004984844D6
:1028A0000490D9440221049801FB0080002810DD27
:1028B0006D1E05E00000A0400000D03F0000E03F9A
:1028C000DDE90201401A0290049840440490039804
:1028D0008044DDE901108842BEDA00253C46B84656
:1028E00008FB07F84FF00109A9EB0709A9EB070955
:1028F00009FB06F909FB06F9002004900290CDF8C7
:1029000004B0DDF804B00BFB07F0019036E0631C67
:10291000DAB2069B191B0AEB0500FFF7BDFB631C2F
:10292000DAB2069B191BAAEB0500FFF7B5FB611C89
:10293000CAB20AEB05000699FFF7AEFB611CCAB2EA
:10294000AAEB05000699FFF7A7FB6D1CDDE9020164
:102950000844029004984044049003988044022163
:10296000049801FB0090002808DD641E0198A0EB8C
:102970000B000190049848440490D944DDE901100B
:102980008842C4DD09B0BDE8F08F2DE9FE4F064650
:102990000F4614469846A01B002801DB014600E0C4
:1029A00041420D46A8EB0700002801DB014600E08C
:1029B0004142894609F0010AC5F10100800000FB8F
:1029C00009F000FB09FB0AF101008000684368433D
:1029D000029002980BEB00010AFB05F000FB0510CA
:1029E0000190A64201DD26462C44474500DD4746BE
:1029F00009F1010000EBD07107EB6107A7EB0A08B2
:102A0000E80045434FEAC90000FB09FA00BF394618
:102A10002046FFF78BFA39463046FFF787FA4146E2
:102A20003046FFF783FA41462046FFF77FFA0198C8
:102A3000400000900098584507DB761C641E0BEBA5
:102A40000A018B4601980844019002990098884237
:102A500008DC7F1CA8F10108029841190291019835
:102A600008440190A642D2DD12E0701E3946FFF7FD
:102A70005DFA39467F1C601CFFF758FA701E41460C
:102A8000FFF754FA4146A8F10108601CFFF74EFA1F
:102A9000A7EB08004845E8DBBDE8FE8F2DE9F047CD
:102AA00004460D4616461F46DDE908893B46324678
:102AB00029462046FFF769FA4B46424639463046DA
:102AC000FFF763FA2B46224649464046FFF75DFA78
:102AD000BDE8F0872DE9F04F8DB080468946154658
:102AE0001C46DDE916AB002004900390FFF7F1F9D6
:102AF0000290FFF7F4F90190FFF7E8F9A14509DD2D
:102B00004C44A4EB0909A4EB09044544A5EB0808CF
:102B1000A5EB08055C4509DD5C44A4EB0B0BA4EBBD
:102B20000B045544A5EB0A0AA5EB0A05A14509DDEE
:102B30004C44A4EB0909A4EB09044544A5EB08089F
:102B4000A5EB0805D94519D146463746B54201DA05
:102B50002E4602E0BD4200DD2F46B24501DA564660
:102B600002E0BA4500DD5746B81B401CC2B24946D8
:102B70003046FFF770FA0DB0BDE8F08FA5EB080006
:102B80000A90A4EB09000990AAEB08000890ABEBAF
:102B900009000790AAEB05000690ABEB0400059036
:102BA0000020049003905C4501D10B9401E0601E6D
:102BB0000B90CDF8309022E00999049890FBF1F049
:102BC00000EB08060799039890FBF1F000EB08076B
:102BD0000A990498084404900899039808440390BB
:102BE000BE4202DD3744BE1BBF1BB81B401CC2B235
:102BF00030460C99FFF72FFA0C98401C0C90DDE939
:102C00000B108842D8DD0C98001B069948430490AD
:102C10000C98A0EB090008994843039021E0DDE9F6
:102C2000040190FBF1F046190799039890FBF1F02D
:102C300000EB080706990498084404900899039843
:102C400008440390BE4202DD3744BE1BBF1BB81BC5
:102C5000401CC2B230460C99FFF7FDF90C98401C9D
:102C60000C900C985845DADD0298FFF72FF900BF59
:102C700081E72DE9FF4F83B0054688469946DDF888
:102C800040B0B8F1000101DB0A4600E04A421046BC
:102C9000D21700EB5272D210A0EBC20A40464FEAA4
:102CA000E87108EB5171C910029158464FEAEB7177
:102CB0000BEB5171C910019105EB0900002808DBED
:102CC0007F2D06DC08EB0B00002802DBB8F13F0F7C
:102CD00002DD07B0BDE8F08FB8F1000F04DA02980A
:102CE000401E0290CAF1080A4FEAEB710BEB5171DA
:102CF000C910ABEBC10111B10198401C0190002734
:102D0000B9E00298C619072E00DDB8E016F1020FEF
:102D100078DD0024AAE060197F2800DDA9E06019B1
:102D200000286EDB002E4ADBFFF7D3F8012816D10E
:102D300029193046FEF79DFF0090059907FB091100
:102D40000819FEF75FFF00FA0AF000990843C0B2C5
:102D5000009029193046009AFEF799FF2FE0FFF7FF
:102D6000B8F8A8B929193046FEF783FF00900599F5
:102D700007FB09110819FEF745FF00FA0AF1009850
:102D80008843009029193046009AFEF780FF16E02C
:102D900029193046FEF76DFF0090059907FB0911D0
:102DA0000819FEF72FFF00FA0AF000994840C0B258
:102DB000009029193046009AFEF769FF00BFBAF16A
:102DC000000F52D0072E50DA16F1020F4DDDFFF73B
:102DD00080F8012817D12919701CFEF74AFF0090CE
:102DE000059907FB09110819FEF70CFFCAF1080144
:102DF00008410099084300902919701C009AFEF7B9
:102E000046FF32E036E0FFF764F8B8B92919701CC4
:102E1000FEF72FFF0090059907FB09110819FEF72F
:102E2000F1FECAF1080140FA01F1009888430090D0
:102E30002919701C009AFEF72AFF16E02919701C48
:102E4000FEF717FF0090059907FB09110819FEF717
:102E5000D9FECAF10801084100994840009029199B
:102E6000701C009AFEF713FF00BF641C4C45FFF670
:102E700052AF00BF7F1C01988742FFF642AF00BFF0
:102E800000BF26E72DE9F84F06460F4691469846C3
:102E9000DDF828A008F10700C11700EB5171C91037
:102EA000009106EB0800002807DB7F2E05DC07EB0E
:102EB0000A00002801DB3F2F01DDBDE8F88F002567
:102EC0001DE0002418E0E11704EB5171CA100099CD
:102ED00005FB01915018FEF795FE04F007028021D2
:102EE0001141084038B1FEF7F4FF834679193019D3
:102EF0005A46FEF7D9FE641C4445E4DB6D1C55457B
:102F0000DFDB00BFD9E72DE9F74F84B007468846DD
:102F100000F04DFA0546FEF7DCFF019000F03FFAA5
:102F20000290DDE90110884201D0012000E000207C
:102F30000390802F0EDAB8F1400F0BDA052000FB6A
:102F40000570401E002805D4082000FB0580401EA7
:102F5000002802D507B0BDE8F08F00243EE0052C24
:102F600001D1002608E0069901EB8101544A114481
:102F70000819FEF747FE06464FF000092AE006F062
:102F8000010008B1019800E002980090009808B98B
:102F90000398E0B14FF0000A17E04FF0000B0EE08D
:102FA00009FB058202EB0B0104FB057202EB0A0030
:102FB000009AFEF779FE0BF1010000F0FF0BAB4524
:102FC000EEDB0AF1010000F0FF0AAA45E5DB76100E
:102FD00009F10109B9F1080FD1DB641C062CBEDB35
:102FE00000BFB7E72DE9F04706460F461546002417
:102FF00006F0FF0807F0FF0900F0D9F982461AE051
:10300000285D0A2809D1082000FB0A9000F0FF097A
:1030100006F0FF08601CC4B20DE02A5D4946404638
:10302000FFF771FF0AEB4A0008EB400000F0FF08D1
:10303000601CC4B200BF285D0028E1D1BDE8F08764
:103040002DE9F05F06468A4690461D464FF0000B7C
:1030500000F0ADF9814600242DE0281B401EC1B2CE
:103060000A20FEF7D2FDB8FBF0F00A21B0FBF1F226
:1030700001FB1207BBF1000F0FD1681EA0420CDD4F
:103080004FB909EB4901490001FB04603022514668
:10309000FFF739FF0DE04FF0010B07F13001CAB225
:1030A00009EB4901490001FB04605146FFF72BFF82
:1030B00000BF601CC4B2AC42CFDBBDE8F09F7047DC
:1030C000D05B000800B585B001214805FDF7B5FECD
:1030D00001210820FDF7A4FEC020ADF80000032068
:1030E0008DF802001C208DF803006946A548FDF705
:1030F000D9F9A548FDF724FB0020ADF808004BF6F0
:10310000FF70ADF80A003020ADF80C004FF480607D
:10311000ADF80E000001ADF810009C4801900121AF
:103120009948FDF7A4FB01A99748FDF722FBC820A9
:10313000FEF789FD05B000BD70B504460D4600BF21
:103140004FF400319048FDF7B9FC0028F8D1012177
:103150008D48FDF7B0FB00BF8D498B48FDF78CFC17
:103160000028F9D0002278218748FDF7FAFB00BF3C
:1031700088498548FDF780FC0028F9D0214682481F
:10318000FDF7E9FB00BF8349891C7F48FDF774FC0C
:103190000028F8D029467C48FDF7DDFB00BF7D49BB
:1031A000891C7948FDF768FC0028F8D00121764891
:1031B000FDF78DFB70BD10B5044621460020FFF7DA
:1031C000BBFF10BD10B5044621464020FFF7B4FFF9
:1031D00010BD70B505462E46B020FFF7ECFF00206D
:1031E000FFF7E9FF1020FFF7E6FF00BF4FF40031C3
:1031F0006548FDF763FC0028F8D101216248FDF71E
:103200005AFB00BF62496048FDF736FC0028F9D040
:10321000002278215C48FDF7A4FB00BF5D495A48B5
:10322000FDF72AFC0028F9D040215748FDF793FB11
:1032300000BF5849891C5448FDF71EFC0028F8D0EF
:1032400000240DE016F8011B4F48FDF784FB00BF7A
:103250005049891C4C48FDF70FFC0028F8D0641C2D
:10326000B4F5806FEED301214748FDF730FB70BD08
:1032700070B5002415E004F1B001C8B2FFF79BFF60
:103280000020FFF798FF1020FFF795FF002504E0CE
:103290000020FFF797FF681CC5B2802DF8DB601C8B
:1032A000C4B2082CE7DB70BD10B5AE20FFF783FF7A
:1032B0002020FFF780FF1020FFF77DFFB020FFF7F1
:1032C0007AFFC820FFF777FF0020FFF774FF102078
:1032D000FFF771FF4020FFF76EFF8120FFF76BFFC4
:1032E000FF20FFF768FFA120FFF765FFA620FFF78B
:1032F00062FFA820FFF75FFF3F20FFF75CFFA420DD
:10330000FFF759FFD320FFF756FF0020FFF753FFC9
:10331000D520FFF750FFF020FFF74DFFD920FFF732
:103320004AFF2220FFF747FFDA20FFF744FF122071
:10333000FFF741FFDB20FFF73EFF2020FFF73BFFB9
:103340008D20FFF738FF1420FFF735FFAF20FFF780
:1033500032FFFFF78DFF10BD10B58D20FFF72BFF5B
:103360001420FFF728FFAF20FFF725FF10BD10B591
:103370008D20FFF720FF1020FFF71DFFAE20FFF785
:103380001AFF10BD000C01400054004040241400FE
:1033900001000300820007000649087070470548D5
:1033A00000787047012801DB034908707047024824
:1033B0000078704754000020550000202DE9F04FA0
:1033C000CFB03F204D901F204C90002401254B9002
:1033D0004FF0010900204A909FE0FEF7DDF800243D
:1033E00067E04D9801F013F8CDE90A01284601F095
:1033F0000EF8CDE90001204601F01AF88246F74A9E
:10340000F74B00F01AFF0746DDE9002300F087FFC5
:10341000CDE9020101F0AEFECDE906014B9800F0C6
:10342000F6FFCDE90401DDE9062300F006FFCDE952
:103430000801DDE90A2300F059FECDE90C0101F095
:1034400004F82CA941F824004C9800F0E0FFCDE9E5
:103450000A01284600F0DBFFCDE90201204600F01A
:10346000E7FF0746DD4ADE4B00F0E7FECDE900014D
:10347000DDE9022300F053FFCDE9040101F0C8FEAD
:10348000CDE906014B9800F0C2FF8246DDE9062334
:1034900000F0D3FECDE90801DDE90A2300F026FEA5
:1034A000CDE90C0100F0D1FF0EA941F82400601C09
:1034B000C4B2AC4295DB002417E0601CC6B20FE03A
:1034C0000EAF57F826302CAF57F826200EAF57F81E
:1034D00024102CAF57F82400FEF757FD701CC6B21D
:1034E000681EB042ECDA601CC4B2A81EA042E4DA46
:1034F0004D44142D00D00DB9C9F100096420FDF729
:1035000053FFFEF74EF84A98401C4A905A2804D1BF
:1035100000204A904FB0BDE8F08F5EE72DE9F04102
:103520000027002415E0002510E000260BE03246BD
:103530002946204600F06AFC7F1CB7F5487F01DB76
:10354000BDE8F081761C3C2EF1DB6D1C3C2DECDBE4
:10355000641C0C2CE7DB00BFF2E7F0B5ADF2044DC4
:1035600000263C274FF4806101A800F01EFD0220D8
:1035700000F0FAFC002437E001A800EBC400C07999
:1035800088BB00F0E7FC7F2190FBF1F201FB120009
:1035900000B201A921F8340000F0DCFC0546C01798
:1035A00005EB90608011A5EB801000B201A901EB42
:1035B000C4014880002001A901EBC401887100F01A
:1035C000C9FC0546C01705EB5070C010A5EBC00044
:1035D000401C00B201A901EBC4018880012001A9AF
:1035E00001EBC401C871641C802CC5DBA1E0384626
:1035F000FEF716FB012808D1761C07EB8700B6EB17
:10360000400F02DB0DF2044DF0BD00248EE001A856
:1036100000EBC400C07948BB002001A921F83400A8
:1036200000F098FC0546C01705EB90608011A5EBF3
:10363000801000B201A901EBC401488000F08AFCAF
:10364000062190FBF1F201FB1200401C00B201A91F
:1036500001EBC4018880002001A901EBC40188713D
:10366000012001A901EBC401C8715EE001A800EBD3
:10367000C4008079401C01A901EBC401887101A834
:1036800030F934007C2804DB002001A901EBC401DF
:10369000C8710020FEF71AFC01AD05EBC405B5F9B1
:1036A000023001AD35F9342005EBC405B5F902103F
:1036B00001AD35F93400FEF768FC0120FEF706FC89
:1036C00001A800EBC400807901A901EBC401B1F9A4
:1036D000041088420CD1002001A901EBC4018871BB
:1036E00001A830F83400401C00B201A921F83400D0
:1036F00001A800EBC400B0F90400062191FBF0F032
:1037000001A931F934100844451E01AA02EBC40294
:10371000B2F9023001AA02EBC402B2F9021001AA06
:1037200032F934002A46FEF730FC641C802CFFF688
:103730006EAF5CE71FB5FDF72FFF40208023294ABD
:10374000002100900846FFF794FAFDF72AFF4FF496
:10375000FA60FDF729FEFDF71FFF0120FFF722FEAB
:1037600021A200210846FFF73DFCFDF71AFF4FF4A8
:103770007A70FDF719FE0220FFF714FE1AA2082145
:103780000020FFF72FFCFDF70CFF4FF47A70FDF7D8
:103790000BFE0320FFF706FE13A218210020FFF7FF
:1037A00021FCFDF7FEFE4FF47A70FDF7FDFDFDF7FD
:1037B000F3FE00240DE004EB840042003F230021CF
:1037C0000846FEF7E2FBFDF7ECFE6420FDF7ECFD9A
:1037D000641C142CEFDB00241AE000004AD8124DC0
:1037E000FB211940D0570008746573740000000075
:1037F00004EB84008021A1EB40023F2300218020C4
:10380000FEF7C3FBFDF7CDFE6420FDF7CDFD641C84
:10381000142CEDDB4FF47A70FDF7C6FD002538E07F
:103820000DB9FDF7B9FE00240FE06100C1F14003BE
:103830008021A1EB840260002146FEF799FCFDF790
:10384000B0FE6420FDF7B0FDA41C1F2CEDDB0DB90C
:10385000FDF7A2FE4FF4FA70FDF7A6FD1F240FE05E
:103860006100C1F140038021A1EB84026000214688
:10387000FEF7A6FCFDF795FE6420FDF795FDA41E5E
:10388000002CEDDC0020FEF721FB0020FEF724FBDE
:103890006D1C022DC4DB0120FEF718FB0120FEF792
:1038A0001BFB002540E00DB9FDF776FE002413E078
:1038B00002206100C1F14001CBB28021A1EB840163
:1038C000CAB2009060002146FEF711FEFDF769FEC6
:1038D0006420FDF769FDA41C1F2CE9DB0DB9FDF781
:1038E0005BFE4FF4FA70FDF75FFD1F2413E002202A
:1038F0006100C1F14001CBB28021A1EB8401CAB2C9
:10390000009060002146FEF740FEFDF74AFE64206D
:10391000FDF74AFDA41E022CE9DC0020FEF7D6FAD2
:103920000020FEF7D9FA6D1C022DBCDB0120FEF74A
:10393000CDFA0120FEF7D0FAFDF72EFE1F233F221D
:1039400019461046FEF74AFEFDF72BFE4FF47A703B
:10395000FDF72AFDFDF720FE1F23102219463F2008
:10396000FEF73CFEFDF71DFE4FF47A70FDF71CFDDF
:10397000FDF712FE1F233F2219461046FEF740FFB7
:10398000FDF70FFE4FF47A70FDF70EFDFDF704FE14
:103990001F23102219463F20FEF732FFFDF701FEDC
:1039A0004FF47A70FDF700FDFDF7F6FD1E221F2192
:1039B0003F20FEF719FCFDF7F4FD4FF47A70FDF798
:1039C000F3FCFDF7E9FD1E221F213F20FEF7C4FC9A
:1039D000FDF7E7FD4FF47A70FDF7E6FCFDF7DCFD3F
:1039E00032203C211E236422CDE900100A2105204B
:1039F000FFF754F8FDF7D5FD4FF47A70FDF7D4FCCE
:103A0000FDF7CAFD32203C211E236422CDE90010BF
:103A10000A210520FFF75EF8FDF7C3FD4FF47A7029
:103A2000FDF7C2FCFDF7B8FD10200346CA4A00218D
:103A300000900846FFF71DF9FDF7B3FD4FF47A70CB
:103A4000FDF7B2FC20200346C44A0021009010205C
:103A5000FFF70FF9FDF7A5FD4FF47A70FDF7A4FC11
:103A600040200346BE4A002100903020FFF701F9B4
:103A7000FDF797FD4FF47A70FDF796FCFDF78CFD8E
:103A800000240BE000231E221F213F200094FEF79C
:103A9000D0FCFDF786FDFDF77FFD641CB4F5B87F13
:103AA000F0DD1E221F213F20FEF79EFBFDF779FD72
:103AB0004FF4FA70FDF778FC002411E022461F2134
:103AC0003F20FEF749FC1E221F213F20FEF78CFB02
:103AD000FDF767FDFDF760FD6420FDF765FC641CE4
:103AE0000A2CEBDB002426E0204600F087FC06468B
:103AF000FDF770FF1F213F20FDF78EFF3D223F2184
:103B00006846FDF79FFFDDE90001CDE902010522CE
:103B1000DDE90201FEF720FC1E221F213F20FEF7F7
:103B200063FB0A221F213F20FEF716FCFDF739FD3B
:103B3000FDF732FD641CB4F5347FD5DB00242BE0A7
:103B400004F5347000F05AFC0646FDF743FF04F11B
:103B50003F001F21FDF760FF04F13F013D22684651
:103B6000FDF770FFDDE90001CDE902010522DDE985
:103B70000201FEF7F1FB04F13F001E221F21FEF7B8
:103B800033FB04F13F000A221F21FEF7E5FBFDF79E
:103B900008FDFDF701FD641C5F2CD1DBFFF7DDFCA8
:103BA000FFF7BCFCFFF70AFC4FF47A70FDF7FCFB53
:103BB000FDF7F2FC0220FFF7F5FB6AA210210820B6
:103BC000FFF710FAFDF7EDFC4FF4FA60FDF7ECFBA0
:103BD000FDF7E2FC28208023654A0A21009000209E
:103BE000FFF747F8FDF7DDFC00BFFEE700BFFEE78B
:103BF000ADF5587D0025012000F0B6F9002407E05E
:103C0000A01E00EB8000400096A941F82400641C2F
:103C1000422CF5DBFDF7C0FC9DE0642D27D000F0C1
:103C200099F90646C01706EB90708010A6EB80004D
:103C3000401C00B205EB45016A4602EB4101888059
:103C400000F088F9422190FBF1F201FB120496A8E2
:103C500030F8240000B205EB45012DF811000020DA
:103C600005EB45016A4602EB410148806D1C0024CA
:103C700068E004EB4400694601EB4000408804EB37
:103C800044016A4602EB41018988084400B204EB12
:103C9000440102EB4101488004EB44026B4603EB14
:103CA0004202B2F90220511C04EB44023DF9120019
:103CB000FEF73CF904EB44026B4603EB4202B2F917
:103CC000021004EB44023DF91220501CFEF72EF9BD
:103CD00004EB44026B4603EB4202B2F9021004EB20
:103CE00044023DF91200FEF721F904EB44026B4651
:103CF00003EB4202B2F9021004EB44023DF9122038
:103D0000501EFEF713F904EB44026B4603EB42022C
:103D1000B2F90220511E04EB44023DF91200FEF7F5
:103D200005F904EB4400694601EB4000B0F90200DC
:103D30003F2806DD002004EB44016A4602EB410106
:103D40004880641CAC4294DB1E20FDF72DFBFDF780
:103D500028FCFDF721FC60E7B0520008D0520008B3
:103D6000505300082053686F7720456E6420000090
:103D7000505500082DE9F0438BB004460D46164619
:103D80001F46FEF7FFF88046FEF7F9F881462A46FF
:103D9000214601A8FDF756FEDDE90101CDE9090143
:103DA000A1192A4601A8FDF74DFEDDE90101CDE983
:103DB0000701EA19A11901A8FDF744FEDDE9010197
:103DC000CDE90501EA19214601A8FDF73BFEDDE931
:103DD0000101CDE90301DDE90901FEF7BFF8DDE9E5
:103DE0000701FEF728F9DDE90501FEF724F9DDE911
:103DF0000301FEF720F9DDE90901FEF71CF9414650
:103E00004846FEF7ABF80BB0BDE8F0832DE9F04370
:103E10008DB007460C46154600BFC4EB04104000A9
:103E20003C2190FBF1F0C7EB071100EB410948463C
:103E300000F0E4FA8046012342461F213F20FDF7AF
:103E4000EFFD1F22312101A8FDF7FCFDDDE9010195
:103E5000CDE90B011F213F20DDE90B23FEF795F88B
:103E600005EB450040003C2190FBF1F004EB4401E0
:103E700000EB4109484600F0C1FA80460123424662
:103E80001F213F20FDF7CCFD1F222A2101A8FDF7AD
:103E9000D9FDDDE90101CDE909011F213F20DDE95F
:103EA0000923FEF772F805EB4501480000F0A6FA79
:103EB0008046012342461F213F20FDF7B1FD1F220E
:103EC000232101A8FDF7BEFDDDE90101CDE90701D0
:103ED0001F213F20DDE90723FEF757F8002625E0E4
:103EE000C6EB0611480000F089FA804601234246DD
:103EF0001F213F20FDF794FD1F22222101A8FDF77D
:103F0000A1FDDDE90101CDE905011F22272101A85D
:103F1000FDF798FDDDE90101CDE90301DDE90323AA
:103F2000DDE90501FEF731F8701CC6B20C2ED7DBB7
:103F300002221F213F20FEF70FFA1E221F213F20E1
:103F4000FEF752F9FDF72DFBFDF726FB0DB0BDE89E
:103F5000F08300000649074A0868504343F23902DB
:103F6000104408604008704701490860704700002D
:103F7000580000206D4EC64140EA01039B0703D064
:103F800009E008C9121F08C0042AFAD203E011F898
:103F9000013B00F8013B521EF9D27047D2B201E05A
:103FA00000F8012B491EFBD270470022F6E710B53E
:103FB00013460A4604461946FFF7F0FF204610BD97
:103FC000F0B480EA0102D40F4200B2EB410F02D2FA
:103FD0000246084611464A0042D0C30DDDB2C1F385
:103FE000C752AD1A202D35DAC1F3160141F4000293
:103FF00004B15242C5F1200602FA06F12A411044EA
:10400000B3EBD05F23D0C4B1012DA0EBC35009DCCA
:10401000F0BC4FF0004202EAC352DBB200F50000F0
:1040200000F0B0BA400000F1807000EBC350A0F186
:10403000807040EAD170490009E0490841EAC07146
:10404000A0EBC35000F50000400800EBC350F0BCEB
:1040500000F08FBA6142012202EB4101001BF6E73A
:10406000F0BC704781F00041AAE780F00040A7E76C
:1040700030B480EA010202F0004530F0004221F045
:10408000004013D090B1C30DD40DC2F31601C0F39C
:104090001600E41A41F4000140F400027D3491421C
:1040A00001D3641C00E04900002C02DA30BC00207F
:1040B00070474FF400000023914201D3891A034353
:1040C00040084FEA4101F7D151B1914202D14FF07E
:1040D000004105E002D24FF0010101E06FF0010163
:1040E00003EBC450284430BC00F043BA2DE9FE4F26
:1040F000804681EA0300C00F0C46009021F0004189
:1041000023F00045B8EB0200A94105D24046214604
:1041100090461C460B46024623F00040104347D011
:10412000270DC7F30A00C3F30A510290401A019009
:1041300040286BDAC3F3130040F4801B00989246CA
:1041400020B10023D2EB030A63EB0B0B0198594615
:10415000C0F14002504600F0DBF906460D465046DD
:104160005946019A00F0F3F910EB08006141002470
:1041700087EA115284EAE7731A4340D0009A62B387
:10418000019A012A4FEA075215DC001B61EB02017C
:104190004FF0004202EA0752CDE90042001C41F50F
:1041A000801132462B4600F02AFA03B0BDE8F08FAA
:1041B00040462146F9E7001B61EB0201001C41F576
:1041C000801300185B412018A2F5001747EB03018C
:1041D00040EAD570B6196D4111E06D084FEA360618
:1041E00045EAC0754FEA0752001B61EB0201001C53
:1041F00041F5801149084FEA30000019514132461B
:104200002B4603B0BDE8F04F00F0EAB90098012258
:1042100040000023D0EB020263EBE07300982146DC
:104220004FEAE074B8EB000061EB0401E9E783F0CA
:1042300000435BE781F0004158E72DE9FE4F81EA3A
:10424000030404F0004421F0004100944FF0000BFF
:1042500023F0004350EA01045ED052EA03045BD02D
:10426000C3F30A54C1F30A552C44A4F2F334019465
:10427000A0FB0254C1F3130141F48011C3F31303F3
:1042800043F4801301FB024400FB034E840A970AA7
:1042900044EA815447EA8357A4FB076802958D0AD4
:1042A00005FB07854FEA932C04FB0C542705029D60
:1042B0004FEA065847EA1637B5EB08056EEB070CD0
:1042C000870E920E47EA811742EA8312A7FB02018A
:1042D000B6EB0B0164EB00042B0D43EA0C335E18C4
:1042E00044EB1C50DA465146E7FB0201C5F31304C8
:1042F0004FEA0B3343EA14534FEA0432019C43EA7A
:104300000603A4F10C040294009CCDE900B400F073
:1043100076F903B0BDE8F08F00200146F9E72DE9FA
:10432000F04D81EA030404F0004B21F000451446EF
:104330004FF0000A23F0004150EA050220D054EA71
:1043400001021DD0C5F30A570246C5F31303C1F39A
:104350001300C1F30A5640F4801543F48013A7EB11
:104360000608101BD64608F2FD3873EB050002D391
:1043700008F1010801E092185B41B8F1000F03DA7F
:1043800000200146BDE8F08D00204FF48011064664
:1043900084460EE0171B73EB050705D3121B63EB76
:1043A000050306434CEA010C49084FEA3000921815
:1043B0005B4150EA0107EDD152EA030012D082EAD4
:1043C000040083EA0501084305D0101BAB4106D267
:1043D0000122002306E000224FF0004302E06FF0CC
:1043E000010253101AEB06004CEB085110EB0A00C7
:1043F00041EB0B01BDE8F04D00F0F2B8C10F80EACF
:10440000E0700844CA079623002100F0BBB80EB53F
:10441000C10F80EAE0700844CA07002140F233432C
:104420008DE80E000A460B4600F0E9F803B000BD27
:104430000EB540F2334102910021CDE900110A4648
:104440000B4600F0DCF803B000BD70B5C1F30A52B2
:1044500001F000450024C1F3130140F2FF3341F4A1
:1044600080119A4201DA002070BD40F233439A4233
:10447000A2F2334203DC524200F059F800E09040CF
:104480002C43F1D0404270BD00F0004230F00040BB
:104490000AD0C10D01F56071C0F3160042EA015166
:1044A000C20840071143704700200146704701F0E1
:1044B000004330B421F0004150EA010206D00A0D59
:1044C000A2F56072C1F31301002A02DC30BC0020A7
:1044D0007047440F44EAC104C100E01830BC00EB4F
:1044E000C25000F046B80000002801DBC0F10040D7
:1044F000002901DBC1F1004181427047002801DB46
:10450000C0F10040002901DBC1F100418842704741
:10451000202A04DB203A00FA02F100207047914083
:10452000C2F1200320FA03F3194390407047202A78
:1045300004DB203A21FA02F00021704721FA02F34D
:10454000D040C2F120029140084319467047202A0A
:1045500006DBCB17203A41FA02F043EAE07306E0AB
:1045600041FA02F3D040C2F12002914008431946BB
:1045700070470029A8BF7047401C490008BF20F0C1
:104580000100704710B4B0FA80FC00FA0CF050EA59
:10459000010404BF10BC704749B1CCF1200421FADA
:1045A00004F411FA0CF118BF012121430843A3EBD5
:1045B0000C01CB1D4FEA00614FEA102042BF0020E2
:1045C00010BC704700EBC35010440029A4BF10BCBE
:1045D0007047401C490008BF20F0010010BC704724
:1045E00010B5141E73F1000408DA401C41F10001FB
:1045F00092185B411A4301D120F0010010BD2DE952
:10460000F04D92469B4611B1B1FA81F202E0B0FA48
:1046100080F220329046FFF77BFF04460F4640EAC7
:104620000A0041EA0B0153465A46084313D011468B
:1046300053EA010019D0C8F140025046FFF777FF56
:1046400005460E46504659464246FFF761FF08436D
:1046500005D0012004E020463946BDE8F08D002059
:10466000054346EAE0762C4337430A986305E40A9B
:10467000A0EB08000022FD0A44EA47540A3002D5A4
:1046800000200146E9E7010510196941DDE9084507
:1046900000196941BDE8F04DA2E7000030B5041EE5
:1046A00071F1000404DB4FF00044404264EB01016F
:1046B000141E73F1000405DB1C464FF00043524208
:1046C00063EB04038B4208BF824230BD064C074DAA
:1046D00006E0E06840F0010394E8070098471034D2
:1046E000AC42F6D3FBF706FDA86A0008C86A0008CA
:1046F00070B521F0004303430CD0C1F30A550024E8
:10470000D5EB040564EB0403D617AD1AB34102DB05
:104710000020014670BD201841EB025170BD4900D8
:1047200050EAC12018BF04204A0D18BF40F0010014
:1047300040F2FF72B2EB515F08BF40F00200012867
:1047400008BF0520704700002DE9F74F144694B0CC
:104750000021C4E902111599079121F00045C949CA
:104760008D4206DC1599C4E9000117B00020BDE8B0
:10477000F08FC549DFF814A3A9423CDD0799C44E68
:104780000029C44FC44A1599534619DDFFF74FFD60
:10479000554506D0C14AC24BFFF749FDC4E90001A7
:1047A0000AE04FF0D352BE4BFFF741FD32463B4685
:1047B000FFF73DFDC4E9000117B00120BDE8F08F0F
:1047C000FFF794FC554506D0B44AB54BFFF78EFC75
:1047D000C4E900010AE04FF0D352B14BFFF786FC69
:1047E00032463B46FFF782FCC4E9000117B04FF0A8
:1047F000FF30BDE8F08FAB49A942159978DB21F075
:10480000004183468846A84AA84BFFF716FD0022C0
:10481000A74BFFF76BFCFFF718FE0990FFF7F7FDBA
:1048200006460F469C4A5346FFF707FD43465A4645
:10483000FFF700FD80468A46984A994B3046394634
:10484000FFF7FBFC2A0D01250B9242465346FFF76A
:10485000F1FC032DC4E9000139D00B98C1F30A51D2
:10486000401A05EB45111139814230DA9148C346AF
:10487000784400EB0510CDF80CA00C90D0E9002393
:1048800030463946FFF7D9FC02460B4604910690A4
:1048900058460399FFF7CBFC80468A4602460B46F2
:1048A00058460399FFF7C3FC049B069AFFF7BFFC29
:1048B00083460C9803913946D0E902233046FFF72E
:1048C000BCFC5A46039BFFF7B2FC6D1CBDE7079882
:1048D0000028A2BF099817B0BDE8F08F616881F089
:1048E00000416160099817B04042BDE8F08FFFE7D2
:1048F00084461598C1F31301C0F30A50A0F2F530B5
:104900004FEA601800F01F06C6F120001390002047
:104910000690079041F4801E05206D4676B1664AE8
:1049200008EB00017A4452F8213002EB8101B340D8
:104930004A68139922FA01F1194305E05F4908EB2F
:104940000002794451F82210A1FB0E27A1FB0C13A1
:104950001A449A4234BF0123002303EB070A05EBF4
:104960008003D3E901B70F448F4234BF01210021F6
:1049700093448B4411B1934502D903E0934501D28E
:10498000012100E00021C3E901B7514445F820109E
:10499000011EA0F10100C1DC0298059F00F100504A
:1049A000800F12900298DDE903568000FFF72FFD7B
:1049B000834628460D91FFF73BFD6FF01D02FFF780
:1049C00097FECDE90E013046FFF732FD6FF03D0254
:1049D000FFF78EFE80468A463846FFF729FD6FF0C6
:1049E0005D02FFF785FE0746424653461191FFF7E9
:1049F0007DFBDDE90E23FFF779FB5A460D9BFFF7A0
:104A000075FB00250E465A4628460D9BFFF70FFC06
:104A1000DDE90E23FFF70BFC42465346FFF707FC88
:104A20003A46119BFFF706FCDFF898A0244A53464C
:104A3000FFF703FC07468846234A244B31462846A5
:104A4000FFF7FBFB3A464346FFF750FB0746884615
:104A50004FF0A842534631462846FFF7EEFB3A4650
:104A60004346FFF743FB159A12F0004F04D0129A09
:104A700081F0004152421292C4E90001129817B02D
:104A8000BDE8F08FFB21E93F7CD90240FB21F93FD3
:104A90007370032E8A19A33B000040543163621ADD
:104AA00061B4D03DFB21394183C8C96D305FE43F1B
:104AB0000000E03F44210000C0200000A2200000D0
:104AC000182D4454FB21F93D3326A611460B113C09
:104AD0002DE9FF4D21F0004807460C46B8F1795FFB
:104AE00008DAFFF7B2FC002801BF0020324904B009
:104AF000BDE8F08D3A46234610461946FFF79DFB68
:104B0000054602462D480E460B460621784400F025
:104B10005DF82A463346FFF790FBDDE90223824623
:104B20008B4638462146FFF788FB04460F4652461F
:104B30005B4628463146FFF780FB22463B46FFF79F
:104B400076FB07468A464FF0FF3228463146FFF78C
:104B5000CFFD1B4A90450ADA3A465346FFF767FBFA
:104B600004B00022BDE8F04D134BFFF763BB154ABC
:104B70004245A8BFA8F500154FF00004B8BF124D7C
:104B800022462B46FFF753FB0646884622462B4615
:104B900000200949FFF74BFB04460D463A465346B1
:104BA00030464146FFF743FB04B022462B46BDE8A2
:104BB000F04DFFF73FBB00000000F03F701E00000B
:104BC0003333D33F0000E93F0000D23F2DE9F041ED
:104BD0004F1E00EBC7010446D1E9000115461E46F1
:104BE00037F006020DD02A463346FFF726FB7F1E1C
:104BF00004EBC703D3E90023FFF778FA37F0060286
:104C0000F1D1022F25D0042F13D0062F18BFBDE8F5
:104C1000F0812A463346FFF710FBD4E90A23FFF759
:104C200065FA2A463346FFF708FBD4E90823FFF765
:104C30005DFA2A463346FFF700FBD4E90623FFF767
:104C400055FA2A463346FFF7F8FAD4E90423FFF76A
:104C50004DFA2A463346FFF7F0FAD4E90223FFF76C
:104C600045FA2A463346FFF7E8FAD4E90023BDE8BF
:104C7000F041FFF73BBA00002DE9FF4D054621F05A
:104C8000004084B00C46B0F1795F0BDA2846FFF79C
:104C900046FD042808BF00F071F8284608B02146F8
:104CA000BDE8F08D2A460B461046FFF7C6FA0646C9
:104CB0000F462A462346FFF7C0FA804626488A4612
:104CC00032463B4605217844FFF780FF8346109823
:104CD000029160B3214A224B40465146FFF7ADFA9C
:104CE000CDE900015A4640465146029BFFF7A5FA1E
:104CF00082468846DDE906014FF0FF32FFF7F8FCF7
:104D000052464346FFF793FA32463B46FFF795FA81
:104D1000DDE90623FFF78BFADDE90023FFF787FAC9
:104D200008B02A462346BDE8F04DFFF783BA0B468C
:104D30005A4630463946FFF780FA084A084BFFF7D3
:104D4000D5F942465346FFF778FA08B02A4623467B
:104D5000BDE8F04DFFF7CAB9B61D000049555555DD
:104D60005555C5BF0122FFF7C3BCFFF7BFB90022ED
:104D7000134610461146FFF7D2BA0000024A00203F
:104D80001107FFF7B5BC000001FDFFFF02E008C8F6
:104D9000121F08C1002AFAD170477047002001E0B5
:104DA00001C1121F002AFBD17047000001490860B1
:104DB000704700005C0000202DE9F84F04460D46C6
:104DC00021F0004000917349814211DC7249884210
:104DD00001DC06D12CB120462946BDE8F84FFFF78B
:104DE000C1BF6E48002DCCBF6D496E49BDE8F88F3C
:104DF0006D49814211DD6D498142D8BF4FF0FF36C8
:104E00006DDD20462946FFF78AFC042808BFFFF71E
:104E1000B5FF20462946BDE8F88F6549654F25F066
:104E20000045814233DD6449814219DD0026324666
:104E30004FF0804320462946FFF758F980468A46BE
:104E4000012220462946FFF753FC00223B46FFF78C
:104E5000EEF942465346FFF762FA04460D463EE03D
:104E600001260022BA463B4620462946FFF73EF976
:104E700080460F460022534620462946FFF7D7F9C1
:104E800042463B46FFF74BFA04460D4627E04B49A6
:104E900081421BDDDFF828A102260022534620466E
:104EA0002946FFF7CAF900223B46FFF71FF9804663
:104EB0000F460022534620462946FFF7B8F94246DE
:104EC0003B46FFF72CFA04460D4608E0032622462F
:104ED0002B4600203B49FFF722FA04460D462246A6
:104EE0002B4610461946FFF7A8F98B468246024624
:104EF0000B46FFF7A2F907460246334888460B46A1
:104F000006217844FFF762FE52465B46FFF795F9AB
:104F100082462E488B463A46434605217844FFF7A1
:104F200055FE3A464346FFF788F902460B46002EE7
:104F3000504659460CDAFFF7D9F822462B46FFF7C0
:104F40007CF901B022462B46BDE8F04FFFF772B95D
:104F5000FFF7CCF822462B46FFF76FF91C4A7A443C
:104F600002EBC603D3E90023FFF761F922462B4683
:104F7000FFF75DF9174A7A4402EBC603D3E9002331
:104F8000FFF758F9009A002AB8BF81F00041BDE848
:104F9000F88F0000000010440000F07F182D4454EA
:104FA000FB21F93FFB21F9BF0000DC3F0000203E60
:104FB0000000F33F0000F03F0000E63F00800340A8
:104FC0000000F83F0000F0BF4A1A0000081A000075
:104FD000A61900006E1900002DE9F04D9446CCF1A1
:104FE000000423F000464CEA0404594F46EAD47406
:104FF0009A46884621F00042BC4206D8454240EA23
:10500000050442EAD474BC4204D9BDE8F04D6246BE
:10501000FFF7ABBEAAF14055A5F17F6555EA0C0438
:105020000BD0022404EAAA744A4DDFF82CE144EACA
:10503000D87452EA000B04D00CE0BDE8F04DFFF745
:10504000BBBE002C14BF012CBDE8F08D022C30D06B
:10505000032C32D056EA0C0B0AD0BE4220D1BA4201
:1050600009D126F0804622F080423346114617E0EF
:1050700000291ADB25E0DFF8E4B0FB44002C04BF74
:10508000DBE90001BDE8F08D012C02BFDBE9000186
:1050900081F00041BDE8F08D022C0AD0032C0CD029
:1050A000BA4212D1B8F1000F0BDA2A482C49BDE8F8
:1050B000F08D28462B49BDE8F08D28467146BDE8A5
:1050C000F08D24482849BDE8F08D921B12153C2A2A
:1050D000C4BF204F244E10DCBAF1000FBEBF12F146
:1050E0003C0F00273E4608DB6246FFF718F921F027
:1050F0000041FFF761FE07460E4694B1012C08BF40
:1051000086F000460DD0194A194B022C384631461C
:1051100015D0FFF78CF82A46BDE8F04D114BFFF78C
:1051200086B80022134638463146FFF7B7FA04BF67
:105130000220FFF73BFE38463146BDE8F08DFFF711
:1051400076F82A46BDE8F04D064BFFF773B800002D
:105150000000F07F182D4454FB2109C032190000D3
:10516000FB21F9BFFB210940FB21F93F075C143308
:1051700026A6A13C00B5244B21F0004287B09A42FC
:10518000DCBF0022134629DD204B9A4208D140B9EA
:105190004FF00100FFF70AFEFFF7E9FD07B000BD81
:1051A00003DBFFF7DFFD07B000BD02AAFFF7CCFA73
:1051B00010F0030104BF0DF1080C9CE80F000DD0A6
:1051C000012001290ED0022914D00DF1080C009005
:1051D0009CE80F00FFF750FD07B000BDFFF778FC1B
:1051E00007B000BD0DF1080C00909CE80F00FFF720
:1051F00043FD05E00DF1080C9CE80F00FFF768FC8B
:1052000007B081F0004100BDFB21E93F0000F07FC5
:1052100000B5254B21F0004287B09A4203DC002202
:10522000134600922BE0214B9A4208D140B94FF02F
:105230000100FFF7BBFDFFF79AFD07B000BD03DBE0
:10524000FFF790FD07B000BD02AAFFF77DFA10F04E
:1052500003014FF001000DD0012914D002291AD00A
:105260000DF1080C9CE80F00FFF732FC07B081F04D
:10527000004100BD0DF1080C00909CE80F00FFF705
:10528000FBFC07B000BD0DF1080C9CE80F00FFF718
:105290001FFC07B000BD0DF1080C00909CE80F004A
:1052A000FFF7EAFCE2E70000FB21E93F0000F07FA6
:1052B00000000037CD821241411282CD370000003C
:1052C000000C3249848D792525798D8449320C0072
:1052D0000000000000000F39E163120E8484040610
:1052E000060484840E1263E1390F00000000000000
:1052F00000000000000000808F70C0819B33605868
:105300005860331B81C070DB80000000000000008B
:105310000000F0980C06C3E1207E3FA3E785257EC0
:105320007E2585C7A33F7E30E1C3060C98F00000C0
:105330000000000101073F40BCE2A2DC603F2020EA
:1053400020203F60DCA6E2BE48300F0101000000D3
:105350000000000000000000000000003EFFC3034A
:10536000030306060E8CDCF8787030301818181815
:105370001818181830307078F8DC8C0E0606030305
:1053800003C3FF3E0000000000000000000000001A
:105390000000000000000000000000000000030FFB
:1053A0009CF8781E07030180C0C0C0800000000088
:1053B0000000000080C0C0C0800103070E7CF89C84
:1053C0000F030000000000000000000000000000CB
:1053D00000000000000000000000000000000000CD
:1053E0007FFF800000000007CFCC0D07030020E006
:1053F000E0200003070DCCCF070000000080DF1F76
:10540000000000000000000000000000000000009C
:10541000000000000000000000000000000080C04C
:10542000E06337BEF8F0E0C0818307061E3E776375
:1054300063773E1E06078381C0E0F0F8BC3F63E05F
:10544000C08000000000000000000000000000001C
:1054500000000000000080C0E070381C0E0703014F
:10546000000000FFFF03070C1D1B3333666666F662
:10547000F666666633331B190D0603FFFF00000056
:105480000103070E1C3870E0C0800000000000001F
:10549000000000007EFF830100000000C0F078FCE7
:1054A000CE06063F3F0606ECFC78F0C0001C3E37F7
:1054B000373E1C0000E0F078FCCE06077F3E060673
:1054C000EC7C78E0800000000183FF7E000000009B
:1054D0000000000000000103030303FFFF00008041
:1054E000F0780C0C0C1CF8F0000083FF7C0000002E
:1054F00000000000FFFF0000C0F0380C0C0C1CF88E
:10550000E00000C7FF1703030301010000000000D3
:10551000000000000000000000000000030F3870D1
:1055200067CFDCD8D8DCEF63381C0F070606060609
:1055300006060604070F1E387167CEDCD8D8CC6F7C
:1055400063381E0F03000000000000000000000090
:10555000000000000000000000000000000000004B
:10556000000000000000000000000000000000003B
:10557000000000000000000000000000000000002B
:10558000000000000000000000000000008080809B
:10559000808080800000000000000000000000000B
:1055A00000000000000000000000000000000000FB
:1055B00000000000000000000000E0E0C00000006B
:1055C00000000000000000000000000000000000DB
:1055D0000000000000000000000080C0C0C000000B
:1055E00000E0F0FCFEFFFFFFC0C0C0C0C0C0C0C0F4
:1055F000C0000000000000000000000000000000EB
:10560000000000000080E0F8FCFEFEE74747470787
:105610000707474747E7FEFEFCF8E0800000000070
:10562000000000000000000000000000000000007A
:1056300060E0F0F0F0F0F0F8FCFFFFFFFFFFFCF897
:10564000F0F0F0F0F0E0600000000000000000006A
:1056500000000000000000000000FFFFFFFF00004E
:1056600000FFFFFFFFFFFFFFFFFFFFFFFFFFFF1F29
:105670000300000000000000000000000000000027
:1056800000000000003FFFFFFFFF8180C0FCFE0024
:105690000000FEFCC08081FFFFFFFF3F0000000014
:1056A00000000000000000000000000000000000FA
:1056B0000000010307FFFFFFFFFFFFFFFFFFFFFFEA
:1056C000FFFF0703010000000000000000000000D1
:1056D00000000000000000000000070F0F0F000096
:1056E000000F0F0F0F0F0F0F0F0F0F0F0F070000FF
:1056F00000000000000000000000000000000000AA
:105700000000000000000003070F0F1F1F3F3F3C79
:105710003C3C3F3F1F1F0F0F07030000000000002D
:105720000000000000000000000000000000000079
:10573000000000000F0F0F07070303010303030717
:105740000F0F0F000000000000000000000000002C
:105750000000000000000000000000000000000049
:105760000000000000000000000000000000000039
:105770000000000000000000000000000000000029
:105780000000000000000000000000000000000019
:105790000000000000000000000000000000000009
:1057A00000000000000000000000000000000000F9
:1057B00000000000000000000000000000000000E9
:1057C00000000000000000000000000000000000D9
:1057D00000000000000000000000000000000000C9
:1057E00000000000000000000000000000000000B9
:1057F00000000000000000000000000000000000A9
:105800000000000000000000000000000000000098
:105810000000000000000000000000000000000088
:105820000000000000000000000000000000000078
:105830000000000000000000000000000000000068
:105840000000000000000000000000000000000058
:105850000000000000000000000000000000000048
:105860000000000000000000000000000000000038
:105870000000000000000000000000000000000028
:105880000000000000000000000000000000000018
:105890000000000000000000000000000000000008
:1058A00000000000000000000000000000000000F8
:1058B00000000000000000000000000000000000E8
:1058C00000000000000000000000000000000000D8
:1058D0000000000000000000000000E0E000000008
:1058E0000000000000000000000000000000E0E0F8
:1058F0000000C0C0C0C040C0C040404040C0C0C0A8
:1059000000C0C0C0C0C0C0C0C0400080C0E04000F7
:1059100040E0C080C0C0C0C0E0E0C0C0C0C0000067
:1059200000C0C0C0C0C0C0C0C0C0C0C0000000C077
:10593000C0C0C0C0C0C0C0C0C0C0C0C0C00000E0C7
:10594000E00000000080E0E00080000000000000B7
:1059500000F8FC0C0C0C0CFCF80000FFFF0000F041
:10596000F87C6C647C787000F0FC1C0C0C0CFFFF65
:105970000000FFFF2426777F5B5BDFF73310FFFF1C
:105980000010F8FF3810FFFF10316373399C8C0052
:10599000048CDD8001FB5A5AFEFE5A5AFAFB0008BD
:1059A0001C9CDCDC1C1CFCFC1C5CDC9C1C0C3030DF
:1059B0003030FFFF30303030FFFF3030300073FFC9
:1059C00087E3FF0FEEEF6D6C6CEFEFCC0000000093
:1059D0000001030706060703010000070700000196
:1059E0000307060606060000010707060603070769
:1059F00000001F1F1C09090B0B0B0B0E0E1C1F1F99
:105A0000000C1F0700001F1F00181C0E07030100D9
:105A1000081F0F00181B0F0F03030F0F1F1B080495
:105A20000707011C181C1F0F0000010707060008CC
:105A30001C0F0701000000001F1F00000000181CC1
:105A40000F0707061F1F0C0C0C0C1F1F0000000087
:105A50000000000000000000000000000000000046
:105A60000000000000000000000000000000000036
:105A70000000000000000000000000000000000026
:105A80000000000000000000000000000000000016
:105A90000000000000000000000000000000000006
:105AA00000000000000000000000000000000000F6
:105AB00000000000000000000000000000000000E6
:105AC00000000000000000000000000000000000D6
:105AD00000000000000000000000000000000000C6
