:020000040800F2
:10000000200C002005010008050A00088F090008DF
:10001000010A0008A9070008A51200080000000056
:10002000000000000000000000000000D10D0008EA
:100030003908000800000000A10C0008110F00089A
:100040001F0100081F0100081F0100081F01000810
:100050001F0100081F0100081F0100081F01000800
:100060001F0100081F0100081F0100081F010008F0
:100070001F0100081F0100081F0100081F010008E0
:100080001F0100081F0100081F0100081F010008D0
:100090001F0100081F0100081F0100081F010008C0
:1000A0001F0100081F0100081F0100081F010008B0
:1000B0001F0100081F0100081F0100081F010008A0
:1000C0001F0100081F0100081F0100081F01000890
:1000D0001F0100081F0100081F0100081F01000880
:1000E0001F0100081F0100081F010008DFF810D0E1
:1000F00000F020F9004800472D140008AFF30080FD
:10010000200C00200648804706480047FEE7FEE72F
:10011000FEE7FEE7FEE7FEE7FEE7FEE7FEE7FEE7B7
:10012000150F0008ED0000082DE9FE4F81EA0304D9
:1001300004F0004421F0004100944FF0000B23F044
:10014000004350EA01045ED052EA03045BD0C3F3DB
:100150000A54C1F30A552C44A4F2F3340194A0FBD1
:100160000254C1F3130141F48011C3F3130343F4A8
:10017000801301FB024400FB034E840A970A44EA01
:10018000815447EA8357A4FB076802958D0A05FB53
:1001900007854FEA932C04FB0C542705029D4FEA78
:1001A000065847EA1637B5EB08056EEB070C870EC5
:1001B000920E47EA811742EA8312A7FB0201B6EBCF
:1001C0000B0164EB00042B0D43EA0C335E1844EB87
:1001D0001C50DA465146E7FB0201C5F313044FEA0F
:1001E0000B3343EA14534FEA0432019C43EA0603FB
:1001F000A4F10C040294009CCDE900B400F04BF88B
:1002000003B0BDE8F08F00200146F9E70EB540F2DB
:10021000334102910021CDE900110A460B4600F05E
:100220003AF803B000BDC1F30A5210B5C1F313018F
:1002300040F2FF3341F480119A4201DA002010BDF0
:1002400040F233439A42A2F2334203DC524200F0BE
:1002500003F810BD904010BD202A04DB203A21FA9B
:1002600002F00021704721FA02F3D040C2F12002CF
:10027000914008431946704710B5141E73F10004ED
:1002800008DA401C41F1000192185B411A4301D188
:1002900020F0010010BD2DE9F04D92469B4611B1B2
:1002A000B1FA81F202E0B0FA80F22032904600F01A
:1002B00053F804460F4640EA0A0041EA0B01534650
:1002C0005A46084313D0114653EA010019D0C8F129
:1002D00040025046FFF7C0FF05460E4650465946BD
:1002E000424600F039F8084305D0012004E02046DA
:1002F0003946BDE8F08D0020054346EAE0762C4300
:1003000037430A986305E40AA0EB08000022FD0ABF
:1003100044EA47540A3002D500200146E9E70105C6
:1003200010196941DDE9084500196941BDE8F04D42
:10033000A2E70000064C074D06E0E06840F001032C
:1003400094E8070098471034AC42F6D3FFF7D2FE8A
:10035000B4140008D4140008202A04DB203A00FA60
:1003600002F1002070479140C2F1200320FA03F30C
:1003700019439040704770B58C1810F8015B15F068
:10038000070301D110F8013B2A1106D110F8012B07
:1003900003E010F8016B01F8016B5B1EF9D12B072C
:1003A00005D40023521E0DD401F8013BFAE710F8E2
:1003B000013BCB1A921C03E013F8015B01F8015BCF
:1003C000521EF9D5A142D8D3002070BD21B1826858
:1003D00042F00102826003E0826822F00102826042
:1003E000704721B1826842F48072826003E08268C3
:1003F00022F4807282607047014600208A6802F011
:1004000004020AB1012000E00020704730B5024626
:100410000020002350680F4C20400D790C6844EAFE
:1004200005242043506090680B4C2040D1E90254D1
:100430002C434D7944EA450420439060D06A20F46F
:1004400070000C7C641EE4B2234340EA0350D06287
:1004500030BD0000FFFEF0FFFDF7F1FFF0B50446F0
:100460000D4600200021092D11DDE068A5F10A06E6
:1004700006EB4607072606FA07F18843A5F10A06A8
:1004800006EB460603FA06F10843E0600CE020693B
:1004900005EB4507072606FA07F1884305EB4506F5
:1004A00003FA06F108432061072A0FDA606B561E33
:1004B00006EB86071F2606FA07F18843561E06EB51
:1004C000860605FA06F10843606322E00D2A0FDA7A
:1004D000206BD61F06EB86071F2606FA07F1884316
:1004E000D61F06EB860605FA06F10843206310E0E6
:1004F000E06AA2F10D0606EB86071F2606FA07F151
:100500008843A2F10D0606EB860605FA06F10843BC
:10051000E062F0BD21B1826842F4A002826003E093
:10052000826822F4A00282607047816841F0040171
:100530008160704700B585B00121480200F0CEFB14
:100540000020009001208DF80500002003904FF45A
:100550006020029007208DF8100000208DF8040024
:1005600069461248FFF752FF4FF4004000F09AFB33
:100570000023012207210D48FFF770FF01210B48DE
:10058000FFF724FF0948FFF7D0FF00BF0748FFF738
:1005900033FF0028FAD001210448FFF722FF012190
:1005A0000248FFF7B7FF05B000BD0000002401407E
:1005B00000B58BB00121084600F080FB0F48009089
:1005C0000F48019000200290012003900020049029
:1005D00005904FF4807006908000079020200890CE
:1005E0000002099000200A906946064800F006F9CA
:1005F0000121044800F0F6F80BB000BD4C24014086
:100600001C0400200800024008B50121042000F06D
:1006100065FB4FF40070ADF8000000208DF803007A
:100620006946024800F028F908BD000000080140B2
:1006300010B5FFF7E9FFFFF7BBFFFFF77BFF10BD2A
:1006400000B58BB00121C80200F048FB2320ADF8B3
:1006500020000020ADF822004FF6FF70ADF8240016
:100660000020ADF826008DF8280008A9224800F0E7
:1006700003FD6020ADF810000120ADF81200042049
:10068000ADF8140042F6E060ADF816000020ADF8B9
:100690001800ADF81A00ADF81C00ADF81E0004A952
:1006A000154800F093FC0821134800F0DBFC4FF4E0
:1006B0000060ADF800004010ADF802000020ADF879
:1006C00004000720ADF806004FF48050ADF8080094
:1006D0004000ADF80A004000ADF80C00694606483D
:1006E00000F048FC0121044800F054FC01210248BC
:1006F00000F05CFC0BB000BD002C014008B50121EE
:10070000042000F0EBFA0121082000F0E7FA0121B3
:10071000082000F0E3FA18208DF803004FF48070F1
:10072000ADF8000003208DF8020069460B4800F088
:10073000A3F84FF40050ADF800006946084800F0F7
:100740009BF818208DF803004FF48050ADF800009E
:100750006946034800F090F808BD00000008014019
:10076000000C014010B5FFF7C9FFFFF769FF10BD8E
:100770000146C21700EB5272D210C2F10702094BB8
:100780001A70C21700EB5272D210A0EBC202C2F173
:1007900007025A7019464A78012191401A46917011
:1007A000704700001504002000BFFEE70146C21795
:1007B00000EB5272D210C2F10702094B1A70C21735
:1007C00000EB5272D210A0EBC202C2F107025A70C3
:1007D00019464A78012191401A46917070470000ED
:1007E0001804002021B1026842F00102026004E016
:1007F00002684FF6FE731A400260704710B500227F
:10080000026847F6F0739A430C6A8B6823430C69BD
:1008100023434C6923438C692343CC6923434C6AAB
:1008200023438C6A23431A430260CB6843600B68FE
:1008300083604B68C36010BD7047000070B504460C
:100840000C4800F03BFB002508E000BF4FF0E02023
:10085000006900F480300028F8D06D1CA542F4D364
:100860004FF0E020006920F001004FF0E021086126
:1008700070BD0000401901002DE9F041024600253D
:100880000026002000230024002791F803C00CF06C
:100890000F0591F803C00CF0100CBCF1000F03D051
:1008A00091F802C04CEA050591F800C0BCF1000FB8
:1008B00031D0146800202BE04FF0010C0CFA00F34B
:1008C000B1F800C00CEA03069E4220D183004FF02D
:1008D0000F0C0CFA03F7BC4305FA03FC4CEA0404C2
:1008E00091F803C0BCF1280F06D14FF0010C0CFAAF
:1008F00000FCC2F814C00AE091F803C0BCF1480F34
:1009000005D14FF0010C0CFA00FCC2F810C0401CDD
:100910000828D1D31460B1F800C0BCF1FF0F34DD5A
:10092000546800202EE000F1080C4FF0010808FA8E
:100930000CF3B1F800C00CEA03069E4221D18300FB
:100940004FF00F0C0CFA03F7BC4305FA03FC4CEA1A
:10095000040491F803C0BCF1280F05D100F1080C84
:1009600008FA0CF8C2F8148091F803C0BCF1480FE3
:1009700007D100F1080C4FF0010808FA0CF8C2F892
:100980001080401C0828CED35460BDE8F08100BF21
:10099000FEE770B505460C4600F002FD782000F039
:1009A000D5FC00F025FD00B110E0284600F0CEFC9B
:1009B00000F01EFD00B109E0204600F0C7FC00F089
:1009C00017FD00B102E000F003FD00BF00F000FDE4
:1009D00070BD000008B50121082000F07FF94FF438
:1009E0008060ADF8000010208DF8030003208DF822
:1009F000020069460148FFF73FFF08BD000C0140B7
:100A000000BFFEE77047000070B500240CE0002531
:100A100006E00020074901EBC4114855681CC5B227
:100A2000802DF6DB601CC4B2082CF0DB00F04AFC21
:100A300070BD0000200400202DE9F04707468846DD
:100A40004046FFF7B3FE5D4800785D490978401ADB
:100A500045B2002D29DD594806783946304600F068
:100A60000DF956498978491EC8B200F024FC701E61
:100A7000C6B200240AE03946304600F0FFF8FF20F5
:100A800000F019FC701EC6B2601CC4B2681EA04201
:100A9000F1DC3946304600F0F1F849494A78FF2147
:100AA0009140C8B200F007FC6BE0002D3AD14448F9
:100AB000407842494978884209D141490878394605
:100AC00000F0DCF83E49887800F0F5FB59E03C483E
:100AD00040783A494978884210DD394908783946E2
:100AE00000F0CCF836498978344A9278891A344A29
:100AF00092781143C8B200F0DEFB42E03048407803
:100B00002E49497888423CDA2D490878394600F068
:100B1000B5F82A4989782A4A9278891AC8B200F029
:100B2000CAFB2EE0002D2CDA2548067839463046DF
:100B300000F0A4F8224989780122C2EB4101C8B231
:100B400000F0B9FB701EC6B200240AE039463046F8
:100B500000F094F8FF2000F0AEFB701EC6B2601CDF
:100B6000C4B2C5F1FF30A042F0DC3946304600F097
:100B700085F812494978491CFF228A40D0B200F01A
:100B80009AFB4046FFF7F4FD002413E0781CC1B245
:100B9000204600F073F84FF0000906E0002000F056
:100BA0008AFB09F1010000F0FF09B9F1010FF5DB43
:100BB000601CC4B2082CE9DBBDE8F08715040020F6
:100BC0001804002010B500F0A7FB4FF47A70FFF76F
:100BD00035FEAE2000F068FB202000F065FB102001
:100BE00000F062FBB02000F05FFBC82000F05CFB6F
:100BF000002000F059FB102000F056FB402000F0D0
:100C000053FB812000F050FBFF2000F04DFBA120A2
:100C100000F04AFBA62000F047FBA82000F044FBB0
:100C20003F2000F041FBA42000F03EFBD32000F069
:100C30003BFB002000F038FBD52000F035FBF02016
:100C400000F032FBD92000F02FFB222000F02CFB1B
:100C5000DA2000F029FB122000F026FBDB2000F058
:100C600023FB202000F020FB8D2000F01DFB142032
:100C700000F01AFBAF2000F017FB10BD70B5054661
:100C80000C4605F1B001C8B200F00EFB04F00F00F5
:100C900000F00AFB102141EA141000F005FB70BDC2
:100CA0007047000001460020034A506820F440408D
:100CB00008435060704700000010024029B1064A06
:100CC00052690243044B5A6104E0034A5269824369
:100CD000014B5A61704700000010024029B1064ADA
:100CE00092690243044B9A6104E0034A9269824389
:100CF000014B9A61704700000010024030B500219E
:100D00000022002400232D4D6D6805F00C0121B157
:100D1000042905D0082923D105E0294D056022E0EA
:100D2000274D05601FE0254D6D6805F47012234DB9
:100D30006D6805F48034022505EB92421CB9214D03
:100D4000554305600BE01D4D6D6805F400351DB180
:100D50001C4D5543056002E0194D5543056002E006
:100D6000174D056000BF00BF144D6D6805F0F00120
:100D70000909154D6B5C0568DD4045600F4D6D68D8
:100D800005F4E061090A104D6B5C4568DD40856043
:100D90000A4D6D6805F46051C90A0B4D6B5C4568DE
:100DA000DD40C560054D6D6805F44041890B074D78
:100DB0006B5CC568B5FBF3F5056130BD0010024002
:100DC00000127A0000093D00000000201000002001
:100DD000704710B500F002F810BD00000CB50020FF
:100DE000019000903348006840F480303149086039
:100DF00000BF3048006800F4003000900198401CAB
:100E00000190009818B90198B0F5A06FF1D1294868
:100E1000006800F4003010B10120009001E00020D3
:100E200000900098012843D12348006840F010004A
:100E3000214908600846006820F003000860084661
:100E4000006840F0020008601A484068194948608C
:100E50000846406848600846406840F48060486042
:100E60000846406820F47C1048600846406840F41A
:100E7000E81048600846006840F08070086000BFD5
:100E80000C48006800F000700028F9D0094840685C
:100E900020F00300074948600846406840F002001F
:100EA000486000BF0348406800F00C000828F9D1F2
:100EB0000CBD0000001002400020024030B5014689
:100EC000B1F1807F01D3012030BD21F07F40401E71
:100ED0004FF0E022506150170F22002807DA130765
:100EE0001D0E094B00F00F04241F1D5503E01307CE
:100EF0001C0E064B1C5400BF00204FF0E0229061F6
:100F0000072010610020DFE718ED00E000E400E0BA
:100F10007047000010B51348006840F00100114907
:100F2000086008464068104908400E494860084675
:100F300000680E4908400B4908600846006820F424
:100F4000802008600846406820F4FE0048604FF4A6
:100F50001F008860FFF73DFF4FF000600449086004
:100F600010BD0000001002400000FFF8FFFFF6FE79
:100F700008ED00E00A884B881A438B881A43CB8817
:100F80001A430B891A434B891A438B891A43A0F8D9
:100F90004420704721B1028842F00102028004E03F
:100FA00002884FF6FE731A400280704731B1B0F8E4
:100FB000442042F40042A0F8442005E0B0F8442068
:100FC000C2F30E02A0F844207047000070B5002460
:100FD00000220023058C4FF6FE7635400584028CF6
:100FE0008388048B4FF68F752C40B51E2C400D88DE
:100FF0002C43751E2A400D892A434D882A43144DDF
:10100000A8420BD0134DA84208D0134DA84205D0DA
:10101000124DA84202D0124DA84213D14FF6F775D7
:101020002A404D892A434FF6FB752A408D882A4372
:101030004FF6FF652B404FF6FF552B408D892B4314
:10104000CD892B4383800483CD888586028470BD3F
:10105000002C0140003401400040014000440140A8
:10106000004801400A460021018B4FF6F7731940F2
:101070001143018370470000002202881D4B9842F3
:101080000ED01D4B98420BD0B0F1804F08D01B4BB7
:10109000984205D01A4B984202D01A4B984204D17C
:1010A0004FF68F731A404B881A43174B984207D05C
:1010B000164B984204D04FF6FF431A40CB881A4390
:1010C00002808B8883850B8803850A4B98420BD05E
:1010D000094B984208D00E4B984205D00D4B9842D0
:1010E00002D00D4B984201D10B7A038601238382F3
:1010F00070470000002C0140003401400004004013
:1011000000080040000C00400010004000140040A7
:1011100000400140004401400048014021B1828963
:1011200042F40052828104E082894DF6FF731A4036
:10113000828170472DE9F04786B005460E460024AF
:10114000A24600BFA1460027B08900B100BF2F46CC
:101150002C8A4CF6FF700440F08804432C82AC8942
:101160004EF6F3100440B088318908437189084372
:101170000443AC81AC8A4FF6FF400440B08904437D
:10118000AC8201A8FFF7BAFD1F48874202D1DDF803
:1011900010A001E0DDF80CA0A88900F4004040B1E7
:1011A0000AEBCA0000EB0A1031684900B0FBF1F805
:1011B00007E00AEBCA0000EB0A1031688900B0FBB7
:1011C000F1F86420B8FBF0F004012009642101FB70
:1011D0001089A88900F4004040B1322000EBC9001A
:1011E000B0FBF1F000F00700044308E0322000EB10
:1011F00009106421B0FBF1F000F00F0004432C81D2
:1012000006B0BDE8F0870000003801401FB501219D
:101210008803FFF763FD4FF4E13000900020ADF844
:101220000400ADF80600ADF808000C20ADF80A0087
:101230000020ADF80C0069460348FFF77BFF012151
:101240000148FFF76BFF1FBD0038014008B50121C1
:101250000420FFF743FD01210420FFF73FFD4FF479
:101260008060ADF8000004208DF80300694609484D
:10127000FFF702FB4FF40070ADF8000018208DF866
:10128000030003208DF8020069460248FFF7F4FAD4
:1012900008BD00000008014010B5FFF7D7FFFFF7B9
:1012A000B5FF10BD00BFFEE710B504462146002083
:1012B000FFF76FFB10BD10B5044621464020FFF735
:1012C00068FB10BD70B5002411E000212046FFF737
:1012D000D5FC002507E0074901EBC411485DFFF785
:1012E000EAFF681CC5B2802DF5DB601CC4B2082C77
:1012F000EBDB70BD2004002002E008C8121F08C10B
:10130000002AFAD170477047002001E001C1121F86
:10131000002AFBD17047000008B501210420FFF727
:10132000DDFCA020ADF8000003208DF802001420A1
:101330008DF8030069460348FFF79EFA00F048F86D
:1013400008BD0000000801407047000070B5044669
:10135000002520E004F0800018B180200F490860CB
:1013600003E080200D49091D0860FFF7EDFF2020F4
:101370000A490860FFF7E8FF20200849091D0860B6
:10138000072D02D18020091F08606006040EFFF7B8
:10139000DBFF681CC5B2082DDCDB70BD1008014006
:1013A00010B580200949086020200860FFF7CCFFB5
:1013B00080200649091D0860FFF7C6FF2020034969
:1013C000091D0860FFF7C0FF10BD000010080140B4
:1013D00010B58020054908602020091F0860FFF72C
:1013E000B3FF80200149091F086010BD14080140A7
:1013F00010B580200C490860FFF7A6FF20200A499D
:101400000860FFF7A1FF08480838006800F0800076
:1014100008B1012400E0002420200349091D0860D0
:10142000FFF792FF204610BD10080140FFF7D2FAE7
:10143000FFF732FFFFF7C6FBFFF7FAF8FFF792F965
:1014400019480088FEF7E2FE0746184A184BFEF7D7
:101450006BFE0546FEF7E7FE00F0FF094846FFF782
:1014600087F9FFF7D1FA1DE0002419E00E48008843
:10147000FEF7CCFE07460D4A0D4BFEF755FE05461E
:10148000FEF7D1FE00F0FF0949462046FFF7D4FAE7
:10149000601CC11700EB5161C911A0EBC111CCB2A6
:1014A000802CE3DBE0E700001C040020DEAB5626C6
:1014B000FC528F3FD41400080000002020040000DC
:1014C00076030008F815000820040020000800003A
:1014D00008130008412D010203040420090607082F
:1014E0000902040608100A03050911FF118905C342
:1014F00012E012F072F8073D4428FF11AA44700B65
:10150000830138448292927401831E7C44C7017D1A
:1015100001990562FF9A0102818A010B0136694136
:101520009949FA0101A12A4001212A6D01212A606D
:1015300001791501642ADB010915072ADA01212A3C
:10154000D801212AC0010915072A800101352A0680
:10155000010918071CE66620076A86157A861C2A88
:101560008601180A80808686068686C0C00C0E1CFE
:101570000606D030764D2907013113601C12FE1388
:1015800001021009C41820029E63B20E1DFF818162
:10159000FFF24440300F12FF180923EAAABFAAEA5B
:1015A000033F0B012DBC808080080115240E0C0820
:1015B0002A01013149041D81808081021901B91776
:1015C00006110101090C0E0A14C0012178081E2120
:1015D000404050215E08012A4DFFFFC1C10409238C
:1015E0002DB81580FCF3EFF3FC80FF80EEEEEEF5F6
:0815F000FBFF9CBEB6B6883A71
:04000005080000ED02
:00000001FF
