:020000040800F2
:10000000C8060020B1010008E1080008ED0600085C
:10001000DD08000857060008450E00080000000033
:10002000000000000000000000000000110D0008AA
:100030005B06000800000000ED0C0008D90D000868
:10004000CB010008CB010008CB010008CB01000860
:10005000CB010008CB010008CB010008CB01000850
:10006000CB010008CB010008CB010008CB01000840
:10007000CB010008CB010008CB010008CB01000830
:10008000CB010008CB010008CB01000800000000F4
:10009000000000000000000000000000CB0100088C
:1000A000CB010008CB010008CB010008CB01000800
:1000B000CB010008CB010008CB010008CB010008F0
:1000C000CB010008CB010008CB010008CB010008E0
:1000D000CB010008CB010008CB01000800000000A4
:1000E000CB010008CB010008CB0100080000000094
:1000F000000000000000000000000000CB0100082C
:1001000000000000CB010008CB010008CB01000873
:1001100000000000000000000000000000000000DF
:10012000CB010008CB010008CB010008CB0100087F
:10013000CB010008000000000000000000000000EB
:10014000000000000000000000000000CB010008DB
:10015000CB010008CB010008CB010008CB0100084F
:10016000CB010008CB0100080000000000000000E7
:10017000000000000000000000000000000000007F
:1001800000000000CB01000800000000000000009B
:10019000CB010008CB010008DFF810D000F01EFAF8
:1001A00000480047D10F0008AFF30080C8060020C8
:1001B0000648804706480047FEE7FEE7FEE7FEE701
:1001C000FEE7FEE7FEE7FEE7FEE7FEE7DD0D0008DF
:1001D000990100082DE9FE4F804681EA0300C00F17
:1001E0000C46009021F0004123F00045B8EB0200DE
:1001F000A94105D24046214690461C460B46024680
:1002000023F00040104347D0270DC7F30A00C3F383
:100210000A510290401A019040286BDAC3F3130090
:1002200040F4801B0098924620B10023D2EB030AD1
:1002300063EB0B0B01985946C0F14002504600F0A9
:100240003FF906460D4650465946019A00F057F9C7
:1002500010EB08006141002487EA115284EAE77339
:100260001A4340D0009A62B3019A012A4FEA07521A
:1002700015DC001B61EB02014FF0004202EA07525D
:10028000CDE90042001C41F5801132462B4600F0BA
:1002900057F903B0BDE8F08F40462146F9E7001B4F
:1002A00061EB0201001C41F5801300185B4120182E
:1002B000A2F5001747EB030140EAD570B6196D416E
:1002C00011E06D084FEA360645EAC0754FEA07525D
:1002D000001B61EB0201001C41F5801149084FEA47
:1002E00030000019514132462B4603B0BDE8F04FB3
:1002F00000F017B90098012240000023D0EB020261
:1003000063EBE073009821464FEAE074B8EB00001D
:1003100061EB0401E9E783F000435BE781F0004112
:1003200058E72DE9FE4F81EA030404F0004421F070
:10033000004100944FF0000B23F0004350EA010409
:100340005ED052EA03045BD0C3F30A54C1F30A55EA
:100350002C44A4F2F3340194A0FB0254C1F3130122
:1003600041F48011C3F3130343F4801301FB0244EF
:1003700000FB034E840A970A44EA815447EA8357F4
:10038000A4FB076802958D0A05FB07854FEA932CAD
:1003900004FB0C542705029D4FEA065847EA16371E
:1003A000B5EB08056EEB070C870E920E47EA811736
:1003B00042EA8312A7FB0201B6EB0B0164EB0004D7
:1003C0002B0D43EA0C335E1844EB1C50DA465146C1
:1003D000E7FB0201C5F313044FEA0B3343EA14535E
:1003E0004FEA0432019C43EA0603A4F10C04029490
:1003F000009CCDE900B400F0A3F803B0BDE8F08F95
:1004000000200146F9E70EB540F233410291002188
:10041000CDE900110A460B4600F092F803B000BD8A
:1004200070B5C1F30A5201F000450024C1F3130175
:1004300040F2FF3341F480119A4201DA002070BD8E
:1004400040F233439A42A2F2334203DC524200F0BC
:1004500046F800E090402C43F1D0404270BDC1F31B
:100460000A5210B5C1F3130140F2FF3341F4801179
:100470009A4201DA002010BD40F233439A42A2F2C0
:10048000334203DC524200F02AF810BD904010BD08
:1004900030B5041E71F1000404DB4FF0004440420B
:1004A00064EB0101141E73F1000405DB1C464FF0E0
:1004B0000043524263EB04038B4208BF824230BDCB
:1004C000202A04DB203A00FA02F100207047914014
:1004D000C2F1200320FA03F3194390407047202A09
:1004E00004DB203A21FA02F00021704721FA02F3DE
:1004F000D040C2F120029140084319467047202A9B
:1005000006DBCB17203A41FA02F043EAE07306E03B
:1005100041FA02F3D040C2F120029140084319464B
:10052000704710B5141E73F1000408DA401C41F145
:10053000000192185B411A4301D120F0010010BD67
:100540002DE9F04D92469B4611B1B1FA81F202E0DD
:10055000B0FA80F220329046FFF7B2FF04460F4611
:1005600040EA0A0041EA0B0153465A46084313D0B9
:10057000114653EA010019D0C8F140025046FFF776
:10058000AEFF05460E46504659464246FFF798FFD5
:10059000084305D0012004E020463946BDE8F08D2F
:1005A0000020054346EAE0762C4337430A9863056A
:1005B000E40AA0EB08000022FD0A44EA47540A308E
:1005C00002D500200146E9E7010510196941DDE97E
:1005D000084500196941BDE8F04DA2E7064C074DFA
:1005E00006E0E06840F0010394E807009847103403
:1005F000AC42F6D3FFF7D4FD6C1800088C18000845
:1006000070B58C1810F8015B15F0070301D110F8D4
:10061000013B2A1106D110F8012B03E010F8016B01
:1006200001F8016B5B1EF9D12B0705D40023521E84
:100630000DD401F8013BFAE710F8013BCB1A921CEC
:1006400003E013F8015B01F8015B521EF9D5A142EA
:10065000D8D3002070BD00BFFEE77047F0B50A4652
:1006600000210023002400BF3DE0012505FA01F32D
:10067000156805EA03049C4234D105684F0003263F
:10068000BE40B543056015794E00B5400668354358
:1006900005601579012D02D01579022D16D18568D6
:1006A0004F000326BE40B543856055794E00B540E6
:1006B000866835438560456801268E40B5434560B0
:1006C000456896798E40B6B235434560C5684F009F
:1006D0000326BE40B543C560D5794E00B540C66817
:1006E0003543C560491C1029BFD3F0BD00BFFEE7EC
:1006F0001CB50121084600F0FBFA0121042000F09E
:10070000F7FA4FF48070009001208DF8040000206B
:100710008DF8060003208DF8050001208DF80700F4
:1007200069460848FFF79AFF4FF400700090694649
:100730000548FFF793FF0120044908600449C1F808
:10074000A4021CBD0000024000080240A00240427A
:100750000000414270B504461848006820F440206B
:10076000164908601648006840F480201449086063
:1007700000201449086000251CE0E00918B10120A0
:100780001149086002E000200F4908606006040E6D
:10079000052000F0D1FB01200A490860052000F087
:1007A000CBFB00200949C1F8A002052000F0C4FBE2
:1007B000681CC5B2082DE0DB70BD000000040240DB
:1007C00000080240A0024042A40241420000404210
:1007D00010B51048006820F440200E4908600E480B
:1007E000006840F480200C49086001200B49086033
:1007F0000B49C1F8A002022000F09EFB002007492F
:100800000860022000F098FB00200549C1F8A00212
:1008100010BD00000004024000080240A402414252
:100820000000404210B50F48006820F440200D49F8
:1008300008600D48006840F480200B4908600020E3
:100840000A4908600A49C1F8A402022000F074FBBA
:100850000120064908600649C1F8A402022000F000
:100860006BFB10BD0004024000080240A0024042A1
:100870000000414210B500241348006820F44020D5
:1008800011490860114800681049086001201049AA
:10089000086000F051FB01200E49C1F8A00200F0F1
:1008A0004BFB07E0601CC4B2FA2C03DDFFF7BAFF74
:1008B000012010BD0648803800680028F2D10649A2
:1008C000086000BFF5E70000000402400008024095
:1008D000A402414200004042A002404200BFFEE7A5
:1008E000704770B5002419E004F1B001C8B20021CE
:1008F00000F0F0F90021084600F0ECF9002110208A
:1009000000F0E8F9002505E00121002000F0E2F9FF
:10091000681CC5B2802DF7DB601CC4B2082CE3DB79
:1009200070BD00002DE9F0472DED088B04460F4601
:10093000B0EE408AF0EE608A4FF000089FED350B74
:1009400053EC102B51EC180BFFF7A2FD0AD251EC1F
:10095000180B81F0004141EC180B30A239462046BB
:1009600000F09CF904F10A00C4B2802C02DD0024DE
:10097000B81CC7B2002551EC180BFFF770FD0646F6
:1009800004E00A20B6FBF0F6681CC5B2002EF8D1D0
:100990004FF00808281D00FB08F0C0F18000A042BD
:1009A00002DA0024B81CC7B251EC180BFFF738FD6F
:1009B00081462B464A463946204600F035F905FB6C
:1009C0000840C4B216A23946204600F067F904EB8D
:1009D0000800C4B23046FFF716FD41EC1B0B53EC88
:1009E000182BFFF79BFC41EC1A0B9FED0E0B53EC01
:1009F000102BFFF796FC41EC190BFFF711FD814618
:100A000005234A463946204600F00EF9BDEC088B16
:100A1000BDE8F08700000000000000002D0000008D
:100A20002E00000000000000006AF84010B54FF4EE
:100A3000FA7000F065FA0021AE2000F04BF90021B9
:100A4000084600F047F90021102000F043F900218A
:100A5000402000F03FF90021812000F03BF9002107
:100A6000CF2000F037F90021A12000F033F9002158
:100A7000C82000F02FF90021A62000F02BF900215A
:100A8000A82000F027F900213F2000F023F90021E1
:100A9000D32000F01FF90021084600F01BF90021C7
:100AA000D52000F017F90021802000F013F9002173
:100AB000D92000F00FF90021F12000F00BF90021FE
:100AC000DA2000F007F90021122000F003F90021DC
:100AD000DB2000F0FFF80021402000F0FBF80021AF
:100AE000202000F0F7F80021022000F0F3F80021A8
:100AF0008D2000F0EFF80021142000F0EBF8002129
:100B0000A42000F0E7F80021A62000F0E3F800217F
:100B1000AF2000F0DFF8FFF7E4FE0021084600F008
:100B200001F810BD70B504460D4605F00701B0315F
:100B3000C8B2002100F0CEF804F00F00002100F050
:100B4000C9F8102141EA1410002100F0C3F870BD6B
:100B50002DE9F04180460E461546002731464046B5
:100B6000FFF7E0FF00240AE0124A02EB8511085D5E
:100B7000012100F0AFF8781CC7B2601CC4B2102C81
:100B8000F2DB701CC1B24046FFF7CCFF00240CE042
:100B90006900491C074A02EB4111085D012100F080
:100BA00099F8781CC7B2601CC4B2102CF0DBBDE809
:100BB000F0810000000000202DE9F04107460E46BC
:100BC000904600250024A8F12000C5B27F2F02DD49
:100BD0000027B01CC6B231463846FFF7A3FF0024F9
:100BE00008E004EB05110F4A505C012100F072F897
:100BF000601CC4B2082CF4DB701CC1B23846FFF78D
:100C000091FF002409E004EB05110831054A505C0E
:100C1000012100F05FF8601CC4B2082CF3DBBDE8D2
:100C2000F08100007A1200082DE9F0470646894657
:100C300090461D464FF0000A00242BE0281B401E62
:100C4000C1B20A2000F0FAF9B8FBF0F00A21B0FBBB
:100C5000F1F201FB1207BAF1000F0ED1681EA0429B
:100C60000BDD47B9092101FB0461C8B230224946B6
:100C7000FFF7A2FF0CE04FF0010A07F13001CAB202
:100C8000092101FB0461C8B24946FFF795FF00BF87
:100C9000601CC4B2AC42D1DBBDE8F0872DE9F04165
:100CA00004460F461546002600BF0EE0AA5D3946F1
:100CB0002046FFF781FF04F10800C4B2782C02DD62
:100CC0000024B81CC7B2701CC6B2A85D0028EDD1C4
:100CD000BDE8F08170B505460C461CB1284600F011
:100CE000CCF802E0284600F0AFF870BD7047000075
:100CF00029B1064A12680243044B1A6004E0034A11
:100D000012688243014B1A6070470000303802407D
:100D1000704700002248006840F080502049086079
:100D20002048006840F440401E4908601C4838389C
:100D300000681B49383908600846006808600846A2
:100D4000006840F4805008601748091F0860081FB9
:100D5000006840F08070091F086000BF10484038EC
:100D6000006800F000700028F8D040F202700F49CF
:100D700008600B483838006820F00300084938390B
:100D800008600846006840F00200086000BF0448A0
:100D90003838006800F00C000828F8D170470000CF
:100DA000403802400070004010640107003C0240DF
:100DB000042808D14FF0E021096941F004014FF007
:100DC000E022116107E04FF0E021096921F0040100
:100DD0004FF0E022116170477047000010B51548D0
:100DE000006840F47000134908601348006840F040
:100DF00001001149086000200F49083108600E48C1
:100E000000680E4908400C4908600D48091D08603B
:100E1000081F006820F48020091F08600020064990
:100E20000C310860FFF776FF4FF000600149803910
:100E3000086010BD88ED00E000380240FFFFF6FEBC
:100E40001030002400BFFEE710B50446FFF7C0FCD9
:100E50007820FFF77FFCFFF70DFD08B100BFFEE72C
:100E60000020FFF777FCFFF705FD2046FFF772FC37
:100E7000FFF700FDFFF7D6FC10BD10B50446FFF7E5
:100E8000A7FC7820FFF766FCFFF7F4FC4020FFF793
:100E900061FCFFF7EFFC2046FFF75CFCFFF7EAFC84
:100EA000FFF7C0FC10BD02E008C8121F08C1002AED
:100EB000FAD170477047002001E001C1121F002ADB
:100EC000FBD1704710B504466FF00400FFF770FFC8
:100ED000E11704EB5171C1F3C701074A11701046C5
:100EE000007800EB4001C1EBC0104FF6FF7101EA42
:100EF000C0000249088010BDC0020020C2020020CC
:100F000070B504464FF4077094FBF0F0C6B24FF48E
:100F1000077094FBF0F100FB114085B205E04FF43F
:100F2000077000F02FF8701EC6B2002EF7D115B171
:100F3000284600F027F870BD0146114A12784A434E
:100F40004FF0E0235A6100229A611A46126942F07A
:100F500001021A6100BF4FF0E022106900F00102A7
:100F60001AB100F48032002AF5D04FF0E022126965
:100F700022F001024FF0E0231A6100229A617047CB
:100F8000C00200200146114A12884A434FF0E02374
:100F90005A6100229A611A46126942F001021A61EE
:100FA00000BF4FF0E022106900F001021AB100F416
:100FB0008032002AF5D04FF0E022126922F00102BF
:100FC0004FF0E0231A6100229A617047C2020020AC
:100FD000A820FFF777FFFFF78BFBFFF727FD28E03F
:100FE0009FED140B02210820FFF79CFC0022114604
:100FF0001046FFF7ADFD012200211220FFF7A8FDEA
:10100000022200212420FFF7A3FD03220021362025
:10101000FFF79EFD042200214820FFF799FD0522DD
:1010200000215A20FFF794FD062200216C20FFF7D3
:101030008FFDD5E70000000000000A4010B5024611
:10104000012000E050430B1EA1F10104E1B2F9D1EF
:1010500010BD0000000000000000002F0000000094
:101060000700070000147F147F1400242A7F2A122F
:10107000006264081323003649552250000005031E
:10108000000000001C224100000041221C0000144E
:10109000083E08140008083E0808000000A0600090
:1010A0000008080808080000606000000020100820
:1010B0000402003E5149453E0000427F400000428C
:1010C00061514946002141454B31001814127F10EF
:1010D000002745454539003C4A494930000171091E
:1010E000050300364949493600064949291E0000D2
:1010F0003636000000005636000000081422410079
:1011000000141414141400004122140800020151A8
:10111000090600324959513E007C1211127C007FB1
:1011200049494936003E41414122007F4141221C4C
:10113000007F49494941007F09090901003E4149B1
:10114000497A007F0808087F0000417F41000020A5
:1011500040413F01007F08142241007F4040404051
:10116000007F020C027F007F0408107F003E414197
:10117000413E007F09090906003E4151215E007F82
:10118000091929460046494949310001017F0101F9
:10119000003F4040403F001F2040201F003F40389C
:1011A000403F0063140814630007087008070061DB
:1011B0005149454300007F41410000552A552A55B9
:1011C000000041417F000004020102040040404051
:1011D0004040000001020400002054545478007F75
:1011E0004844443800384444442000384444487F4C
:1011F00000385454541800087E0901020018A4A4B1
:10120000A47C007F080404780000447D4000004076
:1012100080847D00007F102844000000417F400052
:10122000007C04180478007C0804047800384444E6
:10123000443800FC242424180018242418FC007CC2
:101240000804040800485454542000043F4440203B
:10125000003C4040207C001C2040201C003C4030D2
:10126000403C004428102844001CA0A0A07C00445E
:1012700064544C44141414141414000000000000AE
:1012800000000000000000000000000000F8000066
:101290000000000000333000000000100C06100CAD
:1012A0000600000000000000000040C07840C07848
:1012B0004000043F04043F040400007088FC083030
:1012C0000000001820FF211E0000F008F000E018C8
:1012D000000000211C031E211E0000F00888700081
:1012E00000001E2123241927211010160E000000D3
:1012F00000000000000000000000000000E01804F2
:101300000200000000071820400000020418E0005E
:1013100000000040201807000000404080F080409E
:1013200040000202010F01020200000000F0000074
:1013300000000101011F0101010000000000000088
:10134000000080B0700000000000000000000000FD
:101350000000000101010101010100000000000086
:10136000000000303000000000000000000080603D
:101370001804006018060100000000E010080810C2
:10138000E000000F102020100F00001010F80000E7
:1013900000000020203F202000000070080808887E
:1013A000700000302824222130000030088888484E
:1013B00030000018202020110E000000C02010F87E
:1013C000000000070424243F240000F8088888084F
:1013D00008000019212020110E0000E01088881854
:1013E0000000000F112020110E0000380808C83836
:1013F00008000000003F0000000000708808088816
:101400007000001C222121221C0000E0100808109E
:10141000E0000000312222110F00000000C0C000D7
:1014200000000000003030000000000000800000DC
:1014300000000000806000000000000080402010DC
:1014400008000001020408102000404040404040D5
:101450004000040404040404040000081020408038
:10146000000000201008040201000070480808086D
:10147000F0000000003036010000C030C828E8103D
:10148000E0000718272423140B000000C038E000F8
:101490000000203C23020227382008F88888887042
:1014A0000000203F202020110E00C030080808084E
:1014B0003800071820202010080008F80808081035
:1014C000E000203F202020100F0008F88888E8085E
:1014D0001000203F20202320180008F88888E80802
:1014E0001000203F200003000000C030080808382A
:1014F000000007182020221E020008F8080000083B
:10150000F808203F210101213F20000808F80808C1
:1015100000000020203F2020000000000808F808FC
:101520000800C08080807F00000008F888C028186C
:101530000800203F20012638200008F8080000009D
:101540000000203F20202020300008F8F800F8F8A4
:101550000800203F003F003F200008F830C000088E
:10156000F808203F200007183F00E0100808081086
:10157000E0000F10202020100F0008F808080808CD
:10158000F000203F210101010000E01008080810D0
:10159000E0000F18242438504F0008F88888888805
:1015A0007000203F2000030C3020007088080808DD
:1015B00038000038202121221C00180808F80808EB
:1015C00018000000203F2000000008F80800000874
:1015D000F808001F202020201F000878880000C87D
:1015E0003808000007380E010000F80800F800086D
:1015F000F800033C0700073C030008186880806877
:10160000180820302C03032C30200838C800C838B4
:1016100008000000203F2000000010080808C8381B
:1016200008002038262120201800000000FE0202B9
:1016300002000000007F40404000000C30C000006D
:101640000000000000010638C00000020202FE0097
:101650000000004040407F00000000000402020241
:101660000400000000000000000000000000000076
:101670000000808080808080808000020204000062
:10168000000000000000000000000000808080805A
:1016900000000019242222223F2008F80080800048
:1016A0000000003F112020110E000000008080800B
:1016B0000000000E11202020110000000080808812
:1016C000F800000E112020103F2000008080808054
:1016D0000000001F222222221300008080F0888850
:1016E00088180020203F202000000000808080809B
:1016F0008000006B94949493600008F800808080D0
:101700000000203F210000203F200080989800002A
:1017100000000020203F202000000000008098985A
:10172000000000C08080807F000008F800008080FA
:101730008000203F24022D302000000808F800001F
:1017400000000020203F20200000808080808080DA
:101750008000203F20003F20003F8080008080806C
:101760000000203F210000203F200000808080807A
:101770000000001F202020201F00808000808000AB
:10178000000080FFA12020110E000000008080805A
:101790008000000E112020A0FF80808080008080CB
:1017A000800020203F2120000100000080808080F8
:1017B00080000033242424241900008080E08080ED
:1017C00000000000001F202000008080000000803A
:1017D0008000001F202020103F208080800000809B
:1017E000808000010E3008060100808000800080AB
:1017F00080800F300C030C300F0000808000808050
:1018000080000020312E0E3120008080800000807A
:10181000808080818E70180601000080808080802A
:1018200080000021302C2221300000000000807C4C
:10183000020200000000003F404000000000FF00E6
:10184000000000000000FF0000000002027C800099
:1018500000000040403F00000000000601010202BD
:101860000404000000000000000000008C180008C4
:1018700000000020C402000000060008C019000893
:10188000C402002004040000B60E0008211BF01062
:10189000012AFF050215F01B0F04012AFF050213A0
:1018A0000F18094040405F55555575041A5F0C09E3
:1018B0001121080C11200F094989790909090F2004
:1018C0001F112FFE02424ACA4A0304134202FE00BD
:1018D0000E14FF40504C4340404F50505C40FF1BA3
:1018E000F888012AFF050215F81B1F08012A7F202E
:1018F0000B109F80E23B808201000916E2A2928ACF
:1019000086828080041840807F172424A4FEA322AE
:101910001B22CCAA011415080601FF2B01040105A6
:1019200011FF0202025808101010FF109008C302A5
:101930001108080F110444827F01808040432C105D
:10194000284681A01941080B1110D030FF30D01269
:101950001C10101F3D080402019C0D110102040817
:10196000211116FE222222FE0712FE828292A29EE0
:10197000100880601F0242827F0F11FF402F102C41
:10198000438011000B1490884C57A42454548C8429
:10199000180801018042221A07441D423E01018AB3
:1019A000F9E1000D14E4242CB4252624B42C24E4FD
:1019B00004180AFF02011E1212121E4186011600AF
:040000050800019955
:00000001FF
