:020000040800F2
:10000000A80F0020F9130008690200086B0200081D
:100010006F02000873020008770200080000000069
:100020000000000000000000000000007B0200084B
:100030007D020008000000007F0200088102000825
:1000400013140008131400081314000813140008F4
:1000500013140008131400081314000813140008E4
:1000600013140008131400081314000813140008D4
:1000700013140008131400081314000813140008C4
:1000800013140008131400081314000813140008B4
:1000900013140008131400081314000813140008A4
:1000A0001314000813140008131400081314000894
:1000B0001314000813140008131400081314000884
:1000C0001314000813140008131400081314000874
:1000D000131400086F130008131400081314000809
:1000E00013140008131400081314000800F002F899
:1000F00000F05AF80AA090E8000C82448344AAF168
:100100000107DA4501D100F04FF8AFF2090EBAE865
:100110000F0013F0010F18BFFB1A43F0010318473B
:1001200014420000344200000A444FF0000C10F862
:10013000013B13F0070408BF10F8014B1D1108BF65
:1001400010F8015B641E05D010F8016B641E01F805
:10015000016BF9D113F0080F1EBF10F8014BAD1C55
:100160000C1B09D16D1E58BF01F801CBFAD505E073
:1001700014F8016B01F8016B6D1EF9D59142D6D3CD
:10018000704700000023002400250026103A28BFF5
:1001900078C1FBD8520728BF30C148BF0B607047F9
:1001A0001FB51FBD10B510BD01F03DFF1146FFF793
:1001B000F7FF00F01CF801F05BFF03B4FFF7F2FF5C
:1001C00003BC01F075F80000014649061E4A926919
:1001D00042F001021C4B9A611C4A526822F0E06214
:1001E0001A4B5A601A4652680A435A60704700F028
:1001F00039F90220FFF7E8FF0120FFF7E5FF4FF490
:10020000165001F064F800F0B5FC00F09DFD00F020
:1002100021FA00F091F916E000F09EFA0CA20221FA
:10022000102000F095FE0BA20421102000F090FE9B
:1002300009A20621102000F08BFE0A4801782C222A
:10024000002000F0CEFEE7E7001002400000014071
:100250004D43550051510000323032313233333387
:100260000000000014080020704700BFFEE700BF38
:10027000FEE700BFFEE700BFFEE77047704770472C
:10028000704700000CB50020019000906C48006899
:1002900040F480306A49086000BF6948006800F493
:1002A000003000900198401C0190009818B9019806
:1002B000B0F5A06FF1D16248006800F4003010B1D1
:1002C0000120009001E0002000900098012843D117
:1002D0005C48006840F010005A4908600846006811
:1002E00020F0030008600846006840F00200086043
:1002F000534840685249486008464068486008468C
:10030000406840F4806048600846406820F47C10F3
:1003100048600846406840F4E810486008460068B5
:1003200040F08070086000BF4548006800F0007031
:100330000028F9D04248406820F003004049486056
:100340000846406840F00200486000BF3C484068F2
:1003500000F00C000828F9D10CBD10B5FFF792FF92
:1003600010BD10B53648006840F0010034490860FF
:1003700008464068344908403149486008460068EA
:10038000324908402E4908600846006820F4802061
:1003900008600846406820F4FE0048604FF41F00E3
:1003A0008860FFF7DAFF4FF000602949086010BD50
:1003B00010B5002100200022214B5B6803F00C01E6
:1003C00021B1042906D0082928D107E0214B224C6D
:1003D000236027E01F4B204C236023E0184B5B6811
:1003E00003F47010164B5B6803F48032022303EBB6
:1003F000904022B9194B4343174C23600DE0104B3A
:100400005B6803F4003323B1144B4343124C236065
:1004100003E0104B4343104C236003E00D4B0E4CA4
:10042000236000BF00BF064B5B68C3F303130C4C93
:10043000E15C094B1B68CB40074C236010BD0000FA
:1004400000100240002002400000FFF8FFFFF6FE0F
:1004500008ED00E000127A004808002000093D0085
:100460004C08002010B56FF0040001F034F82E485D
:1004700000682E49B0FBF1F02D490870084600785D
:1004800000EB4001C1EBC0104FF6FF7101EAC00064
:100490002849088010BD0146254A12784A434FF08A
:1004A000E0235A6100229A611A46126942F0010261
:1004B0001A6100BF4FF0E022106900F001021AB18A
:1004C00000F48032002AF5D04FF0E022126922F0C9
:1004D00001024FF0E0231A6100229A617047014641
:1004E000144A12884A434FF0E0235A6100229A616D
:1004F0001A46126942F001021A6100BF4FF0E02271
:10050000106900F001021AB100F48032002AF5D01F
:100510004FF0E022126922F001024FF0E0231A614D
:1005200000229A61704700004808002000127A00FB
:100530005C0800205E08002008B50121182001F0A9
:1005400005FB4FF47070ADF8000048208DF80300F3
:1005500069463B4801F03EF842F20200ADF8000067
:1005600048208DF803006946364801F033F808BD8D
:1005700010B5044614B101203349087032480078A0
:1005800000283DD03148006890B13148006878B10A
:100590002F48001D006858B12C483030006838B131
:1005A0002B48001F006818B129480830006838BB84
:1005B0000A20FFF794FF00202349087023480068B1
:1005C00008B9022010BD2248006808B90320F9E7E5
:1005D0001F48001D006808B90420F3E71B483030AD
:1005E000006808B90520EDE71948001F006808B940
:1005F0000620E7E7164808300068F8B90720E1E769
:1006000012480068012819D111480068012815D145
:100610000F48001D0068012810D10C4830300068D8
:1006200001280BD10A48001F0068012806D108489C
:1006300008300068012801D1034908700020C1E793
:10064000000C01400010014060080020040122421B
:100650001C81214208B50121102001F077FA1820F1
:10066000ADF8000010208DF8030003208DF8020083
:100670006946044800F0AEFF1821024801F057F81F
:1006800008BD00000010014008B50C2004230090B4
:10069000FE4805210268332000F0E8FB0C2004230B
:1006A0000090FB4806210268202000F0DFFBF9A241
:1006B00007213B2000F01CFC0C2002230090F64890
:1006C00006210268402000F0D1FB08BD10B50122D0
:1006D0000221152000F0ADFC09220221272000F0A4
:1006E000A8FC0A220221392000F0A3FC03220221E7
:1006F000482000F09EFC042202215A2000F099FCC0
:1007000010BD10B5E548002102686F2000F069FCBB
:1007100010BD10B5E248006820B10522002110206C
:1007200000F05FFC10BD10B526220021084600F045
:1007300058FC10BD10B5DB4800210268202000F0F5
:1007400050FC10BD10B5D848006820B12822002107
:100750005A2000F046FC10BD10B5FFF7E4FFFFF78C
:10076000D8FFFFF7E7FFFFF7EDFFFFF7CAFF10BD68
:1007700070B504460D461646CC480068022839D1AB
:10078000012C04D0022C12D0032C30D11FE0C8A2BF
:100790000221102000F0DCFBC6A20421102000F092
:1007A000D7FBC5A20621102000F0D2FB20E0C1A299
:1007B0000221102000F0CCFBBFA20421102000F089
:1007C000C7FBBEA20621102000F0C2FB10E0BAA2B7
:1007D0000221102000F0BCFBB8A20421102000F080
:1007E000B7FBB7A20621102000F0B2FB00E000BF6B
:1007F00000BF00E000BF00BF43220421102000F032
:10080000F0FB44220421202000F0EBFB34220421E1
:10081000102000F0E6FB35220421202000F0E1FB4F
:1008200036220421102000F0DCFB37220421202096
:1008300000F0D7FB36220421102000F0D2FB382232
:100840000421202000F0CDFB45220221102000F0E1
:10085000C8FB46220221202000F0C3FB47220221D0
:10086000302000F0BEFB48220221402000F0B9FBFE
:1008700049220421102000F0B4FB4A220421202048
:1008800000F0AFFB32220421302000F0AAFB33221B
:100890000421402000F0A5FB8348006828B13022E5
:1008A0000221602000F09DFB04E031220221602043
:1008B00000F097FB70BD38B582480068022807D069
:1008C00080480068042803D07E480068062848D184
:1008D0007C4801782C22002000F083FB0022114686
:1008E0000220FFF745FF78490878FFF741FE02280C
:1008F00006D0052810D006281AD007282FD123E0CB
:10090000704801782522002000F06BFB6D480068DC
:10091000801E6C49086023E06A4801782522002087
:1009200000F05FFB67480068801C6649086017E0BC
:1009300000220221104600F00CFC03205B490860F5
:100940000220604908600BE000220221104600F0FE
:1009500000FC0220554908605A49086000E000BFC9
:100960000EE058480068062803DD0220554908605B
:1009700006E054480068022802DA0620514908605F
:10098000504804680C20009004EBD47042100123FE
:100990000621602000F06AFA3EA20721682000F0DC
:1009A000A7FA4AA20721702000F0A2FA38BD38B594
:1009B00044480068022807D042480068042803D051
:1009C00040480068062846D13E4801782C22002085
:1009D00000F007FB002211460220FFF7C9FE3A494A
:1009E0000878FFF7C5FD022806D0052810D0062894
:1009F0001AD007282DD123E0324801782522002083
:100A000000F0EFFA2F480068801E2E49086021E0B0
:100A10002C4801782522002000F0E3FA29480068DC
:100A2000801C2849086015E000220221104600F0D1
:100A300090FB03201D49086002202249086009E05C
:100A400000220221104600F084FB002017490860B4
:100A500000E000BF0EE01B480068062803DD02200E
:100A60001849086006E017480068022802DA0620E4
:100A700014490860134804680C20009004EBD470FB
:100A8000421001230621602022E00000F807002028
:100A9000FC0700202F000000000800202408002090
:100AA000180800201C08002020080020380800201A
:100AB00030300000303100003032000030330000B0
:100AC00030340000140800203008002031300000CD
:100AD00000F0CCF9AFF244020721682000F008FAD8
:100AE000AFF218020721702000F002FA38BD10B5ED
:100AF000FFF7ECFDFFF7C8FD0B220621002000F0F8
:100B000070FA0C220621102000F06BFA0D2206214B
:100B1000602000F066FA0E220621702000F061FAD3
:100B200012490878FFF724FD062807D10220104952
:100B3000086000220221104600F00BFB10BD10B52A
:100B4000FFF70AFE0A48006820B1022805D00328F2
:100B500009D105E0FFF7CBFF06E0FFF728FF03E030
:100B6000FFF7A9FE00E000BF00BF10BD3008002065
:100B70003808002008B50121042000F0E7FFA0207C
:100B8000ADF8000010208DF8030003208DF802005E
:100B90006946FB4800F01EFD08BD10B50120F9496B
:100BA0000860F949C1F89401FFF775FC0020F54988
:100BB00008600120FFF76FFC0020F349C1F89401A1
:100BC00010BD10B50020EF4908390860EE49C1F8A2
:100BD0009C010120FFF75FFC0120EA490839086009
:100BE000E949C1F89C01FFF756FC10BD70B50446F9
:100BF000002517E004F0800018B10120E1490860E9
:100C000002E00020DF4908600120DE490839086061
:100C1000FFF741FC0020DC49C1F894016006040E96
:100C2000681CC5B2082DE5DB0120D6490860D6490D
:100C3000C1F89401FFF72FFC0020D2490839086061
:100C400070BD10B50446FFF7A8FF7820FFF7CEFF70
:100C50004020FFF7CBFF2046FFF7C8FFFFF7B1FFAB
:100C600010BD10B50446FFF798FF7820FFF7BEFFD0
:100C70000020FFF7BBFF2046FFF7B8FFFFF7A1FFFB
:100C800010BD70B504460D4605F1B001C8B2FFF7BE
:100C9000E8FF102141EA1410FFF7E3FF04F00F0111
:100CA00041F00100FFF7DDFF70BD70B5064600247E
:100CB00015E004F1B001C8B2FFF7D3FF0120FFF740
:100CC000D0FF1020FFF7CDFF002504E03046FFF7EE
:100CD000B8FF681CC5B2802DF8DB601CC4B2082CBC
:100CE000E7DB70BD70B5002415E004F1B001C8B2B7
:100CF000FFF7B7FF0120FFF7B4FF1020FFF7B1FFA8
:100D0000002504E00020FFF79CFF681CC5B2802D81
:100D1000F8DB601CC4B2082CE7DB70BD10B58D2079
:100D2000FFF79FFF1020FFF79CFFAE20FFF799FF12
:100D300010BD10B58D20FFF794FF1420FFF791FF31
:100D4000AF20FFF78EFF10BD10B54FF4FA70FFF71C
:100D5000C6FBAE20FFF785FF0020FFF782FF1020C3
:100D6000FFF77FFF4020FFF77CFF8120FFF779FF2F
:100D7000FF20FFF776FFA120FFF773FFC820FFF7E2
:100D800070FFA620FFF76DFFA820FFF76AFF3F2046
:100D9000FFF767FFD320FFF764FF0020FFF761FF35
:100DA000D520FFF75EFF8020FFF75BFFD920FFF71C
:100DB00058FFF120FFF755FFDA20FFF752FF12200E
:100DC000FFF74FFFDB20FFF74CFF4020FFF749FF05
:100DD0002020FFF746FF0220FFF743FF8D20FFF79B
:100DE00040FF1420FFF73DFFA420FFF73AFFA620A5
:100DF000FFF737FFAF20FFF734FF0020FFF755FF65
:100E000000210846FFF73DFF10BD10B50246012046
:100E100000E050430B1EA1F10104E1B2F9D110BD75
:100E20002DE9F04106460C4617464FF00008002514
:100E3000A7F1200000F0FF087F2E02DD0026A01C95
:100E4000C4B2601CC1B23046FFF71BFF002509E0A9
:100E500008EB48014D4A02EB4101485DFFF7F1FE06
:100E6000681CC5B2062DF3DBBDE8F0812DE9FF5FFC
:100E7000074691461D460E9E4FF0000A002433E0BF
:100E8000281B401EC1B20A20FFF7BFFFB9FBF0F0DC
:100E90000A21B0FBF1F201FB1208BAF1000F13D1E5
:100EA000681EA04210DDB8F1000F0BD1B34606EB6F
:100EB000DB71491001FB0471C8B220220199FFF7D0
:100EC000AFFF0FE04FF0010AB34606EBDB714910AC
:100ED00001FB0471C8B208F13001CAB20199FFF7F1
:100EE0009FFF00BF601CC4B2AC42C9DBBDE8FF9FDE
:100EF0002DE9F0470446884615464FF000090026C4
:100F0000002720E0E85D203800F0FF097E2C04DD9A
:100F1000002408F1010000F0FF0841462046FFF7D9
:100F2000B0FE002609E009EB4901184A02EB410135
:100F3000885DFFF786FE701CC6B2062EF3DBA01D8F
:100F4000C4B2781CC7B2E85D0028DBD1BDE8F087E9
:100F50002DE9F04706460F46904600250024A1469D
:100F600039E018F809002038C5B2782E02DD0026D5
:100F7000781CC7B239463046FFF783FE00240FE0E5
:100F8000000801409C01214200002142EC29000898
:100F900004EB0511C14A505CFFF753FE601CC4B25C
:100FA000082CF5DB781CC1B23046FFF76AFE00243E
:100FB00008E004EB05110831B84A505CFFF741FE28
:100FC000601CC4B2082CF4DB06F10800C6B209F1BB
:100FD000010000F0FF0918F809000028C1D1BDE8A0
:100FE000F0872DE9F04180460E46174600247D012A
:100FF00031464046FFF745FE00BF06E0A849485D80
:10100000FFF71FFE6D1C601CC4B2102CF6DB701CB9
:10101000C1B24046FFF735FE002406E0A049485D16
:10102000FFF70FFE6D1C601CC4B2102CF6DBBDE890
:10103000F0812DE9F04180460E4617460024BD019F
:1010400031464046FFF71DFE00BF06E09549485D6A
:10105000FFF7F7FD6D1C601CC4B2102CF6DB701C92
:10106000C1B24046FFF70DFE002406E08D49485D01
:10107000FFF7E7FD6D1C601CC4B2102CF6DBB01C42
:10108000C1B24046FFF7FDFD002406E08549485DFA
:10109000FFF7D7FD6D1C601CC4B2102CF6DBF01CF2
:1010A000C1B24046FFF7EDFD002406E07D49485DF2
:1010B000FFF7C7FD6D1C601CC4B2102CF6DBBDE849
:1010C000F0812DE9F04180460E4617460024FD01CF
:1010D00031464046FFF7D5FD00BF06E07249485D46
:1010E000FFF7AFFD6D1C601CC4B2202CF6DB701C3A
:1010F000C1B24046FFF7C5FD002406E06A49485DDD
:10110000FFF79FFD6D1C601CC4B2202CF6DBB01CE9
:10111000C1B24046FFF7B5FD002406E06249485DD4
:10112000FFF78FFD6D1C601CC4B2202CF6DBF01C99
:10113000C1B24046FFF7A5FD002406E05A49485DCC
:10114000FFF77FFD6D1C601CC4B2202CF6DBBDE8F0
:10115000F0812DE9F04180460E46174600BF07EBAF
:101160004700050231464046FFF78BFD002406E0AC
:101170004E49485DFFF765FD6D1C601CC4B2802CB4
:10118000F6DB701CC1B24046FFF77BFD002406E091
:101190004649485DFFF755FD6D1C601CC4B2802CAC
:1011A000F6DBB01CC1B24046FFF76BFD002406E041
:1011B0003E49485DFFF745FD6D1C601CC4B2802CA4
:1011C000F6DBF01CC1B24046FFF75BFD002406E0F1
:1011D0003649485DFFF735FD6D1C601CC4B2802C9C
:1011E000F6DB301DC1B24046FFF74BFD002406E0A0
:1011F0002E49485DFFF725FD6D1C601CC4B2802C94
:10120000F6DB701DC1B24046FFF73BFD002406E04F
:101210002649485DFFF715FD6D1C601CC4B2802C8B
:10122000F6DBBDE8F08170472DE9F05F06460F461A
:1012300090461C46DDF828A04FF0000BE11704EBA8
:101240005171C910A4EBC10131B92046E11704EB7B
:101250005171C1F3C70506E02046E11704EB517157
:10126000C910491CCDB23D4614E029463046FFF76F
:1012700008FDB1460AE059460BF1010B1AF80100CE
:10128000FFF7DFFC09F1010000F0FF09C145F2DBC7
:10129000681CC5B2A542E8DBBDE8F09F142C00082D
:1012A0008C20000804320008C434000844360008CA
:1012B000014600BF704700BF4B4A128802F040024F
:1012C000002AF9D0C2B2484B1B1D1A80704710B5D6
:1012D00086B00446012144F2040000F037FC4FF4CC
:1012E0000070ADF8140003208DF8160018208DF85A
:1012F000170005A93D4800F06DF94FF48060ADF886
:10130000140004208DF8170005A9384800F062F990
:1013100025208DF8000003208DF801008DF80200D3
:1013200001208DF80300684600F08BF84FF4A060B0
:1013300000F082F801940020ADF80800ADF80A0032
:10134000ADF80C00ADF810000C20ADF80E0001A9AE
:10135000254800F0A2FC012240F22551224800F06D
:1013600034FD0121204800F024FD06B010BD10B569
:1013700040F225511C4800F00DFE10B31A4800F051
:1013800089FDC4B21A48008800F40040C8B9184862
:10139000008800F4804060B10A2C03D0002014497A
:1013A000088020E01248008840F40040104908807E
:1013B00019E00D2C06D10E48008840F480400C49FD
:1013C000088010E00A480088C0F30D0009490C5459
:1013D00007480088401C0649088008460088C7283E
:1013E00001DD0020088010BD0038014000080140E8
:1013F0006808002080080020094880470948004705
:10140000FEE7FEE7FEE7FEE7FEE7FEE7FEE7FEE7B4
:10141000FEE7FEE704480549054A064B7047000011
:1014200063030008ED000008A8090020A80F0020B1
:10143000A80B0020A80B002031490143314A11605C
:10144000704770B5002100230F22C47804B32D4CDF
:10145000246804F4E064C4F5E064210AC1F10403E3
:10146000CA40447804FA03F1847814402143090106
:10147000254C0678A155047804F01F050124AC40E2
:1014800005786D11AD0005F1E025C5F8004109E0D2
:10149000047804F01F050124AC401C4D0678761139
:1014A00045F8264070BD1A4A0A400243154B1B1FDF
:1014B0001A60704739B1134A121D12680243114B6A
:1014C0001B1D1A6006E00F4A121D126882430D4B65
:1014D0001B1D1A607047042808D14FF0E0210969EC
:1014E00041F004014FF0E022116107E04FF0E021EC
:1014F000096921F004014FF0E022116170470000FA
:101500000000FA050CED00E000E400E080E100E0FE
:1015100080FFFF1F10B50446CC48844208D101214A
:10152000042000F02DFB0021042000F029FB46E000
:10153000C748844208D10121082000F021FB002186
:10154000082000F01DFB3AE0C248844208D1012186
:10155000102000F015FB0021102000F011FB2EE000
:10156000BD48844208D10121202000F009FB002160
:10157000202000F005FB22E0B848844208D1012178
:10158000402000F0FDFA0021402000F0F9FA16E0BA
:10159000B348844208D10121802000F0F1FA0021F3
:1015A000802000F0EDFA0AE0AE48844207D1012124
:1015B000801500F0E5FA0021A01500F0E1FA10BD59
:1015C00010B50121084600F0DBFA0021012000F0EF
:1015D000D7FA10BD2DE9F041024600250026002073
:1015E00000230024002791F803C00CF00F0591F8A8
:1015F00003C00CF0100CBCF1000F03D091F802C036
:101600004CEA050591F800C0BCF1000F31D0146818
:1016100000202BE04FF0010C0CFA00F3B1F800C0F1
:101620000CEA03069E4220D183004FF00F0C0CFA07
:1016300003F7BC4305FA03FC4CEA040491F803C029
:10164000BCF1280F06D14FF0010C0CFA00FCC2F8D7
:1016500014C00AE091F803C0BCF1480F05D14FF067
:10166000010C0CFA00FCC2F810C0401C0828D1D3B1
:101670001460B1F800C0BCF1FF0F34DD54680020E5
:101680002EE000F1080C4FF0010808FA0CF3B1F855
:1016900000C00CEA03069E4221D183004FF00F0CDC
:1016A0000CFA03F7BC4305FA03FC4CEA040491F876
:1016B00003C0BCF1280F05D100F1080C08FA0CF8A2
:1016C000C2F8148091F803C0BCF1480F07D100F1B3
:1016D000080C4FF0010808FA0CF8C2F81080401C02
:1016E0000828CED35460BDE8F0814FF6FF71018029
:1016F000022181700421C170704702460020936866
:101700000B400BB1012000E00020704701468868C3
:1017100080B2704702460020D3680B400BB1012015
:1017200000E0002070470146C86880B27047016140
:101730007047416170470AB1016100E04161704743
:10174000C16070474FF480320A43826181618261D7
:1017500082698269704702460020434B18684FF641
:101760008073184040EA021008433F4B18607047EE
:101770003E49C8617047F0B50A46002300240021A5
:10178000002500F00046B6F1004F02D1364EF16957
:1017900001E0354E7168C0F3034583B200F4401692
:1017A000B6F5401F08D121F070612F4E766826F003
:1017B00070662D4F7E6012E000F48016B6F5801F33
:1017C00006D1032606FA05F4A14341F0706106E054
:1017D000460D360103FA06F6B14341F0706122B1BD
:1017E000460D360103FA06F6314300F00046B6F125
:1017F000004F02D11C4EF16101E01B4E7160F0BD43
:1018000030B500228B071C0F0F2303FA04F2164B8E
:1018100008338C1053F824309343134C08348D1044
:1018200044F8253023468C1053F824308C07240FBD
:1018300000FA04F423430C4C08348D1044F825308E
:1018400030BD0A49DC3108607047000000080140E3
:10185000000C01400010014000140140001801403C
:10186000001C014000200140000001400000204217
:10187000DF48006840F00100DD4908600846406824
:10188000DC490840DA49486008460068DA490840FF
:10189000D74908600846006820F4802008600846A0
:1018A000406820F4FE0048604FF41F0088607047D5
:1018B000CF49096821F48031CD4A11601146096889
:1018C00021F480211160B0F5803F03D0B0F5802F66
:1018D0000ED106E0C649096841F48031C44A11605E
:1018E00007E0C349096841F4A021C14A116000E042
:1018F00000BF00BF704710B5014600220023002042
:101900004A11012A02D1BA4C236806E0022A02D108
:10191000B74C236A01E0B64C636A01F01F02012450
:1019200094401C400CB1012000E0002010BD38B5EF
:10193000002000900024002500BF3120FFF7DBFFCE
:1019400005460098401C00900098B0F5A06F01D0AB
:10195000002DF2D03120FFF7CEFF08B1012400E0C6
:101960000024204638BD01460020A14A106820F01E
:10197000F80040EAC10010607047A0490860704755
:10198000024600209A4B586820F47C1042EA01037A
:101990001843974B5860704798490866704701464E
:1019A0000020934A506820F00300084350607047BD
:1019B0008F48406800F00C007047014600208C4AB8
:1019C000506820F0F0000843506070470146002046
:1019D000874A506820F4E060084350607047014631
:1019E0000020834A506820F4605040EAC1005060F3
:1019F000704729B17E4A527A02437D4B5A7204E005
:101A00007B4A527A82437A4B5A7270477B49D8316B
:101A10000860704701460020754A506820F4404035
:101A20000843506070470021714A20321170704A9B
:101A300082F82010012802D004280AD104E00121F4
:101A40006B4A2032117005E00521694A203211707D
:101A500000E000BF00BF70476949086070476449F3
:101A6000096A0143624A1162704765494439086056
:101A7000704730B500210022002400235C4D6D68C2
:101A800005F00C0121B1042905D0082923D105E076
:101A90005C4D056022E05B4D05601FE0544D6D68B4
:101AA00005F47012524D6D6805F48034022505EB83
:101AB00092421CB9544D554305600BE04C4D6D6886
:101AC00005F400351DB1504D5543056002E04D4D04
:101AD0005543056002E04B4D056000BF00BF444D1B
:101AE0006D6805F0F0010909484D6B5C0568DD4043
:101AF00045603F4D6D6805F4E061090A434D6B5C3C
:101B00004568DD4085603A4D6D6805F46051C90A4D
:101B10003E4D6B5C4568DD40C560354D6D6805F434
:101B20004041890B3A4D6B5CC568B5FBF3F5056127
:101B300030BD29B12E4A526902432D4B5A6104E04F
:101B40002B4A526982432A4B5A61704729B1284A6D
:101B500092690243264B9A6104E0254A92698243C6
:101B6000234B9A61704729B1214AD2690243204B25
:101B7000DA6104E01E4AD26982431D4BDA61704784
:101B800029B11B4AD2680243194BDA6004E0184AB3
:101B9000D2688243164BDA60704729B1144A126941
:101BA0000243134B1A6104E0114A12698243104B3D
:101BB0001A61704712494039086070470F49C8647C
:101BC00070470B49C87170470948406A40F08070FF
:101BD00007494862704701460020054A92680A405A
:101BE0000AB1012000E00020704701498872704767
:101BF000001002400000FFF8FFFFF6FE0000424226
:101C00008004424200127A0000093D006A08002068
:101C10007A08002010B50446FB48844209D101210E
:101C20008803FFF7ADFF00214FF48040FFF7A8FFC6
:101C300032E0F648844209D101214804FFF7ADFFA4
:101C400000214FF40030FFF7A8FF25E0F048844260
:101C500009D101218804FFF7A0FF00214FF4802063
:101C6000FFF79BFF18E0EB48844209D10121C8042B
:101C7000FFF793FF00214FF40020FFF78EFF0BE0EA
:101C8000E548844208D101210805FFF786FF0021BD
:101C90004FF48010FFF781FF10BD2DE9F04786B0AB
:101CA00005460E460024A24600BFA1460027B08983
:101CB00000B100BF2F462C8A4CF6FF700440F0881C
:101CC00004432C82AC894EF6F3100440B08831896D
:101CD0000843718908430443AC81AC8A4FF6FF4046
:101CE0000440B0890443AC8201A8FFF7C2FEC64895
:101CF000874202D1DDF810A001E0DDF80CA0A88930
:101D000000F4004040B10AEBCA0000EB0A10316851
:101D10004900B0FBF1F807E00AEBCA0000EB0A103B
:101D200031688900B0FBF1F86420B8FBF0F00401E1
:101D30002009642101FB1089A88900F4004040B10A
:101D4000322000EBC900B0FBF1F000F007000443C3
:101D500008E0322000EB09106421B0FBF1F000F044
:101D60000F0004432C8106B0BDE8F0874FF41651F4
:101D7000016000218180C18001810C21418100210D
:101D80008181704710B502460020108A4FF2FF0390
:101D900018400B884C8823438C882343CC882343EA
:101DA0001843108210BD0021018041808180C180D4
:101DB000704721B1828942F40052828104E0828915
:101DC0004DF6FF731A4082817047F0B50346002438
:101DD00000260025002040F66A17B94200D100BF56
:101DE0001846C1F3421401F01F06012707FA06F551
:101DF000012C01D10C3004E0022C01D1103000E0A4
:101E000014301AB107682F43076002E00768AF4338
:101E10000760F0BD1AB1838A0B43838202E0838A94
:101E20008B4383827047028A4FF6F0731A40028216
:101E3000028A0A430282704782894FF2FF731A4076
:101E4000828182890A438281704721B1828942F06E
:101E50000202828104E082894FF6FD731A4082817A
:101E60007047028A4FF6DF731A400282028A0A43E1
:101E70000282704721B1028A42F48042028204E069
:101E8000028A4BF6FF731A4002827047C1F30802C0
:101E90008280704701468888C0F3080070478189B6
:101EA00041F0010181817047028BD2B20283028B23
:101EB00042EA012202837047028B02F47F420283CE
:101EC000028B0A430283704721B1828A42F02002CA
:101ED000828204E0828A4FF6DF731A408282704762
:101EE00021B1828A42F01002828204E0828A4FF697
:101EF000EF731A408282704721B1828A42F0080251
:101F0000828204E0828A4FF6F7731A408282704719
:101F100021B1828942F40042828103E08289C2F3C6
:101F20000E028281704721B1828A42F4006282826D
:101F300004E0828A4FF2FF731A4082827047828ADD
:101F40004FF6FB731A408282828A0A43828270476C
:101F500021B1828A42F00202828204E0828A4FF634
:101F6000FD731A408282704702460020B1F5007F5F
:101F700000D100BF13880B400BB1012000E000200E
:101F8000704701F40072B2F5007F00D100BFCA4370
:101F90000280704770B5024600240023002500200F
:101FA00040F66A16B14200D100BFC1F3421501F0FC
:101FB0001F03012606FA03F3012D02D1968933404F
:101FC00006E0022D02D1168A334001E0968A3340A2
:101FD0000C12012606FA04F41688344013B10CB131
:101FE000012000E0002070BD10B50022002340F663
:101FF0006A14A14200D100BF0A1201249440A3B286
:10200000DC43048010BD0000003801400044004063
:1020100000480040004C00400050004070477047AE
:10202000704770477047754600F02CF8AE460500C3
:102030006946534620F00700854618B020B5FFF7E3
:10204000E9F9BDE820404FF000064FF000074FF0DF
:1020500000084FF0000B21F00701AC46ACE8C009C6
:10206000ACE8C009ACE8C009ACE8C0098D467047CF
:1020700010B50446AFF300802046BDE81040FEF7DF
:102080009CB800000048704748090020F80808087C
:1020900008080808080808080808F8C01F101010E9
:1020A000101010101010101010101F03F808E8E89E
:1020B00008080808080808080808F8C01F101717BB
:1020C000101010101010101010101F03F808E8E87E
:1020D00008E8E808080808080808F8C01F101717DB
:1020E000101717101010101010101F03F808E8E850
:1020F00008E8E808E8E808080808F8C01F101717FB
:10210000101717101717101010101F03F808E8E821
:1021100008E8E808E8E808E8E808F8C01F1017171A
:10212000101717101717101717101F0300000000C3
:10213000204080FC885020000000000000000000CB
:102140000201001F0805020000000000000000005E
:10215000008000C000E000F000F80000000E000F5A
:10216000000F000F000F000F000F00000000000024
:102170000000000C142444FC4424140C0000000053
:10218000000000000000001F00000000002018C731
:1021900044444444FC44444444040000040404070C
:1021A00004040404FF04040404040400000000FE0A
:1021B0002222222222222222FE0000008040300F12
:1021C00002020202020242827F000000000000FEC2
:1021D00082828282828282FE00000000000000FF74
:1021E00040404040404040FF00000000040444C420
:1021F0004F4444C424242FB4240404004044242421
:10220000150C04FE040C1524244440000000F84979
:102210004A4C48F8484C4A49F80000001010131284
:10222000121212FF1212121213101000404042CC70
:102230000000FF4949C949497F8000000040201F34
:1022400020405F48444041424558400000007C40E7
:10225000404040FF40404040FC000000007C4040C7
:102260004040407F4040404040FC0000404042CC65
:102270000000FC24A4242222A36200000040201FAE
:102280002058475048454245485040000000FE0253
:1022900002F2121212F20202FE00000000007F2081
:1022A00020272424242720207F00000004244484A5
:1022B000649C40300FC80808281800001008060168
:1022C000824C20180601061820408000404042CC75
:1022D0000000FC040200FC0404FC00000040201F7D
:1022E00020404F4442407F424443400000080828B9
:1022F000C80808FF08088868080800002121111193
:10230000090503FF03050911112121004262524A08
:10231000C6425262C200F80000FF000040C44444BC
:102320007F24242420000F40807F00001060028C56
:10233000008888FF888800FE2222FE0004047E01B7
:10234000001F0808089F601F42827F0004E42424C5
:1023500064A4243F24A4642424E4040000FF0008AF
:102360000909097F09090948807F00001010D0FF82
:10237000901000FE020202FE00000000040300FFB5
:102380000083601F0000003F404078000000F88894
:10239000888888FF88888888F800000000001F0867
:1023A0000808087F888888889F80F0000202FE92D3
:1023B00092FE0202FC04040404FC000008180F084A
:1023C00004FF0480631901010933C000001060801C
:1023D00000FF000000FF0000C0300000404040430C
:1023E000407F4040407F424140404000101010FF7D
:1023F000109008888888FF88888808000444827FB5
:1024000001808040432C102846818000001010106D
:1024100010D030FF30D0121C101000001008040241
:10242000010000FF00000102040810004030119676
:1024300090909196909098141350300004040404E6
:102440000444847E060504040404040000FE225AA9
:1024500086100C242425262424140C0000FF0408D4
:10246000078041310F01013F414171000484E45C68
:1024700044C42010E82724E4342CE00002017F103B
:10248000103F80601F09093F49897F00100C4444B8
:10249000444445C64444444444140C008040201E37
:1024A0002040407F44444444444040000020108881
:1024B0004424242424242444881020000000000004
:1024C0000002011919010200000000000000008054
:1024D000402020202020204080000000000000003C
:1024E00000020119190102000000000000000000B4
:1024F00000000000000000000000000000000000DC
:102500000002011919010200000000000000000093
:1025100000000000000000000000000000000000BB
:10252000000000181800000000000000000000007B
:10253000000000000000000000000000000000009B
:10254000000000000000000000000000060A122247
:10255000FE22120A06008000E000F80000000000E1
:102560001F0018001E001F001F001F000000406019
:10257000F0F060400000F0F00000000000000000FB
:102580001F1F0000040C1F1F0C0400000000003C73
:10259000549414941494543C000000000000000073
:1025A000001F1013101F00000000000000FE022298
:1025B000DA0620D808090E088828180000FF08103D
:1025C0000807003F444442414078000000F808FFFB
:1025D00008F8003EAA6A3E2AAA3E00002063211F96
:1025E00011394829098DFB09082C5800008060F832
:1025F00007001CE0010600E01E000000010000FFD3
:1026000000804020130C1320408080000000E02058
:102610002020203C04081020408000000000070417
:102620000404043C201008040201000000FE4242A1
:1026300042FE0042A29E82A2C2BE0000806F080835
:1026400028CF00002FC8080828CF000000FC444411
:1026500044FC0000FE22222222FE0000000F04049F
:10266000048F40300F020242827F0000807000FF22
:10267000201004040404FC0404040400806018070F
:102680000830000040807F000000000080828282CD
:10269000FE8282828282FE828282800000804030BE
:1026A0000F0000000000FF000000000000001011FB
:1026B000161010F010101413100000008181414119
:1026C00021110D030D11214141818100404042CC77
:1026D0000040A09E8282829EA02020000000003F39
:1026E000908840432C10284641808000001715D563
:1026F0005557557D555755D5151700004040407F1B
:10270000555555555555557F4040400000FC848433
:1027100084FC001010101010FF101000003F10106B
:10272000103F0000010640807F00000020102CE7D1
:10273000242400F01010FF1010F000000101017FB0
:10274000211100070202FF02020700000000F888C2
:10275000888888FF88888888F800000000001F08A3
:102760000808087F888888889F80F0000000FE02A3
:1027700082828282FA8282828282020080601F408C
:10278000404040407F404044584040001060028C30
:10279000004464544D46445464C4040004047E015F
:1027A00080403E0000FE00007E80E00000E000FF70
:1027B00010200888780F08E808088800010000FF4A
:1027C00000100C834423180718628100201008F7BA
:1027D00054545454545454F40404000080909049C8
:1027E0004D57252525554D458080800000007C40B3
:1027F000404040FF40404040FC000000007C404022
:102800004040407F4040404040FC00000000FE024D
:1028100002020202020202020202020080601F00A3
:102820000000000000000000000000000000223254
:102830002AA6A26221110981010000000042221390
:102840000B42827E02020A12234600002030AC6353
:10285000300088C8A8998E88A8C8880022672212EC
:10286000128040300F00003F4040710000FE2020E9
:102870003F2000FC24E4242223E20000807F0101A9
:10288000FF80601F80412618264180000010101034
:1028900010D030FF30D010101010000010080402CB
:1028A000090808FF08080902040810000404E404E9
:1028B0000FF40404F444CF444444040040407D44F5
:1028C000447D4445447C44457C4040000000C2B205
:1028D0008282828282FE8282828280000020201098
:1028E00008040241807F0000000000001060028C9C
:1028F0000000FE9292929292FE00000004047E017B
:10290000407E42427E427E42427E40000000FC24E5
:102910002424FC252624FC242424040040308F8019
:10292000844C55252525554C80808000004042442C
:102930005840407F40405048C6000000004044449A
:102940004444444444444444FF0000000808E82947
:102950002E28E80808C80C0BE80808000000FF094A
:1029600049897F00000F40807F0000000008300090
:10297000FF20202020FF2020222C20000404020120
:10298000FF8040300E01061820408000000484843F
:102990004424548F142444848404000041390000EA
:1029A0003C4040424C404070040931000004047433
:1029B00054545556545454740404000084834121E3
:1029C0001D05050505057D818185E3000000FC24CA
:1029D0002424FC252624FC242424040040308F8059
:1029E000844C55252525554C808080000000000032
:1029F00000000000002F0000000007000700001486
:102A00007F147F1400242A7F2A1200626408132393
:102A100000364955225000000503000000001C222A
:102A20004100000041221C000014083E0814000868
:102A3000083E0808000000A0600000080808080818
:102A4000000060600000002010080402003E5149B0
:102A5000453E0000427F400000426151494600214E
:102A600041454B31001814127F1000274545453968
:102A7000003C4A49493000017109050300364949C3
:102A8000493600064949291E00003636000000007C
:102A900056360000000814224100001414141414C7
:102AA0000000412214080002015109060032495970
:102AB000513E007C1211127C007F49494936003E8C
:102AC00041414122007F4141221C007F4949494147
:102AD000007F09090901003E4149497A007F080841
:102AE000087F0000417F4100002040413F01007FFE
:102AF00008142241007F40404040007F020C027FCA
:102B0000007F0408107F003E4141413E007F0909DB
:102B10000906003E4151215E007F09192946004601
:102B2000494949310001017F0101003F4040403FD8
:102B3000001F2040201F003F4038403F0063140822
:102B400014630007087008070061514945430000FD
:102B50007F41410000552A552A55000041417F0020
:102B60000004020102040040404040400000010215
:102B70000400002054545478007F484444380038FE
:102B80004444442000384444487F00385454541886
:102B900000087E0901020018A4A4A47C007F080498
:102BA00004780000447D4000004080847D00007F68
:102BB000102844000000417F4000007C0418047885
:102BC000007C0804047800384444443800FC242481
:102BD00024180018242418FC007C08040408004869
:102BE0005454542000043F444020003C4040207C8A
:102BF000001C2040201C003C4030403C0044281079
:102C00002844001CA0A0A07C004464544C4414142C
:102C100014141414FEFF02800280038003800280DB
:102C20000280FEFF000000F80000000000000033FA
:102C30003000000000100C06100C06000000000020
:102C40000000000040C07840C0784000043F040409
:102C50003F040400007088FC08300000001820FFCA
:102C6000211E0000F008F000E018000000211C0305
:102C70001E211E0000F00888700000001E21232481
:102C80001927211010160E0000000000000000009F
:102C900000000000000000E018040200000000072F
:102CA0001820400000020418E00000000040201836
:102CB00007000000404080F0804040000202010F09
:102CC00001020200000000F0000000000101011FED
:102CD00001010100000000000000000080B0700051
:102CE00000000000000000000000000000010101E1
:102CF0000101010100000000000000000030300070
:102D00000000000000000000806018040060180649
:102D10000100000000E010080810E000000F102083
:102D200020100F00001010F8000000000020203FCD
:102D30002020000000700808088870000030282457
:102D400022213000003008888848300000182020F8
:102D500020110E000000C02010F80000000704241D
:102D6000243F240000F80888880808000019212062
:102D700020110E0000E0108888180000000F1120BC
:102D800020110E0000380808C83808000000003F75
:102D9000000000000070880808887000001C2221D4
:102DA00021221C0000E010080810E0000000312281
:102DB00022110F00000000C0C00000000000003021
:102DC0003000000000000080000000000000806073
:102DD00000000000000080402010080000010204F4
:102DE00008102000404040404040400004040404DB
:102DF0000404040000081020408000000020100897
:102E000004020100007048080808F00000000030CB
:102E100036010000C030C828E810E0000718272459
:102E200023140B000000C038E0000000203C230207
:102E30000227382008F8888888700000203F20206A
:102E400020110E00C030080808083800071820209C
:102E50002010080008F808080810E000203F202093
:102E600020100F0008F88888E8081000203F202074
:102E70002320180008F88888E8081000203F200068
:102E800003000000C03008080838000007182020A0
:102E9000221E020008F808000008F808203F21015F
:102EA00001213F20000808F8080800000020203F0A
:102EB0002020000000000808F8080800C08080807A
:102EC0007F00000008F888C028180800203F200173
:102ED0002638200008F8080000000000203F2020CD
:102EE0002020300008F8F800F8F80800203F003FE4
:102EF000003F200008F830C00008F808203F2000FC
:102F000007183F00E01008080810E0000F1020200C
:102F100020100F0008F808080808F000203F2101E1
:102F200001010000E01008080810E0000F18242438
:102F300038504F0008F8888888887000203F2000AB
:102F4000030C302000708808080838000038202161
:102F500021221C00180808F8080818000000203F6B
:102F60002000000008F808000008F808001F2020D2
:102F700020201F000878880000C8380800000738A3
:102F80000E010000F80800F80008F800033C0700F4
:102F9000073C0300081868808068180820302C035C
:102FA000032C30200838C800C83808000000203F33
:102FB0002000000010080808C83808002038262122
:102FC00020201800000000FE020202000000007F26
:102FD00040404000000C30C0000000000000000134
:102FE0000638C00000020202FE000000004040401F
:102FF0007F00000000000402020204000000000044
:1030000000000000000000000000000080808080C0
:1030100080808080000202040000000000000000A8
:103020000000000000008080808000000019242241
:1030300022223F2008F8008080000000003F11207D
:1030400020110E000000008080800000000E112082
:1030500020201100000000808088F800000E112060
:1030600020103F200000808080800000001F22226E
:1030700022221300008080F0888888180020203FDA
:10308000202000000000808080808000006B9494ED
:103090009493600008F8008080800000203F2100A9
:1030A00000203F2000809898000000000020203F72
:1030B00020200000000000809898000000C0808060
:1030C000807F000008F8000080808000203F2402FC
:1030D0002D302000000808F8000000000020203FEC
:1030E000202000008080808080808000203F2000A1
:1030F0003F20003F8080008080800000203F210032
:1031000000203F200000808080800000001F2020E1
:1031100020201F00808000808000000080FFA12010
:1031200020110E000000008080808000000E112021
:1031300020A0FF80808080008080800020203F21B0
:103140002000010000008080808080000033242463
:1031500024241900008080E0808000000000001F0F
:10316000202000008080000000808000001F2020C0
:1031700020103F20808080000080808000010E3081
:103180000806010080800080008080800F300C03E2
:103190000C300F0000808000808080000020312EE5
:1031A0000E312000808080000080808080818E70C1
:1031B0001806010000808080808080000021302C73
:1031C0002221300000000000807C0202000000008C
:1031D000003F404000000000FF0000000000000031
:1031E000FF0000000002027C800000000040403F21
:1031F00000000000000601010202040400000000BB
:103200000000000000F8F8181818181818181818F6
:1032100018F8F80000FFFF000000000000000000A8
:1032200000FFFF0000FFFF000000000000000000A2
:1032300000FFFF00001F1F1818181818181818187A
:10324000181F1F0000000000000000F8F800000038
:103250000000000000000000000000FFFF00000070
:103260000000000000000000000000FFFF00000060
:1032700000000000000000000000001F1F00000010
:103280000000000000181818181818181818181836
:1032900018F8F800008080808080808080808080A6
:1032A00080FFFF0000FFFF01010101010101010199
:1032B00001010100001F1F181818181818181818F5
:1032C00018181800001818181818181818181818AE
:1032D00018F8F80000808080808080808080808066
:1032E00080FFFF0000010101010101010101010155
:1032F00001FFFF00001818181818181818181818C7
:10330000181F1F0000F8F800000000000000000077
:1033100000F8F80000FFFF8080808080808080803F
:1033200080FFFF0000010101010101010101010114
:1033300001FFFF000000000000000000000000008E
:10334000001F1F0000F8F818181818181818181877
:103350001818180000FFFF808080808080808080A7
:1033600080808000000101010101010101010101D2
:1033700001FFFF0000181818181818181818181846
:10338000181F1F0000F8F81818181818181818181F
:103390001818180000FFFF80808080808080808067
:1033A0008080800000FFFF01010101010101010196
:1033B00001FFFF00001F1F181818181818181818F8
:1033C000181F1F000018181818181818181818189F
:1033D00018F8F800000000000000000000000000E5
:1033E00000FFFF00000000000000000000000000DF
:1033F00000FFFF00000000000000000000000000CF
:10340000001F1F0000F8F8181818181818181818B6
:1034100018F8F80000FFFF80808080808080808026
:1034200080FFFF0000FFFF01010101010101010117
:1034300001FFFF00001F1F18181818181818181877
:10344000181F1F0000F8F81818181818181818185E
:1034500018F8F80000FFFF808080808080808080E6
:1034600080FFFF00000101010101010101010101D3
:1034700001FFFF0000181818181818181818181845
:10348000181F1F00000000000000000000000000E6
:103490000000000000000000001F1F1F1F1F000091
:1034A000000000000000000000F0F0F0F0F000006C
:1034B0000000000000000000000101010101000007
:1034C00000000000000000000080C0F83C0C00007C
:1034D00000C0707C5C484040404040404040E0C0FC
:1034E000000000000000100C0603FFFF00000804AD
:1034F000C3613818000000FEFE00001020E3C18008
:1035000000000000000000000080EF070000F2E172
:1035100000000832E2E60607010000800060C18377
:1035200080000000000000040607010000001F1FCB
:10353000101010101010101010101C1F08000003A5
:103540000700000000000000000000FC7C080000F4
:10355000000000202020202020202020A0E070203B
:10356000000000000000020202E27F07020202FAED
:103570007F0200000000000000FCFC03010000804E
:10358000C0800000000000101E272020E0F0FF8710
:10359000800001010101010101FFFF0101010100A2
:1035A00000000000002010100804060301000001C4
:1035B0000307020008081818381F0F000000000059
:1035C00000000000FFFF03FBFBFBFBFBFBFBFBFB27
:1035D000FBFBFBFBFBFBFBFBFBFBFBFBFBFBFBFB3B
:1035E000FB03FFFFFFFF00FFFFFFFFFFFFFF6B0F6E
:1035F000E3F777B3B377F7E30F6BFFFFFFFFFFFF4F
:10360000FF00FFFFFFFF00FFFFFFFFFFFFFFD6F000
:10361000C7EFEECDCDEEEFC7F0D6FFFFFFFFFFFF08
:10362000FF00FFFFFFFFC0DFDFDFDFDFDFDFDFDF08
:10363000DFDFDFDFDFDFDFDFDFDFDFDFDFDFDFDF9A
:10364000DFC0FFFF0000000000000000000080005D
:10365000000000000000000000000000000000006A
:1036600000000000800000000000000000000000DA
:10367000000808181838307070F0F0E0E0E0C0C0C2
:1036800080000000000000000000000000000000BA
:1036900000C0E0F8FCFCFC7C381818180808000092
:1036A000000000000000000000000000000000001A
:1036B000008000000000000000000000000000008A
:1036C000000000000000000000000000000000FFFB
:1036D000FFFFFFFEFEFE02020202020202020202DF
:1036E00002FEFFFFFFFFFFFF0322224040C0C0C0D9
:1036F000C0808080800000000000010303030301FC
:1037000080E0F0380C04000080C0E0E07078FCDE5F
:10371000DF8F8787070706060606060606060606E3
:103720000606060606060606068686C6C6C68787F7
:1037300087070707070606060404000000000000CC
:10374000000000000000000000000000000000FF7A
:10375000FFFFFFFFFFFF000000000000000000006F
:1037600000FFFFFFFFFFFFFF00000000000001015E
:103770000303070F1F1F0F060000C0E0F0F83E1FF5
:1037800007010008040602030101000080F8FFFFA2
:10379000FFFF3F0701010101050D1D39F9F9F1F1A5
:1037A000E1E1C1010101010101FFFFFFFFFFFF0195
:1037B0000101000000000000000000000000000007
:1037C000000000000000000000000000000000FFFA
:1037D000FFFFFFFFFFFF080808080808080808089F
:1037E000087F7F7F7F7F7F3F000040404040C0C018
:1037F000C0C0C0C0E0F0F8FCFEFF3F0F03000002B5
:10380000040404040404040404C4F4FCFFFFFF3FA4
:103810000F070404040404143464E4E4C4C5858577
:103820000404040404040404FCFFFFFFFFFF070476
:10383000040606070707070706060404040000003D
:103840000000000000000000000000000000000375
:103850000301010101010000000000000000000060
:103860000000000000000000000000000000000058
:1038700080E1F9FFFFFFFFFFFF8100000000000073
:10388000000000101010303C3F7F3F3F3F171110E9
:103890001010101010101010101013171717171702
:1038A00013101010101090F0FFFFFFFFFF1F1010FB
:1038B00010101018181C1C181810101020200000D0
:1038C00000000000000000000000000000000000F8
:1038D00000000000000000000000000000000000E8
:1038E00000000000000000000000000000000000D8
:1038F000010303030707070707010000000000009A
:1039000000000000000000000000000000000000B7
:10391000000000020202020202060606060E0E1C4B
:103920001C1C1C1E1E0F0F0F0F07030100000000C0
:103930000000000000000000000000000000000087
:103940000000000000000000000000000000000077
:103950000000000000000000000000000000000067
:103960000000000000000000000000000000000057
:103C400000000000FF01010101010101010101016A
:103C50000101010101010101010101010101010154
:103C60000101010101010101010101010101010144
:103C70000101010101010101010101010101010134
:103C80000101010101010101010101010101010124
:103C90000101010101010101010101010101010114
:103CA0000101010101010101010101010101010104
:103CB00001010101010101010101010101010101F4
:103CC0000101FF00FF0000000000000000000000F4
:103CD00000000000000000000000000000000000E4
:103CE00000000000000000000000000000000000D4
:103CF00000000000000000000000000000000000C4
:103D000000000000000000000000000000000000B3
:103D100000000000000000000000000000000000A3
:103D20000000000000000000000000000000000093
:103D30000000000000000000000000000000000083
:103D40000000FF00FF000000000000000000000075
:103D50000000000000000000000000000000000063
:103D60000000000000000000000000000000000053
:103D70000000000000000000000000000000000043
:103D80000000000000000000000000000000000033
:103D90000000000000000000000000000000000023
:103DA0000000000000000000000000000000000013
:103DB0000000000000000000000000000000000003
:103DC0000000FF00FF0000000000000000000000F5
:103DD00000000000000000000000000000000000E3
:103DE00000000000000000000000000000000000D3
:103DF00000000000000000000000000000000000C3
:103E000000000000000000000000000000000000B2
:103E100000000000000000000000000000000000A2
:103E20000000000000000000000000000000000092
:103E30000000000000000000000000000000000082
:103E40000000FF00FF000000000000000000000074
:103E50000000000000000000000000000000000062
:103E60000000000000000000000000000000000052
:103E70000000000000000000000000000000000042
:103E80000000000000000000000000000000000032
:103E90000000000000000000000000000000000022
:103EA0000000000000000000000000000000000012
:103EB0000000000000000000000000000000000002
:103EC0000000FF00FF808080808080808080808074
:103ED00080808080808080808080808080808080E2
:103EE00080808080808080808080808080808080D2
:103EF00080808080808080808080808080808080C2
:103F000080808080808080808080808080808080B1
:103F100080808080808080808080808080808080A1
:103F20008080808080808080808080808080808091
:103F30008080808080808080808080808080808081
:103F40008080FF00FF8181FFFFFFFFFFFFFFFFFF7A
:103F5000FFFFFFFFFFFFFFFFFFFFFFFFFFFFFFFF71
:103F6000FFFFFFFFFFFFFFFFFFFFFFFFFFFFFFFF61
:103F7000FFFFFFFFFFFFFFFFFFFFFFFFFFFFFFFF51
:103F8000FFFFFFFFFFFFFFFFFFFFFFFFFFFFFFFF41
:103F9000FFFFFFFFFFFFFFFFFFFFFFFFFFFFFFFF31
:103FA000FFFFFFFFFFFFFFFFFFFFFFFFFFFFFFFF21
:103FB000FFFFFFFFFFFFFFFFFFFFFFFFFFFFFF818F
:103FC00081FFFFC0C0C0C0C0C0C0C0C0C0C0C0C0B2
:103FD000C0C0C0C0C0C0C0C0C0C0C0C0C0C0C0C0E1
:103FE000C0C0C0C0C0C0C0C0C0C0C0C0C0C0C0C0D1
:103FF000C0C0C0C0C0C0C0C0C0C0C0C0C0C0C0C0C1
:10400000C0C0C0C0C0C0C0C0C0C0C0C0C0C0C0C0B0
:10401000C0C0C0C0C0C0C0C0C0C0C0C0C0C0C0C0A0
:10402000C0C0C0C0C0C0C0C0C0C0C0C0C0C0C0C090
:10403000C0C0C0C0C0C0C0C0C0C0C0C0C0C0C0FF41
:104040000000000000000000000000000000000070
:104050000000000000000000000000000000000060
:104060000000000000000000000000000000000050
:104070000000000000000000000000000000000040
:104080000000000000000000000000000000000030
:104090000000000000000000000000000000000020
:1040A0000000000000000000000000000000000010
:1040B0000000000000000000000000000000000000
:1040C00000000000000000000000000000000000F0
:1040D00000000000000000000000000000000000E0
:1040E00000000000000000000000000000000000D0
:1040F00000000000000000000000000000000000C0
:1041000000000000000000000000000000000000AF
:10411000000000000000000000000000000000009F
:10412000000000000000000000000000000000008F
:10413000000000000000000000000000000000007F
:10414000000000000000000000000000000000006F
:10415000000000000000000000000000000000005F
:10416000000000000000000000000000000000004F
:10417000000000000000000000000000000000003F
:10418000000000000000000000000000000000002F
:10419000000000000000000000000000000000001F
:1041A000000000000000000000000000000000000F
:1041B00000000000000000000000000000000000FF
:1041C00000000000000000000000000000000000EF
:1041D00000000000000000000000000000000000DF
:1041E00000000000000000000000000000000000CF
:1041F00000000000000000000000000000000000BF
:1042000000000000000000000000000000000000AE
:10421000000000000000000000000000000000009E
:10422000000000000000000000000000000000008E
:10423000000000000000000000000000000000007E
:1042400000000080808080808080808000000000EE
:10425000000000000000000000000000000000005E
:1042600000000000000000000000008080808080CE
:1042700080000000000000000000000000000000BE
:1042800000000000000000808080808080808080AE
:10429000800000000000000080808080808000009E
:1042A000000000000080808080808080808080000E
:1042B00000000000808000000000000000000000FE
:1042C00000000000000000000000000000000000EE
:1042D00000000000000000000000000000000000DE
:1042E00000000000000000000000000000000000CE
:1042F00000000000000000000000000000000000BE
:1043000000000000000000000000000000000000AD
:10431000000000000000000000000000000000009D
:10432000000000000000000000000000000000008D
:104330000000000354430008000000208008000033
:1043400028010008304600088008002028070000E7
:104350008401000811100A03050911FF118905C322
:1043600012E012F072F8073D4428FF11AA44700BC6
:10437000830138448292927401831E7C44C7017D7C
:1043800001990562FF9A0102818A010B0136694198
:104390009949FA0101A12A4001212A6D01212A60CF
:1043A00001791501642ADB010915072ADA01212A9E
:1043B000D801212AC0010915072A800101352A06E2
:1043C000010918071CE66620076A86157A861C2AEA
:1043D0008601180A80808686068686C0C00C0E1C60
:1043E0000606D030764D2907013113601C12FE13EA
:1043F00001021009C41820029E63B20E1DFF8181C4
:10440000FFF24440300F12FF180923EAAABFAAEABC
:10441000033F0B012DBC808080080115240E0C0881
:104420002A01013149041D81808081021901B917D7
:1044300006110101090C0E0A14C0012178081E2181
:10444000404050215E08012A4DFFFFC1C1040923ED
:104450002D08152280FCF3EFF3FC80FF80EEEEEEDA
:10446000F5FBFF9CBEB6B6883A91101880C0C060BC
:1044700060B0B0D0D8F8ECFCECDEDA7BFFFDBDFE1E
:10448000DEF8E000184DC0F8FEBDFD7FFBFAF6B681
:10449000ECECE8D8D8B0B06060C0C080803819E0DB
:1044A000789FF770C0E080C1C71F1B1F0F0D87C624
:1044B000E7E3F3713119180100194619193B333339
:1044C0006767CF8D8F1B1F3F0FC1C060E0B0F3EF58
:1044D0001EF0C0181480E03CCFF33ECFD99FF77C8C
:1044E0000F03C0F0F8FCFEFF014201873078FCFCAE
:1044F0007C780813400103070E38F0C0071FBDDFAA
:10450000BEF3DF7CF79EF882180CF0FE070D0F1744
:104510001D0FBBBE0F72297949012809FEFCF8F076
:10452000E0E0E0C001B3808014FFFF40000D3E03D7
:104530000FBDB71E1B0F0E031FF8E0100E01073F43
:10454000F2CE7FF7FEFBCF7EF0C08B0F7F8129017B
:104550005D7F3F3F3F8E52F01580F07F0F000D438F
:104560006078DFF77DCFFB3EEE781F036814071FEE
:10457000F9CF3EF7DFF9EF3E78608183070F1F3FE9
:104580007F873CFEFCFE08001749BFDF67703018CC
:104590000C070301707CDFF3BEEFFB9EE53C0F01CF
:1045A000083348030F3D316060C0F8BEBF7F7BFF1A
:1045B000FEFEACECF8D8F9F1B1E161630363E1F11F
:1045C000B1F1F978608CBCFEDEFF7F6FBFB4C0E054
:1045D0006061391E077CB108222B0101010302062C
:1045E000060D0D0B1B1F373F3F61606060633F3757
:1045F000161F1B0F0D0507060303017623E2073282
:1046000004320C320DB20A2A026E315A21082928CE
:10461000091B9A417BA24A27780901020304060775
:1046200008091C892A191A691E25020406080000B7
:04000005080000ED02
:00000001FF
