:020000040800F2
:1000000020100020050100087B080008AB03000851
:100010007908000845020008B50D0008000000003E
:100020000000000000000000000000007D0B000840
:10003000C5020008000000007D080008750C0008DB
:100040001F0100081F0100081F0100081F01000810
:100050001F0100081F0100081F0100081F01000800
:100060001F0100081F0100081F0100081F010008F0
:100070001F0100081F0100081F0100081F010008E0
:100080001F0100081F0100081F0100081F010008D0
:100090001F0100081F0100081F0100081F010008C0
:1000A0001F0100081F0100081F0100081F010008B0
:1000B0001F0100081F0100081F0100081F010008A0
:1000C0001F0100081F0100081F0100081F01000890
:1000D0001F0100081F0100081F0100081F01000880
:1000E0001F0100081F0100081F010008DFF810D0E1
:1000F00000F04CF80048004731220008AFF30080C0
:10010000201000200648804706480047FEE7FEE72B
:10011000FEE7FEE7FEE7FEE7FEE7FEE7FEE7FEE7B7
:10012000790C0008ED0000082DE9F05F054600207D
:1001300092469B4688460646814640241BE0284658
:1001400041464746224600F042F853465A46C01AF6
:10015000914110D311461846224600F029F82D1A75
:1001600067EB01084F4622460120002100F020F8ED
:1001700017EB00094E41201EA4F10104DFDC4846C4
:1001800031462A464346BDE8F09F0000064C074D25
:1001900006E0E06840F0010394E807009847103457
:1001A000AC42F6D3FFF7A6FFEC2200080C230008B0
:1001B000202A04DB203A00FA02F100207047914027
:1001C000C2F1200320FA03F3194390407047202A1C
:1001D00004DB203A21FA02F00021704721FA02F3F1
:1001E000D040C2F12002914008431946704770B5D3
:1001F0008C1810F8015B15F0070301D110F8013BD2
:100200002A1106D110F8012B03E010F8016B01F858
:10021000016B5B1EF9D12B0705D40023521E0DD4B0
:1002200001F8013BFAE710F8013BCB1A921C03E0FE
:1002300013F8015B01F8015B521EF9D5A142D8D336
:10024000002070BDFEE7000038B50121042000F059
:1002500017FB2020ADF8000010208DF803000120CE
:10026000084C8DF802006946204600F03DF8202138
:10027000204600F096F804A000F09EFD07A000F0D4
:100280009BFD38BD00080140444854313120C5E48D
:10029000D6C3CDEAA3A1A3A1000000000A0A000072
:1002A00008B52020ADF8000010208DF803000120D3
:1002B0008DF802006946024800F016F808BD0000FB
:1002C00000080140704701B581B000214FF47A72F7
:1002D00005E000910098401C00909042FAD30198EC
:1002E000431E0193F5D20CBDF0B5CA78002502F08B
:1002F0000F03D20601D58A7813430A784FF00F0E08
:1003000012F0FF0F4FF001021CD004680F8802FAB0
:1003100005F63740B74211D14FEA850C0EFA0CF7BB
:1003200024EA070703FA0CF43C43CF78282F02D0C5
:10033000482F02D002E0466100E006616D1C082DE6
:10034000E4D304600C88FF2C1ED944685FF00006DB
:1003500006F1080702FA07F50F882F40AF420FD1C8
:100360004FEA860C0EFA0CF7BC4303FA0CF73C4339
:10037000CF78282F00D14561CF78482F00D1056173
:10038000761C082EE4D34460F0BD806880B27047CC
:100390000246002092680A4200D001207047416165
:1003A000704701617047C1607047FEE738B5FF20B4
:1003B000ADF8000003248DF8024004258DF80350A9
:1003C00069460848FFF790FF4FF47F40ADF8000002
:1003D0008DF802408DF8035069460348FFF784FF0B
:1003E00038BD000000100140000C014038B5FF206E
:1003F000ADF8000003248DF8024010258DF803505D
:1004000069460848FFF770FF4FF47F40ADF80000E1
:100410008DF802408DF8035069460348FFF764FFEA
:1004200038BD000000100140000C01402DE9F74FDD
:1004300082B03021C0B2CDE9000100264FF0180B88
:10044000039901F08DFEB246DFF8888000F08CF948
:100450005C464FF0800901E0082C02D308270025F4
:1004600002E0274600251BE00498815D29FA05F08B
:10047000014240460DD1017869B10398ABEB04010C
:100480000844401C81B2009801F06AFE00F06CF94B
:1004900004E0408800E0808800F032F9641E6D1CA2
:1004A000BD42E1D3761C002CD6D14FF400710A482E
:1004B000FFF777FF00980399401CC0B2009001F04D
:1004C0004FFE01990AF1010A8A45BFD305B0BDE884
:1004D000F08F000000000020001001402DE9F74FD0
:1004E00082B04FF0300BC0B2CDE9000B002603996B
:1004F00001F036FEDFF88C80B24600BF00F034F920
:100500005C464FF0800901E0082C02D30827002543
:1005100002E0274600251BE00498815D29FA05F0DA
:10052000014240460DD1017869B10398ABEB04015B
:100530000844401C81B2009801F012FE00F014F94A
:1005400004E0408800E0808800F0DAF8641E6D1C4A
:10055000BD42E1D3761C002CD6D14FF400710A487D
:10056000FFF71FFF00980399401CC0B2009001F0F4
:10057000F7FD01990AF1010A8A45BFD305B0BDE82C
:10058000F08F00000000002000100140F8B50121AC
:10059000182000F075F9FF20ADF8000003241F4E6D
:1005A0008DF8024010258DF8035069463046FFF75C
:1005B0009BFE4FF47F40ADF800008DF802408DF8AF
:1005C000035069461648FFF78FFE2802ADF8000079
:1005D00069463046FFF788FEA801ADF8000069467D
:1005E0003046FFF781FE6C01ADF8004069463046A9
:1005F000FFF77AFE6010ADF8000069463046FFF75D
:1006000073FEA000ADF8000069463046FFF76CFEAF
:1006100021463046FFF7C5FEF8BD0000001001403E
:10062000000C01402DE9F041214D04464FF40076C5
:1006300031462846FFF7B3FEAF1539462846FFF787
:10064000AEFE4FF4806841462846FFF7A8FEE868F2
:1006500000F47F4121432846FFF7A5FE15480068B6
:10066000144CC1B20C3C2046FFF79DFE4146284683
:10067000FFF797FE39462846FFF793FEE714394601
:100680002846FFF78CFE39462846FFF78AFE2046AB
:10069000FFF77BFE00F47F442846FFF776FEC0B2EA
:1006A000044331462846FFF77CFE2046BDE8F08132
:1006B000001001400C0C014070B50F4D4FF48071DB
:1006C0002846FFF76EFEEC1421462846FFF767FE2A
:1006D00021462846FFF765FE0848FFF756FE00F45E
:1006E0007F442846FFF751FEC0B2044369152846EF
:1006F000FFF757FE204670BD00100140000C01407E
:100700002DE9F041164D04464FF400763146284657
:10071000FFF745FEA9152846FFF743FE2F1539467A
:100720002846FFF73CFEE86800F47F41E0B2014351
:100730002846FFF738FE0B480068C1B204F47F403A
:10074000014308480C38FFF72EFE39462846FFF7CC
:1007500028FE31462846BDE8F041FFF722BE0000E2
:10076000001001400C0C014070B5144C4FF40075A2
:1007700029462046FFF713FEA1152046FFF70FFE7E
:10078000261531462046FFF70AFEE06800F47F4058
:1007900040F022012046FFF706FE09480068C1B27A
:1007A00007480C38FFF7FFFD31462046FFF7F9FDFB
:1007B00029462046BDE87040FFF7F3BD0010014018
:1007C0000C0C01402DE9F047294C0D4606464FF42C
:1007D00080512046FFF7E5FD4FF400784146204662
:1007E000FFF7DDFD4FF4807949462046FFF7D7FD3E
:1007F0004FF4806A51462046FFF7D1FDE06800F4CF
:100800007F41F0B201432046FFF7CDFD194F386814
:10081000C1B206F47F40174E01430C3E3046FFF74D
:10082000C2FD51462046FFF7BCFD49462046FFF772
:10083000B8FD51462046FFF7B2FDE06800F47F4165
:10084000E8B201432046FFF7AEFD3868C1B205F4B7
:100850007F4001433046FFF7A6FD51462046FFF793
:10086000A0FD41462046BDE8F047FFF79ABD0000D5
:10087000001001400C0C0140FEE77047704700007B
:10088000044A0029916901D0014300E0814391614C
:10089000704700000010024030B51F494A6812F04E
:1008A0000C031E4A03D0042B01D0082B21D0026078
:1008B0004A680F231A4C03EA1212A35C0268DA405A
:1008C00042604B68072505EA1323E35C22FA03F331
:1008D00083604B6805EAD323E35CDA40C260496871
:1008E000032303EA9131231F595CB2FBF1F101614B
:1008F00030BD4A684B6802F470124FF0020413F4E2
:10090000803F04EB924202D04B689B0301D5054B1C
:1009100000E0024B5A43CAE70010024000127A007E
:10092000F80B002000093D002DE9F0410025154E8F
:100930002C46012720213046FFF72AFD0028F9D058
:10094000282000F08DF920213046FFF721FD0128F5
:100950000BD0C4F1070007FA00F08543641CE4B231
:10096000082CE7D32846BDE8F08120213046FFF768
:100970000FFD0128F9D0C4F1070007FA00F0C0B25A
:100980000543EBE700080140F8B50446FFF788FC93
:100990003E4D20212846FFF704FD3D4800F060F958
:1009A00020212846FFF7FBFC4FF4FA6000F058F9CD
:1009B00020212846FFF7F5FC1E2000F051F92020E9
:1009C000ADF8000004208DF8030069462846FFF7C3
:1009D0008BFC0A2000F044F920212846FFF7D8FCC0
:1009E000002851D12B4F00263E8020212846FFF7BA
:1009F000CFFC0028F9D03E8020212846FFF7C8FC14
:100A00000128F9D0FFF790FF2070FFF78DFF60708D
:100A1000FFF78AFFA070FFF787FFE070FFF784FF02
:100A20002071012000F013FCFFF73AFC202128463A
:100A3000FFF7B7FC20786178A278E3784518D618DC
:100A40003544EDB265712679AE421DD14FF6FF7582
:100A500005EA002008434FF47A76711E2081B042E7
:100A600000D3218105EA02201843E080B04200D380
:100A7000E18021890A20B1FBF0F1A181E188B1FB7D
:100A8000F0F060810120F8BD0020F8BD00080140B1
:100A900020A10700DC0B002038B50E48FFF774FFDB
:100AA000012816D10B4CE0780090A3786278217869
:100AB000094800F081F9E0780090A3786278217805
:100AC00006A000F079F9A1896089BDE8384000F0FE
:100AD000C7BB38BD0C0C0020942200080D0AB6C11B
:100AE000C8A14448543131B3C9B9A6210D0A0D0A31
:100AF000CAAAB6C8CEAA25642E256420A3A552484A
:100B000020A3ACCEC2B6C8CEAA2025642E2564A1EF
:100B1000E6200D0A0000000038B50446012105203A
:100B2000FFF7AEFE01218803FFF7AAFE18208DF81B
:100B300003004FF40070ADF8000003200D4D8DF858
:100B4000020069462846FFF7CFFB04208DF803001A
:100B50000002ADF8000069462846FFF7C5FB2146B4
:100B6000054C204600F0CCF80121204600F0B6F8F4
:100B700038BD000000080140003801407047000007
:100B80000B490968B1FBF0F0B0F1807F0ED220F084
:100B90007F414FF0E020491E4161064AF02182F872
:100BA000141D00218161072101617047FEE70000EB
:100BB000E00B00200FE000E00CB500212648019179
:100BC0000091026842F4803202604FF4A063026830
:100BD00002F400320092019A521C0192009A12B95A
:100BE000019A9A42F3D10268920333D50121009110
:100BF0001A490A6842F010020A600A6822F00302E9
:100C00000A600A6842F002020A6041684160416875
:100C10004160416841F480614160416821F47C1188
:100C20004160416841F4E8114160016841F0807120
:100C3000016001688901FCD5416821F00301416030
:100C4000416841F0020141604168C1F3810102291C
:100C5000FAD10CBD00910CBD0010024000200240F2
:100C600001B503480099016001680029FCD108BD65
:100C7000D80B002000F028B80F4810B5016841F0EB
:100C80000101016041680D4A1140416001680C4A50
:100C900011400160016821F480210160416821F464
:100CA000FE0141604FF41F018160FFF785FF054998
:100CB0004FF00060086010BD001002400000FFF817
:100CC000FFFFF6FE08ED00E003480168002902D0AE
:100CD0000168491E01607047D80B002000298189F6
:100CE00002D041F4005101E021F4005181817047AC
:100CF0000246002012880A4200D0012070470000FE
:100D000030B50446008A85B00D464CF6FF710840A8
:100D1000E98801432182A1894EF6F3100140A88899
:100D20002A8910436A890A431043A081A08A4FF69A
:100D3000FF410840A9890143A1826846FFF7ACFD45
:100D40001948844201D1039800E00298A18909045E
:100D500000EBC00101EB0010296801D5490000E05B
:100D60008900B0FBF1F06422B0FBF2F109010B093C
:100D70006FF018056B4300EB8300A3891D044FF04F
:100D8000320306D503EBC000B0FBF2F000F0070021
:100D900005E003EB0010B0FBF2F000F00F00084399
:100DA000208105B030BD000000380140C1F30801CA
:100DB00081807047FEE700000FB4054B10B503A912
:100DC000044A029800F018F810BC5DF814FB00000B
:100DD000B5120008080C002002E008C8121F08C164
:100DE000002AFAD170477047002001E001C1121FAC
:100DF000002AFBD1704700002DE9FF4F8DB00F4650
:100E00000546002606E025280BD0DDE90F129047A5
:100E10006D1C761C28780028F5D111B03046BDE84D
:100E2000F08F0024A246A1460122E94900E00443D4
:100E300015F8013F203B02FA03F00842F7D1287869
:100E40002A2810D06FF02F022878A0F1300109294C
:100E500014D80AEB8A0102EB410144F0020400EBD2
:100E6000010A6D1CF0E701CF5FEA000A03D544F4E4
:100E70000054CAF1000A44F002046D1C28782E28A0
:100E800017D115F8010F44F004042A280ED06FF092
:100E90002F022878A0F1300109290AD809EB89012D
:100EA00002EB410100EB01096D1CF2E757F8049BCE
:100EB0006D1C28786C280FD006DC4C2817D06828C9
:100EC0000DD06A2814D104E0742810D07A280FD1EC
:100ED0000DE044F400140AE044F4801401E044F40A
:100EE00040146978814202D104F580146D1C6D1C98
:100EF00028786E281ED00CDC632830D004DC002853
:100F00008BD0582811D19FE0642867D069280CD174
:100F100064E073282DD004DC6F2872D0702804D1CF
:100F200094E075286ED078286DD0DDE90F129047D7
:100F3000761C4BE1C4F30250022806D0032809D0E6
:100F4000042801CF09D0066040E101CFF117C0E9C4
:100F500000613BE101CF068038E1067036E117F809
:100F6000040B8DF8000000208DF80100EB460120F5
:100F700003E057F804BB4FF0FF3061074FF000016A
:100F800002D40DE008F10101884649450FDA804599
:100F9000F8DB1BF808100029F4D108E008F1010182
:100FA00088468142FADB1BF808100029F6D1DDE9FA
:100FB0000F23AAEB08008146214600F031F93044A6
:100FC00000EB080604E0DDE90F121BF8010B904767
:100FD000B8F10108F7D221464846F2E00A21C4F3ED
:100FE00002524FF0000B0891022A04D001CFC11722
:100FF000032A09D00AE0FF1D27F00707F7E80201DE
:1010000008E02CE01EE01FE000B2C117042A01D165
:1010100040B2C117021E71F1000206DA0023D0EBC4
:10102000030063EB01012D2202E0220504D52B22EF
:101030008DF82420012203E0E20701D02022F7E707
:10104000904653E00A210BE0102109E010214FF0F7
:10105000000B44F004044FF00809089103E0082154
:101060004FF0000B0891C4F30252022A04D001CFC2
:101070000021032A06D006E0FF1D27F00707F7E846
:10108000020103E080B2042A00D1C0B24FF0000890
:1010900022072BD52A78702A07D0DDF820C08CF0E3
:1010A000100C5CEA0B0C05D00EE040228DF82420D9
:1010B000012208E050EA010306D030238DF82430E5
:1010C0008DF8252002229046089B83F0080353EAFE
:1010D0000B030BD150EA010201D1620706D5302281
:1010E0008DF824204FF00108A9F101092A78582A27
:1010F00004D038A20B9208AA0A920BE03AA2F9E7B0
:101100005B46089AFFF710F80B9B9B5C0A9A521EED
:101110000A92137050EA0102F2D10A98ADEB000076
:1011200000F1200B600702D524F4803401E04FF079
:101130000109D94502DDA9EB0B0000E0002000EB1E
:101140000B0141440890AAEB010AE00306D4DDE953
:101150000F232146504600F063F806444FF0000983
:1011600008E009A911F80900DDE90F12904709F11B
:101170000109761CC145F4DBE0030CD5DDE90F2342
:101180002146504600F04CF8064404E0DDE90F1219
:1011900030209047761C0899481E08900029F5DCFD
:1011A00008E00A980A990078491C0A91DDE90F12B3
:1011B0009047761CBBF10001ABF1010BF1DC21463D
:1011C0005046DDE90F2300F019F806446D1C21E6B6
:1011D000092801003031323334353637383961620D
:1011E00063646566000000003031323334353637D1
:1011F0003839414243444546000000002DE9F041A2
:10120000044600251E461746880404D405E03946E6
:101210002020B0476D1C641EF9D52846BDE8F0813A
:101220002DE9F041044600251E469046C80301D52D
:10123000302700E02027880404D505E041463846E1
:10124000B0476D1C641EF9D52846BDE8F081002822
:1012500005D02A21491E0029FCDC401EF9D1704727
:1012600010B50C460146002000F006F82146BDE806
:1012700010403020AFF300800A2270B5064691FB83
:10128000F2F391FBF2F002FB1314094D00EBC000E6
:1012900005EB001277213046FFF7C8F804EBC400D5
:1012A00005EB00123046BDE870405F21FFF7BEB885
:1012B0000800002070B5074D0446C1B22846FFF76C
:1012C00075FD40212846FFF713FD0028F9D0204680
:1012D00070BD0000003801402DE9F05F0025064692
:1012E0002946284600F03CFFFFF73EFA1B4C4FF41E
:1012F00000712046FFF753F8A1152046FFF751F87B
:10130000DFF85CB0F7B2DFF858904FF4806806F46D
:101310007F46ABF10C0B4FF4963A41462046FFF75F
:101320003EF8E06800F47F4139432046FFF73BF880
:10133000D9F80000C1B231435846FFF734F84146AE
:101340002046FFF72EF86D1C5545E6D32046BDE834
:10135000F05F4FF40071FFF724B800000010014067
:101360000C0C01402DE9F84FFFF710F90520FEF7AE
:10137000AAFF01210020FFF725FA0520FEF7A3FFB1
:10138000FFF714F80120FEF79EFF0020FFF74AF94F
:10139000DD4D0146E880DDA0FFF70EFD0020FFF7E0
:1013A00041F90146E7A0FFF707FDFFF785F9014680
:1013B000F3A0FFF701FDFFF719F80120FEF783FF07
:1013C000E88848F68917B84202D1FCA0FFF7F4FC80
:1013D000E88849F22538404502D1FEA0FFF7ECFC31
:1013E000E8884FF4E06AA0F5A8414FF4887B0839FB
:1013F0007DD10846FFF7E6F94FF480710120FFF731
:10140000E1F951460220FFF7DDF94FF48151032045
:10141000FFF7D8F900210420FFF7D4F940F20221A8
:101420000820FFF7CFF900210920FFF7CBF90021B1
:101430000A20FFF7C7F900210C20FFF7C3F90021AC
:101440000D20FFF7BFF900210F20FFF7BBF90021A6
:101450000720FFF7B7F941F2B0211020FFF7B2F9EA
:1014600007211120FFF7AEF940F2BB111220FFF760
:10147000A9F94FF4E0511320FFF7A4F90121172037
:10148000FFF7A0F909212920FFF79CF909212A205B
:10149000FFF798F90021A420FFF794F900215020CC
:1014A000FFF790F9EF215120FFF78CF9002152202E
:1014B000FFF788F940F23F115320FFF783F94FF40B
:1014C0001C516020FFF77EF901216120FFF77AF9B6
:1014D00000216A20FFF776F900218020FFF772F9DA
:1014E00000218120FFF76EF90021822000E032E028
:1014F000FFF768F900218320FFF764F900218420B9
:10150000FFF760F900218520FFF75CF9102190209A
:10151000FFF758F900219220FFF754F90321932097
:10152000FFF750F959469520FFF74CF90021972015
:10153000FFF748F900219820FFF744F940F27311B2
:101540000720FFF73FF900212020FFF73BF900219A
:101550002120FFF737F9E98840F2077649F2283968
:101560004CF25034414501D049457CD143F2080149
:10157000E320FFF727F91221E720FFF723F941F2D3
:101580003121EF20FFF71EF901210020FFF71AF9A2
:101590004FF480710120FFF715F951460220FFF743
:1015A00011F94FF480510320FFF70CF900210420BA
:1015B000FFF708F940F207210820FFF703F900219F
:1015C0000920FFF7FFF800210A20FFF7FBF80121AF
:1015D0000C20FFF7F7F800210D20FFF7F3F80021AA
:1015E0000F20FFF7EFF800211020FFF7EBF807219D
:1015F0001120FFF7E7F800211220FFF7E3F80021A0
:101600001320FFF7DFF82046401E0004000CFBD13A
:101610002046401E0004000CFBD141F290511020E6
:10162000FFF7D0F840F227211120FFF7CBF8204632
:10163000401E0004000CFBD12046401E0004000C9C
:10164000FBD19C211220FFF7BDF827467F1E3F04E7
:101650003F0CFBD12046401E0004000CFBD14FF490
:10166000C851132000E02BE1FFF7ACF8232129201B
:10167000FFF7A8F80E212B20FFF7A4F82046401E04
:101680000004000CFBD12046401E0004000CFBD1DE
:1016900000212020FFF796F800212120FFF792F883
:1016A0002046401E0004000CFBD12046401E0004D2
:1016B000000CFBD107213020FFF784F831463120A0
:1016C000FFF780F806213220FFF77CF840F2047122
:1016D0003520FFF777F841F604713620FFF772F8EE
:1016E00004213720FFF76EF800213820FFF76AF851
:1016F00040F206713920FFF765F840F201713C2095
:10170000FFF760F80F2171E0000000200A0D202390
:101710002323232323207777772E61726D6A6973E1
:1017200068752E636F6D204465766963654964430F
:101730006F6465203D2030782578202323232323E0
:10174000232000000A0D2023232323232320446584
:10175000766963654964436F6465203D204C43446A
:101760005F526561645265672830783030303029C7
:10177000203D203078257820232323232323200095
:101780000A0D2023232323232320446576696365E0
:101790004964436F6465203D204C43445F5265615A
:1017A000645374612830783030303029203D203047
:1017B0007825782023232323232320000A0D205477
:1017C000686973204C434420697320535344313279
:1017D000383920000A0D2054686973204C43442096
:1017E000697320696C693933323520003D20FEF77A
:1017F000E9FF27467F1E3F043F0CFBD1641E2404F3
:10180000240CFBD100215020FEF7DCFFEF215120FA
:10181000FEF7D8FF00215220FEF7D4FF40F23F111F
:101820005320FEF7CFFF4FF427416020FEF7CAFF99
:1018300001216120FEF7C6FF00216A20FEF7C2FFEA
:1018400000218020FEF7BEFF00218120FEF7BAFFB5
:1018500000218220FEF7B6FF00218320FEF7B2FFB1
:1018600000218420FEF7AEFF00218520FEF7AAFFAD
:1018700010219020FEF7A6FF4FF4C0619220FEF7E2
:10188000A1FFE98849450FD103219320FEF79AFF74
:1018900059469520FEF796FF00219720FEF792FF0C
:1018A00000219820FEF78EFF40F233110720FEF74B
:1018B00089FF00212020FEF785FF00212120D4E0B0
:1018C000A1F5134020387DD0B1F5134FFBD0A1F521
:1018D000134041F2300B4FF400684FF4017431387B
:1018E00071D0A1F519404FF4407919386CD0A1F5A9
:1018F000A850053869D0B94268D101210020FEF70F
:1019000061FF4AF6A4010320FEF75CFF00210C20D2
:10191000FEF758FF40F60C010D20FEF753FF4FF481
:101920002C510E20FEF74EFFB0211E20FEF74AFF7D
:1019300042F63F110120FEF745FF4FF4C06102203F
:10194000FEF740FF00211020FEF73CFF46F2780131
:101950001120FEF737FF00210520FEF733FF00219D
:101960000620FEF72FFF4EF61C711620FEF72AFF09
:1019700003211720FEF726FF40F233210720FEF750
:1019800021FF00210B20FEF71DFF00210F20FEF795
:1019900019FF00214120FEF715FF00214220FEF72C
:1019A00011FF00214820FEF70DFF40F23F152946A8
:1019B0004920FEF707FF00214A20FEF703FF002120
:1019C0004B2004E047E153E0FFE184E2A6E3FEF7A9
:1019D000F9FE4FF46F414420FEF7F4FE002145204C
:1019E000FEF7F0FE29464620FEF7ECFE3146302099
:1019F000FEF7E8FE21463120FEF7E4FE21463220C4
:101A0000FEF7E0FE40F2025529463320FEF7DAFEEB
:101A1000691D3420FEF7D6FE21463520FEF7D2FEA2
:101A200021463620FEF7CEFE29463720FEF7CAFEB5
:101A300040F2023421463A20FEF7C4FE21463B2004
:101A4000FEF7C0FE00212320FEF7BCFE002124206B
:101A5000FEF7B8FE4FF440412520FEF7B3FE00210B
:101A60004E20FEF7AFFE00214F20FEF7ABFE58E3FD
:101A700041F21401E720FEF7A5FE4FF4807101202A
:101A8000FEF7A0FE4FF400710220FEF79BFE5946C0
:101A90000320FEF797FE40F202210820FEF792FE97
:101AA00000210920FEF78EFE00210A20FEF78AFEA3
:101AB00000210C20FEF786FE00210D20FEF782FE9D
:101AC00000210F20FEF77EFE00211020FEF77AFE97
:101AD00007211120FEF776FE00211220FEF772FE8C
:101AE00000211320FEF76EFEC8200090FEF7EBFBEE
:101AF00041F290611020FEF765FE40F2272111208F
:101B0000FEF760FE322528460095FEF7DCFB0C212F
:101B10001220FEF757FE28460095FEF7D4FB4146FB
:101B20001320FEF74FFE11212920FEF74BFE0B215B
:101B30002B20FEF747FE28460095FEF7C4FB002148
:101B40002020FEF73FFE00212120FEF73BFE002172
:101B50003020FEF737FE4FF4837739463120FEF709
:101B600031FE00213220FEF72DFE21463520FEF702
:101B700029FE41F20A613620FEF724FE3146372065
:101B8000FEF720FE39463820FEF71CFE314639208C
:101B9000FEF718FE40F202413C20FEF713FE40F62D
:101BA0000F413D20FEF70EFE00215020FEF70AFEF9
:101BB000EF215120FEF706FE00215220FEF702FE23
:101BC00040F23F115320FEF7FDFD4FF41C51602001
:101BD000FEF7F8FD01216120FEF7F4FD00216A20E7
:101BE000FEF7F0FD00218020FEF7ECFD00218120B2
:101BF000FEF7E8FD00218220FEF7E4FD00218320AE
:101C0000FEF7E0FD00218420FEF7DCFD00218520A9
:101C1000FEF7D8FD10219020FEF7D4FD4FF4C061EF
:101C20009220FEF7CFFD21210720FEF7CBFD2846AD
:101C30000095FEF748FB61210720FEF7C3FD28460B
:101C40000095FEF740FB40F233110720FEF7BAFD86
:101C5000284600955FE2FEA0FFF7AEF801210020C4
:101C6000FEF7B0FD4FF480710120FEF7ABFD514649
:101C70000220FEF7A7FD41F208010320FEF7A2FDB6
:101C800000210420FEF79EFD40F202210820FEF70D
:101C900099FD00210920FEF795FD00210A20FEF79D
:101CA00091FD01210C20FEF78DFD00210D20FEF796
:101CB00089FD00210F20FEF785FD2646761E36049D
:101CC000360CFBD140F201110720FEF77BFD2546C3
:101CD0006D1E2D042D0CFBD14FF486511020FEF704
:101CE00071FD07211120FEF76DFD5D46594612205A
:101CF000FEF768FD4FF430611320FEF763FD00210D
:101D00002920FEF75FFD44F210012B20FEF75AFD5B
:101D100000215020FEF756FDEF215120FEF752FD25
:101D200000215220FEF74EFD40F23F115320FEF7F6
:101D300049FD4FF41C516020FEF744FD0121612054
:101D4000FEF740FD00216A20FEF73CFD00218020C7
:101D5000FEF738FD00218120FEF734FD00218220AE
:101D6000FEF730FD00218320FEF72CFD00218420AA
:101D7000FEF728FD00218520FEF724FD102190208C
:101D8000FEF720FD00219220FEF71CFD012193208B
:101D9000FEF718FD29469520FEF714FD0021972037
:101DA000FEF710FD00219820FEF70CFD2046401E96
:101DB0000004000CFBD140F273110720FEF702FD76
:101DC000641E2404240CFBD1ABE106212820FEF77D
:101DD000F9FC01210020FEF7F5FC00211020FEF7A0
:101DE000F1FC47F2EF210120FEF7ECFC4FF4C0615B
:101DF0000220FEF7E7FC46F638210320FEF7E2FC5E
:101E000046F674011120FEF7DDFC00210F20FEF7DD
:101E1000D9FC45F208310B20FEF7D4FC03210C203D
:101E2000FEF7D0FC0A210D20FEF7CCFC4FF4385110
:101E30000E20FEF7C7FCBE211E20FEF7C3FC4FF4A8
:101E400000412520FEF7BEFC4FF4F0412620FEF7AE
:101E5000B9FC78212720FEF7B5FC00214E20FEF7C3
:101E6000B1FC00214F20FEF7ADFC40F6D901122055
:101E7000FEF7A8FC00213020FEF7A4FC4FF482718D
:101E80003120FEF79FFC4FF480713220FEF79AFC60
:101E900040F2053421463320FEF794FC40F2055110
:101EA0003420FEF78FFC21463520FEF78BFC3146AF
:101EB0003620FEF787FC49463720FEF783FC4FF4B7
:101EC00090513A20FEF77EFC41463B20FEF77AFC1B
:101ED00033210720C9E500210720FEF773FC052404
:101EE00020460094FEF7EFF94FF48E711220FEF7B2
:101EF00069FC0121A420FEF765FC0F210820FEF7F4
:101F000061FC08210A20FEF75DFC08210D20FEF788
:101F100059FC31463020FEF755FC07213120FEF7F1
:101F200051FC40F203613220FEF74CFC554651460D
:101F30003320FEF747FC40F202213420FEF742FC3A
:101F400002213520FEF73EFC41F60F713620FEF7E8
:101F500039FC31463720FEF735FC00213820FEF7EA
:101F600031FC00213920FEF72DFC31463A20FEF7E6
:101F700029FC00213B20FEF725FC07213C20FEF731
:101F800021FC00213D20FEF71DFC20460094FEF7B9
:101F90009AF901210720FEF715FC01211720FEF711
:101FA00011FC20460094FEF78EF94FF4BD5110202D
:101FB000FEF708FC40F217211120FEF703FC4FF456
:101FC0008F711220FEF7FEFB4FF470611320FEF7B5
:101FD000F9FB00212A20FEF7F5FB0A212920FEF754
:101FE000F1FB4FF49F711220FEF7ECFB0021502013
:101FF000FEF7E8FBEF215120FEF7E4FB0021522021
:10200000FEF7E0FB40F23F115320FEF7DBFB4FF4FD
:102010001C516020FEF7D6FB01216120FEF7D2FBA8
:1020200000216A20FEF7CEFB00218020FEF7CAFBCC
:1020300000218120FEF7C6FB00218220FEF7C2FBB3
:1020400000218320FEF7BEFB002184200CE000006D
:102050000A0D2054686973204C4344206973206939
:102060006C6925782E000000FEF7ACFB002185206E
:10207000FEF7A8FB13219020FEF7A4FB494692200F
:10208000FEF7A0FB05219320FEF79CFB0021952085
:10209000FEF798FB00219720FEF794FB0021982083
:1020A000FEF790FB4FF480710120FEF78BFB294671
:1020B0000220FEF787FB59460320FEF783FB002131
:1020C0000420FEF77FFB00210C20FEF77BFB0021A4
:1020D0000F20FEF777FB00212020FEF773FB002185
:1020E0002120FEF76FFB21210720FEF76BFB142454
:1020F00020460094FEF7E7F861210720FEF762FB17
:1021000020460094FEF7DFF840F273110720FEF737
:1021100059FB20460094FEF7D6F802E004A0FEF733
:102120004BFEBDE8F84F4FF4FC60FFF7D5B8000058
:102130000A0D20232323232323204572723A20559E
:102140006E6B6E6F77204465766963654964436F93
:10215000646520307825782023232323232320003F
:1021600070B5044615480D46C088A0F50941893967
:1021700014D0A0F51341203917D0A0F51941193911
:102180000CD029462020FEF71DFBA4F23F1460422C
:1021900081B22120BDE87040FEF714BB21464E20DD
:1021A000FEF710FB29464F20F4E721462020FEF7DA
:1021B00009FBA5F23F156842EAE700000000002095
:1021C00070B5164AEF210020FEF788F9144ABF21A6
:1021D00015460020FEF782F9124A8F21144600208E
:1021E000FEF724F90F4A472190320020FEF776F9D6
:1021F0000D4AEF213020FEF771F92A46BF21302029
:10220000FEF76CF922468F213020FEF70FF9BDE86A
:1022100070404721054A3020FEF760B97808002059
:1022200098090020A8050020B80A002058070020BF
:102230001FB54FF4E13000900020ADF80400ADF878
:102240000600ADF80800ADF80C000C20ADF80A004F
:102250006846FEF761FC0848FEF792FCFFF782F83B
:102260000B2106A0FEF7A8FDFFF7AAFFFDF7ECFF84
:10227000FEF712FCFCE7000040420F000D0A20D7D9
:10228000BCB1B8B3F5CABCBBAF20256474680D0AF5
:10229000000000000D0AB6C1C8A14448543131B352
:1022A000C9B9A6210D0A0D0ACAAAB6C8CEAACAAED5
:1022B000C1F9BDF8D6C6A3BA253032782E25303202
:1022C0007820A3A5524820A3ACCEC2B6C8CEAACAD5
:1022D000AEC1F9BDF8D6C6A3BA253032782E253066
:1022E000327820A1E6200D0A000000000C2300082F
:1022F000000000200C0C0000EE01000880280008FF
:102300000C0C002014040000E80D000841031BFF22
:10231000FF127E100E01E78003C3C00781E00F802B
:10232000F00F13F01F13F81E13F83E13783E0A2720
:102330007C031A78331939193F1C0F81F04B19515E
:102340001957195D0131220C221C127C2307FC0A4B
:10235000483C03223E127F043107FFF012FF1008B1
:1023600003C7C00701E00E1AF0E4190319ED1903C1
:102370003A3F0319F321190312F01301F01303E09C
:102380001303C0130780220F3A1E753A781A5917A3
:10239000131C07131C0E13381C1B383C3C4BFFF856
:1023A00003013112FE180D0787800F03C01E01E0E4
:1023B0001E01F003121F29031A1E6A4987798A1920
:1023C0008722FE19901982291E49AB1994137C1E8D
:1023D0005B7C3F0319CC19D5000A32F00F01E007EE
:1023E00087C001FF196929DF196F3903131FC03A2C
:1023F0003F033A77032DE7C001C7032E0387C007C9
:102400000703380B0E07C01E07C01C07C038031C8B
:102410007FFFFE03293F09110312E01A7FC1012E3D
:102420004C0FFFF803220E091403127F280B0DFF37
:10243000C00FC3E01F01F01EFC22F822787A7C0353
:10244000121E2B7C3F031A78032A3E21100BF01E2C
:1024500001F00E01E00787C00232FF133FC0100DEC
:10246000F1E003C1F00781F80701F80F23F01F3AEC
:102470001E037A3E03100D3F803EFFE03FE3F03F36
:1024800080F83F19035B7C3E039A3C032999121F95
:102490001B780F0308083280F007C0E003E3903C8C
:1024A0001FFFFC0313F81F13381C13701C1BE038AC
:1024B000031301C019032B0380031A070321220F02
:1024C0006A0EA96A3C03227C3A78030A15F80319BC
:1024D0001B013012FF1507C3C00F13E01E13F01EBF
:1024E0005B783C0319FC1A780319F0180D1F80F073
:1024F0000FE1E007FBC001FF8003100E07BFC00F14
:102500000FE01E03F03E01F83C1903137C7C137CA2
:10251000781A3C03127C4A3C3F121E1A705119571C
:10252000033101FF1301FE180807C7800F01E01EE9
:1025300003112BF03E6329541966A903123C1BFCBE
:102540003E03200F01FC1F03FC1F8FFC0FFF7C03C9
:10255000FC7C19036AF80312F01B01F0481A1F03F0
:10256000100803C01F07800F9F035F03FCCA3E03D0
:1025700009372401261A01E6211603FC01FFC01EBB
:10258000071E07FBF00610081F803DC0070E3F1610
:102590001FC0071E7C160FC007BC781607C003F8C3
:1025A000F82303C02AF0061301F01A01062AE006F8
:1025B000CA0306294FA9061933D90609102499061A
:1025C000195429066AF00619332AF85A1906230302
:1025D00080127C3207123E321E341F807C2B0FFF8C
:1025E0002C3B03FF3802557F12802B3F80841AF367
:1025F000E112C013E1E01C07800106120F29061A40
:102600001E1A12E03A3C063A78062AF00619C81952
:1026100006192F19061A073E1CE1E00FD12BE1E045
:10262000B934E1C03C2CF3C078B22A80BF4A1EF70F
:102630003403C0FC2C0781FED82B038F1933078786
:102640001B3C0743112B780F062AF0062B01E006EE
:102650002B03C0062B078006120F29063A1E06120E
:102660003C29301278293C12F01948195E1A03549B
:1026700022C00243F81407C0701A1C541238121FEB
:102680001E01F83FFFFF571A3C7B113A78063A705B
:10269000063B03BC06390C1C073FFF7E39062B386E
:1026A00006123A1E062B1F0E063B0F8E062A8C06BC
:1026B0003B079C063A1C3049063A38421338701AD8
:1026C0001806511A7B57211373801303801673FF6A
:1026D000FFFFE03EF3C3C3C7C0062C8001E3063A08
:1026E00003063A3F064A07120A14C306EA07063AE7
:1026F000B8061BF8075935FFFC01DE022006492108
:102700004307804303E05301F012F814C001801620
:10271000F001E001C02DF003F001542BF801221D5F
:102720000C01E038151C01E03E2B1E01E03F01F8D2
:10273000061A1E1B29062BE1C0063BE3E0301CF005
:1027400001F8188A181EE90659422AFF061A3E1295
:102750002C03E0388822C03A3806127C1E03C3FFDF
:10276000FFFE0C121C1A7E061A0C971C03C00E36B4
:102770001C038007AF2E07800387C00613CF80128B
:10278000071B01FFCA2122FE2A0F3B113A0E0C1231
:102790000E1403FF80121C1C0FCFF0061A3F0D12FF
:1027A0003812FC16FFFC3807E02D1FF0707EF83A57
:1027B00061FA011E52061C038030041403E03C1031
:1027C0000907C001F03FFFFFC01AF80C5A80063A13
:1027D00070063A71063B03BC061924199D29123A6A
:1027E00038062B1E06062B1F8E062B0FCE064B0718
:1027F000DC06292A2B039C0C1D03B83D813C25389F
:1028000039E1C0257801F1F01C7001E1A51A7206CA
:1028100012F016F781E1E0F81808E3C1E1E1FC01EC
:10282000E101180AF003E0F1E1E3E07FC006180DD2
:10283000C01FC0F9E1E78007C07DE1EFA43C7DE166
:10284000FE061AFC061C3DE1F8061C39E1F0621A8E
:10285000114E2B0F805499063A70061008F807BFE6
:10286000FFFFFFFC321F02210E84A24A04680D0103
:10287000020304060708090204060810691441004F
:04000005080000ED02
:00000001FF
