:020000040800F2
:10000000C01F0020E9010008190300081B030008B5
:100010001F03000823030008270300080000000056
:100020000000000000000000000000002B0300089A
:100030002D030008000000002F0300083103000812
:10004000030200080302000803020008030200087C
:10005000030200080302000803020008030200086C
:10006000030200080302000803020008030200085C
:10007000030200080302000803020008030200084C
:10008000030200080302000803020008030200083C
:10009000030200080302000803020008030200082C
:1000A000030200080302000803020008030200081C
:1000B000F1310008030200080302000803020008EF
:1000C00003020008030200080302000803020008FC
:1000D000030200082F65000803020008030200085D
:1000E00003020008030200080302000800F002F8FF
:1000F00000F06AF80AA090E8000C82448344AAF158
:100100000107DA4501D100F05FF8AFF2090EBAE855
:100110000F0013F0010F18BFFB1A43F0010318473B
:10012000F4BA000014BB00000A444FF0000C10F8B1
:10013000013B13F0070408BF10F8014B1D1108BF65
:1001400010F8015B641E05D010F8016B641E01F805
:10015000016BF9D113F0080F1EBF10F8014BAD1C55
:100160000C1B09D16D1E58BF01F801CBFAD505E073
:1001700014F8016B01F8016B6D1EF9D59142D6D3CD
:10018000704700000023002400250026103A28BFF5
:1001900078C1FBD8520728BF30C148BF0B607047F9
:1001A000662909F0BE80642906F04C820020704761
:1001B0001FB506F07FFE04000020002107F0A0FF1D
:1001C000E0601FBD10B510BD06F0A4FF1146FFF79B
:1001D000EFFF00F029F806F0C2FF03B4FFF7F2FFCB
:1001E00003BC06F049F90000094880470948004768
:1001F000FEE7FEE7FEE7FEE7FEE7FEE7FEE7FEE7D7
:10020000FEE7FEE704480549054A064B7047000033
:1002100013040008ED000008C0190020C01F0020D2
:10022000C01B0020C01B00200EB5002000900190D4
:10023000029006F0B7F84FF4E13006F02CF902F026
:1002400011FF102326A20021282002F086FD02F0D3
:100250003EFC05F020FE02F0B4F802F0C6F840F2D1
:10026000CF2140F2CF7002F095FF38E040F2E73046
:1002700006F0D5F81C48006808F0B4FC0446224695
:100280000B461AA1684606F0C9F910236A461946BA
:10029000184602F062FD1848006808F0A3FC044606
:1002A00022460B4615A1684606F0B8F910236A46A7
:1002B0002021184602F051FD1348006808F092FC16
:1002C000044622460B4611A1684606F0A7F9102302
:1002D0006A463021184602F040FD02F0F8FBC5E7FF
:1002E0004D505536303530000000002050697463A1
:1002F000683A252E3266000004000020526F6C6CB4
:10030000203A252E3266000008000020596177202F
:10031000203A252E32660000704700BFFEE700BF7E
:10032000FEE700BFFEE700BFFEE77047704770477B
:10033000704700000CB50020019000906C480068E8
:1003400040F480306A49086000BF6948006800F4E2
:10035000003000900198401C0190009818B9019855
:10036000B0F5A06FF1D16248006800F4003010B120
:100370000120009001E0002000900098012843D166
:100380005C48006840F010005A4908600846006860
:1003900020F0030008600846006840F00200086092
:1003A00053484068524948600846406848600846DB
:1003B000406840F4806048600846406820F47C1043
:1003C00048600846406840F4E81048600846006805
:1003D00040F08070086000BF4548006800F0007081
:1003E0000028F9D04248406820F0030040494860A6
:1003F0000846406840F00200486000BF3C48406842
:1004000000F00C000828F9D10CBD10B5FFF792FFE1
:1004100010BD10B53648006840F00100344908604E
:100420000846406834490840314948600846006839
:10043000324908402E4908600846006820F48020B0
:1004400008600846406820F4FE0048604FF41F0032
:100450008860FFF7DAFF4FF000602949086010BD9F
:1004600010B5002100200022214B5B6803F00C0135
:1004700021B1042906D0082928D107E0214B224CBC
:10048000236027E01F4B204C236023E0184B5B6860
:1004900003F47010164B5B6803F48032022303EB05
:1004A000904022B9194B4343174C23600DE0104B89
:1004B0005B6803F4003323B1144B4343124C2360B5
:1004C00003E0104B4343104C236003E00D4B0E4CF4
:1004D000236000BF00BF064B5B68C3F303130C4CE3
:1004E000E15C094B1B68CB40074C236010BD00004A
:1004F00000100240002002400000FFF8FFFFF6FE5F
:1005000008ED00E000127A000C00002000093D0018
:100510001000002031490143314A1160704770B525
:10052000002100230F22C47804B32D4C246804F466
:10053000E064C4F5E064210AC1F10403CA404478D0
:1005400004FA03F18478144021430901254C06780C
:10055000A155047804F01F050124AC4005786D1105
:10056000AD0005F1E025C5F8004109E0047804F08C
:100570001F050124AC401C4D0678761145F8264035
:1005800070BD1A4A0A400243154B1B1F1A60704780
:1005900039B1134A121D12680243114B1B1D1A6018
:1005A00006E00F4A121D126882430D4B1B1D1A6094
:1005B0007047042808D14FF0E021096941F0040197
:1005C0004FF0E022116107E04FF0E021096921F0CE
:1005D00004014FF0E0221161704700000000FA05AD
:1005E0000CED00E000E400E080E100E080FFFF1F90
:1005F000002044490860091D0860091D0860091DA4
:10060000086041483F4914310860704700213D4966
:100610008279002A3AD00A46126803689A430B4648
:100620001A600A1D126803689A430B1D1A6002794A
:1006300011440A6803681A430A60324A0832126891
:1006400003689A432F4B08331A601A1D1268036817
:100650009A432C4B0C331A604279102A0ED11A1F80
:10066000126803681A43274B08331A601A1D126870
:1006700003681A43234B0C331A600DE02149427979
:1006800011440A6803681A430A6005E002791144BC
:100690000A6803689A430A6070470021016001718B
:1006A0000C21417100218171704716491031096890
:1006B0000143144A10321160704701460020114A6C
:1006C000143212680A400AB1012000E0002070478D
:1006D0000C49143108607047014600200022094B84
:1006E0001B6803EA0102074B14331B680B4013B16C
:1006F0000AB1012000E0002070470249143108606F
:100700007047000000040140FFFF0F0010B50446D1
:10071000CC48844208D10121042000F02DFB0021A7
:10072000042000F029FB46E0C748844208D101219B
:10073000082000F021FB0021082000F01DFB3AE01A
:10074000C248844208D10121102000F015FB00218D
:10075000102000F011FB2EE0BD48844208D1012199
:10076000202000F009FB0021202000F005FB22E002
:10077000B848844208D10121402000F0FDFA002150
:10078000402000F0F9FA16E0B348844208D1012174
:10079000802000F0F1FA0021802000F0EDFA0AE05C
:1007A000AE48844207D10121801500F0E5FA00210E
:1007B000A01500F0E1FA10BD10B50121084600F0C7
:1007C000DBFA0021012000F0D7FA10BD2DE9F0413D
:1007D000024600250026002000230024002791F86F
:1007E00003C00CF00F0591F803C00CF0100CBCF125
:1007F000000F03D091F802C04CEA050591F800C043
:10080000BCF1000F31D0146800202BE04FF0010C38
:100810000CFA00F3B1F800C00CEA03069E4220D1A6
:1008200083004FF00F0C0CFA03F7BC4305FA03FCEE
:100830004CEA040491F803C0BCF1280F06D14FF034
:10084000010C0CFA00FCC2F814C00AE091F803C0D5
:10085000BCF1480F05D14FF0010C0CFA00FCC2F8B6
:1008600010C0401C0828D1D31460B1F800C0BCF1FE
:10087000FF0F34DD546800202EE000F1080C4FF02B
:10088000010808FA0CF3B1F800C00CEA03069E4216
:1008900021D183004FF00F0C0CFA03F7BC4305FA8B
:1008A00003FC4CEA040491F803C0BCF1280F05D105
:1008B00000F1080C08FA0CF8C2F8148091F803C093
:1008C000BCF1480F07D100F1080C4FF0010808FAFD
:1008D0000CF8C2F81080401C0828CED35460BDE844
:1008E000F0814FF6FF710180022181700421C170F7
:1008F00070470246002093680B400BB1012000E0D6
:10090000002070470146886880B270470246002088
:10091000D3680B400BB1012000E000207047014676
:10092000C86880B2704701617047416170470AB181
:10093000016100E041617047C16070474FF480324F
:100940000A438261816182618269826970470246DD
:100950000020434B18684FF68073184040EA02109D
:1009600008433F4B186070473E49C8617047F0B577
:100970000A46002300240021002500F00046B6F1BD
:10098000004F02D1364EF16901E0354E7168C0F377
:10099000034583B200F44016B6F5401F08D121F09C
:1009A00070612F4E766826F070662D4F7E6012E0E3
:1009B00000F48016B6F5801F06D1032606FA05F46A
:1009C000A14341F0706106E0460D360103FA06F6D8
:1009D000B14341F0706122B1460D360103FA06F6CB
:1009E000314300F00046B6F1004F02D11C4EF161D8
:1009F00001E01B4E7160F0BD30B500228B071C0F6B
:100A00000F2303FA04F2164B08338C1053F82430EA
:100A10009343134C08348D1044F8253023468C1032
:100A200053F824308C07240F00FA04F423430C4CB1
:100A300008348D1044F8253030BD0A49DC31086097
:100A40007047000000080140000C01400010014008
:100A50000014014000180140001C0140002001402A
:100A60000000014000002042DF48006840F0010023
:100A7000DD49086008464068DC490840DA494860BA
:100A800008460068DA490840D74908600846006807
:100A900020F4802008600846406820F4FE0048608A
:100AA0004FF41F0088607047CF49096821F48031F6
:100AB000CD4A11601146096821F480211160B0F51A
:100AC000803F03D0B0F5802F0ED106E0C6490968FB
:100AD00041F48031C44A116007E0C349096841F418
:100AE000A021C14A116000E000BF00BF704710B5EF
:100AF00001460022002300204A11012A02D1BA4CEB
:100B0000236806E0022A02D1B74C236A01E0B64C02
:100B1000636A01F01F02012494401C400CB10120C3
:100B200000E0002010BD38B5002000900024002512
:100B300000BF3120FFF7DBFF05460098401C009006
:100B40000098B0F5A06F01D0002DF2D03120FFF752
:100B5000CEFF08B1012400E00024204638BD014644
:100B60000020A14A106820F0F80040EAC10010609F
:100B70007047A04908607047024600209A4B5868A9
:100B800020F47C1042EA01031843974B58607047E9
:100B900098490866704701460020934A506820F043
:100BA00003000843506070478F48406800F00C0015
:100BB0007047014600208C4A506820F0F00008433E
:100BC0005060704701460020874A506820F4E0607A
:100BD00008435060704701460020834A506820F463
:100BE000605040EAC1005060704729B17E4A527A95
:100BF00002437D4B5A7204E07B4A527A82437A4B1D
:100C00005A7270477B49D83108607047014600200E
:100C1000754A506820F440400843506070470021F6
:100C2000714A20321170704A82F82010012802D0D7
:100C300004280AD104E001216B4A2032117005E03A
:100C40000521694A2032117000E000BF00BF7047E3
:100C50006949086070476449096A0143624A116240
:100C60007047654944390860704730B5002100225B
:100C7000002400235C4D6D6805F00C0121B10429AE
:100C800005D0082923D105E05C4D056022E05B4DCD
:100C900005601FE0544D6D6805F47012524D6D688B
:100CA00005F48034022505EB92421CB9544D55439E
:100CB00005600BE04C4D6D6805F400351DB1504DDD
:100CC0005543056002E04D4D5543056002E04B4D34
:100CD000056000BF00BF444D6D6805F0F0010909D3
:100CE000484D6B5C0568DD4045603F4D6D6805F41F
:100CF000E061090A434D6B5C4568DD4085603A4D13
:100D00006D6805F46051C90A3E4D6B5C4568DD4075
:100D1000C560354D6D6805F44041890B3A4D6B5CFB
:100D2000C568B5FBF3F5056130BD29B12E4A52699E
:100D300002432D4B5A6104E02B4A526982432A4BED
:100D40005A61704729B1284A92690243264B9A6139
:100D500004E0254A92698243234B9A61704729B186
:100D6000214AD2690243204BDA6104E01E4AD2696B
:100D700082431D4BDA61704729B11B4AD268024396
:100D8000194BDA6004E0184AD2688243164BDA60E5
:100D9000704729B1144A12690243134B1A6104E0E7
:100DA000114A12698243104B1A6170471249403947
:100DB000086070470F49C86470470B49C871704795
:100DC0000948406A40F08070074948627047014610
:100DD0000020054A92680A400AB1012000E0002084
:100DE0007047014988727047001002400000FFF808
:100DF000FFFFF6FE000042428004424200127A00E9
:100E000000093D00200000203000002010B50446FD
:100E1000FE48844208D10121C014FFF7ADFF002134
:100E2000E014FFF7A9FFC4E0B4F1804F08D101211D
:100E30000846FFF7AEFF00210120FFF7AAFFB8E048
:100E4000F348844208D101210220FFF7A2FF0021CC
:100E50000220FFF79EFFACE0EE48844208D101215A
:100E60000420FFF796FF00210420FFF792FFA0E087
:100E7000E948844208D101210820FFF78AFF0021B8
:100E80000820FFF786FF94E0E448844208D101215E
:100E90001020FFF77EFF00211020FFF77AFF88E087
:100EA000DF48844208D101212020FFF772FF002192
:100EB0002020FFF76EFF7CE0DA48844208D1012150
:100EC0004014FFF759FF00216014FFF755FF70E051
:100ED000D548844209D10121C804FFF74DFF002104
:100EE0004FF40020FFF748FF63E0D048844209D167
:100EF00001210805FFF740FF00214FF48010FFF7A4
:100F00003BFF56E0CA48844209D101214805FFF75A
:100F100033FF00214FF40010FFF72EFF49E0C548D2
:100F2000844208D101214020FFF733FF00214020F7
:100F3000FFF72FFF3DE0C048844208D10121802007
:100F4000FFF727FF00218020FFF723FF31E0BB4898
:100F5000844208D101218015FFF71BFF0021A01555
:100F6000FFF717FF25E0B648844209D101210804A4
:100F7000FFF702FF00214FF48030FFF7FDFE18E07D
:100F8000B048844209D101214804FFF7F5FE002151
:100F90004FF40030FFF7F0FE0BE0AB48844208D17D
:100FA00001218804FFF7E8FE00214FF48020FFF7BD
:100FB000E3FE10BD00220288944B98420ED0994B5C
:100FC00098420BD0B0F1804F08D0914B984205D099
:100FD000904B984202D0904B984204D14FF68F73B9
:100FE0001A404B881A438D4B984207D08C4B98423D
:100FF00004D04FF6FF431A40CB881A4302808B88F7
:1010000083850B880385814B98420BD0854B984292
:1010100008D08B4B984205D08A4B984202D08A4B1D
:10102000984201D10B7A038601238382704770B501
:10103000002400220023058C4FF6FE7635400584FF
:10104000028C8388048B4FF68F752C40B51E2C4084
:101050000D882C43751E2A400D892A434D882A434A
:101060006A4DA8420BD06F4DA84208D0744DA842DB
:1010700005D0744DA84202D0734DA84213D14FF64B
:10108000F7752A404D892A434FF6FB752A408D8813
:101090002A434FF6FF652B404FF6FF552B408D89B5
:1010A0002B43CD892B4383800483CD88858602849E
:1010B00070BD70B5002400220023058C4FF6EF763A
:1010C00035400584028C8388048B48F6FF752C40DC
:1010D0004FF6FF452C400D884FF6FF7606EA0525B2
:1010E0002C434FF6DF752A400D8906EA05152A4381
:1010F0004D8806EA05152A43444DA84202D0494DC1
:10110000A8421DD14FF67F752A404D894FF6FF76D4
:1011100006EA05152A434FF6BF752A408D8806EA70
:1011200005152A434FF6FF352B404FF2FF752B4034
:101130008D8906EA85052B43CD8906EA85052B4373
:1011400083800483CD880587028470BD70B5002438
:1011500000220023058C4FF6FF6635400584028C83
:101160008388848B4FF68F752C404FF6FC752C408E
:101170000D882C434FF6FF552A400D894FF6FF7618
:1011800006EA05252A434D8806EA05252A431F4D10
:10119000A84202D0234DA8421DD14FF2FF752A402C
:1011A0004D894FF6FF7606EA05252A434FF6FF35AF
:1011B0002A408D8806EA05252A434EF6FF752B4006
:1011C0004DF6FF752B408D8906EA05152B43CD8919
:1011D00006EA05152B4383808483CD8885870284A6
:1011E00070BD70B5002200230024058C4EF6FF76FA
:1011F00035400584038C8488828B48F6FF752A402D
:101200004FF6FF452A400D8820E00000002C0140E9
:101210000004004000080040000C004000100040A6
:101220000014004000340140004C014000500140D7
:101230000054014000180040001C00400020004005
:101240000040014000440140004801404FF6FF7655
:1012500006EA05252A434DF6FF752B400D8906EA5F
:1012600005352B434D8806EA05352B43FA4DA84238
:1012700002D0FA4DA84208D14BF6FF752C408D895B
:101280004FF6FF7606EA85152C4384808283CD884D
:10129000A0F84050038470BD828B4FF2FF331A4098
:1012A0008283828B4FF6FF7303EA01231A43828302
:1012B0007047F0B50C461546002200210026078C29
:1012C0004EF6FF7C07EA0C070784828B018C4FF6F1
:1012D000FF7707EA043640F6FF473A404FF6FF77BC
:1012E00007EA05273A434FF6FF7707EA03373A4301
:1012F000D94FB8420ED0D94FB8420BD0B0F1804F81
:1013000008D0D74FB84205D0D64FB84202D0D64FFA
:10131000B84206D14DF6FF77394046F4805739433D
:1013200005E047F6FF57394044F48057394382833C
:101330000184F0BD828B4FF6F3731A408283828B57
:101340000A4382837047F0B50C46154600220021FF
:101350000026078C4FF6FF6C07EA0C070784828B88
:10136000018C4FF6FF7707EA04264FF60C773A40D8
:101370004FF6FF7707EA03172F433A43B64FB842B9
:101380000ED0B64FB8420BD0B0F1804F08D0B44F5A
:10139000B84205D0B34FB84202D0B34FB84206D1DD
:1013A0004FF6FF57394046F48077394305E04FF256
:1013B000FF57394044F48077394382830184F0BD7C
:1013C000028B4FF2FF331A400283028B4FF6FF73FA
:1013D00003EA01231A4302837047F0B50C46154611
:1013E000002200210026078C4FF6EF7C07EA0C074D
:1013F0000784028B018C4FF6FF7707EA041640F64C
:10140000FF473A404FF6FF7707EA03373A434FF674
:10141000FF7707EA05273A438F4FB8420ED08F4F28
:10142000B8420BD0B0F1804F08D08D4FB84205D0F4
:101430008C4FB84202D08C4FB84206D14FF6DF77BE
:10144000394046F01007394305E04FF65F773940E1
:1014500044F01007394302830184F0BD028B4FF63C
:10146000F3731A400283028B0A4302837047F0B57C
:101470000C46154600220021068C4FF6FE773E40B2
:101480000684028B018C4FF60C7632407E1C06EAF5
:1014900003162E433243704EB0420ED06F4EB04210
:1014A0000BD0B0F1804F08D06D4EB04205D06D4EDC
:1014B000B04202D06C4EB04206D14FF6FD763140BC
:1014C00044F00106314305E04FF6F576314044F033
:1014D0000106314302830184F0BD70B505460C4618
:1014E0005D4885420ED05D4885420BD0B5F1804FF6
:1014F00008D05B48854205D05A48854202D05A48F8
:10150000854200D100E000BF208850B92389A2881D
:1015100061882846FFF7ABFFE1882846FFF79EFF6A
:1015200025E0208804280AD12389A28861882846DA
:10153000FFF753FFE1882846FFF742FF17E02088B6
:1015400008280AD12389A28861882846FFF7FBFE74
:10155000E1882846FFF7EEFE09E02389A28861882A
:101560002846FFF7A6FEE1882846FFF795FE70BDE6
:101570002DE9F04105460C4600260127608808B990
:10158000022600E00026A088012801D1022700E001
:1015900001272088A0B92389A28861882846FFF7FF
:1015A00066FFE1882846FFF759FF23893A4631460E
:1015B0002846FFF712FFE1882846FFF701FF13E0F6
:1015C0002389A28861882846FFF707FFE18828461B
:1015D000FFF7F6FE23893A4631462846FFF747FFD4
:1015E000E1882846FFF73AFFBDE8F0810A884B887A
:1015F0001A438B881A43CB881A430B891A434B89A9
:101600001A438B891A43A0F8442070474FF6FF71A4
:10161000818000210180C1804180017270470021DA
:10162000018041808180C180018141818181C181AE
:101630007047002101804180012181800021C1800B
:10164000018170470021018041808180C18001813A
:101650004181818170470000002C0140003401402D
:101660000004004000080040000C004021B1028846
:1016700042F00102028004E002884FF6FE731A4035
:101680000280704731B1B0F8442042F40042A0F823
:10169000442005E0B0F84420C2F30E02A0F8442034
:1016A00070471AB183890B43838102E083898B439E
:1016B000838170478182704741EA0203A0F8483075
:1016C00070471AB183890B43838102E083898B437E
:1016D0008381704701894FF6F8721140018170478C
:1016E0000A46002101894FF68F7319401143018189
:1016F000704730B504460D4629462046FFF7F0FFF7
:10170000208940F00700208130BD2DE9F0410446DA
:101710000D4616461F46602D06D13B460122314636
:101720002046FFF75AFE05E03B460122314620469F
:10173000FFF79DFE29462046FFF7D2FF208940F0A3
:1017400007002081BDE8F08130B50C4600210189F9
:10175000C9B24FF6FF7505EA032515432543294312
:10176000018130BD2DE9F04105460E4617469846E9
:10177000002443463A4631462846FFF7E5FF2C89C8
:101780004FF6F870044044F007044FF68F700440A1
:1017900044F070042C81BDE8F081F0B504460D469C
:1017A00016461F463B46324629462046FFF7CCFFE9
:1017B000208940F480402081F0BD018582827047FD
:1017C0000A46002101884FF68F73194011430180AA
:1017D0007047F0B50C4615461E4600210022002336
:1017E0000189028B038C4FF6F877394021434FF67D
:1017F000FC473A4040F201173A434FF6DD773B4051
:101800004FF6FF7707EA06172F433B430181028318
:101810000384F0BD0A460021018B4FF68F731940F7
:101820001143018370470A460021018B48F6FF737C
:1018300019404FF6FF7303EA0223194301837047EF
:101840000A460021818B4FF68F7319401143818323
:1018500070470A460021818B48F6FF7319404FF606
:10186000FF7303EA022319438183704721B1028881
:1018700042F08002028004E002884FF67F731A4033
:101880000280704721B1828842F00402828004E025
:1018900082884FF6FB731A408280704721B182889C
:1018A00042F00802828004E082884FF6F7731A4003
:1018B0008280704721B1828842F00102828004E078
:1018C00082884FF6FE731A40828070470A460021D4
:1018D000018B4FF6F77319401143018370470A4695
:1018E0000021018B4FF2FF7319404FF6FF7303EA9B
:1018F00002231943018370470A460021818B4FF66A
:10190000F77319401143818370470A460021818B88
:101910004FF2FF7319404FF6FF7303EA0223194396
:10192000818370470A460021018B4FF6FB731940F3
:101930001143018370470A460021018B4FF6FF33A4
:1019400019404FF6FF7303EA0223194301837047DE
:101950000A460021818B4FF6FB73194011438183A6
:1019600070470A460021818B4FF6FF3319404FF62E
:10197000FF7303EA02231943818370470A4600215B
:10198000018B4FF67F7319401143018370470A465C
:101990000021018BC1F30E014FF6FF7303EA02230E
:1019A0001943018370470A460021818B4FF67F73EC
:1019B00019401143818370470A460021818BC1F38E
:1019C0000E014FF6FF7303EA022319438183704728
:1019D0000A460021018C4FF6FD7319401143018422
:1019E00070470A460021018C4FF6F77319401143E6
:1019F000018470470A460021018C4FF6DF731940BD
:101A00004FF6FF7303EA02131943018470470A4635
:101A10000021018C4FF67F7319404FF6FF7303EAE4
:101A200002131943018470470A460021018C4FF6C6
:101A3000FF5319404FF6FF7303EA02231943018451
:101A400070470A460021018C4FF2FF7319404FF690
:101A5000FF7303EA02231943018470470A460021F9
:101A6000018C4DF6FF7319404FF6FF7303EA023302
:101A700019430184704730B5002301248C40A3B280
:101A8000048C9C430484048C02FA01F5ADB22C430F
:101A9000048430BD30B5002304248C40A3B2048CF0
:101AA0009C430484048C02FA01F5ADB22C430484F7
:101AB00030BD70B5034600200024184618300125BB
:101AC0008D40ACB21D8CA5431D8409B1082909D1F4
:101AD00000EB6100056825F0700505600568154399
:101AE00005600EE00D1FC5F34E052844056825F47A
:101AF000E045056005684FF6FF7606EA02263543A5
:101B0000056070BD21B1028842F00202028004E04B
:101B100002884FF6FD731A400280704721B1028897
:101B200042F00402028004E002884FF6FB731A4080
:101B30000280704721B1828842F08002828004E0F6
:101B400082884FF67F731A408280704702884FF672
:101B5000F7731A40028002880A4302807047828825
:101B60004FF68F731A40828082880A4382807047C2
:101B700002894FF6F8731A40028102890A430281F2
:101B8000704702894FF67F731A40028102890A4327
:101B900002817047818470478185704781867047D4
:101BA0000187704781877047A0F84010704702880E
:101BB0004FF6FF431A40028002880A4302807047B2
:101BC0000146888E70470146088F70470146888F0E
:101BD00070470146B1F8400070470146888C704755
:101BE0000146088D704702460020138A0B400BB156
:101BF000012000E000207047CA430282704730B5E0
:101C00000246002000230024158A05EA0103958975
:101C100005EA010413B10CB1012000E0002030BD41
:101C2000CA4302827047000010B50446FB48844254
:101C300009D101218803FFF79FF800214FF480406C
:101C4000FFF79AF832E0F648844209D101214804AE
:101C5000FFF79FF800214FF40030FFF79AF825E0D6
:101C6000F048844209D101218804FFF792F800214D
:101C70004FF48020FFF78DF818E0EB48844209D13B
:101C80000121C804FFF785F800214FF40020FFF779
:101C900080F80BE0E548844208D101210805FFF7F0
:101CA00078F800214FF48010FFF773F810BD2DE98C
:101CB000F04786B005460E460024A24600BFA14666
:101CC0000027B08900B100BF2F462C8A4CF6FF7068
:101CD0000440F08804432C82AC894EF6F310044093
:101CE000B08831890843718908430443AC81AC8AC8
:101CF0004FF6FF400440B0890443AC8201A8FEF7D0
:101D0000B4FFC648874202D1DDF810A001E0DDF83B
:101D10000CA0A88900F4004040B10AEBCA0000EB17
:101D20000A1031684900B0FBF1F807E00AEBCA007D
:101D300000EB0A1031688900B0FBF1F86420B8FBB1
:101D4000F0F004012009642101FB1089A88900F446
:101D5000004040B1322000EBC900B0FBF1F000F0D0
:101D60000700044308E0322000EB09106421B0FBB7
:101D7000F1F000F00F0004432C8106B0BDE8F087BD
:101D80004FF41651016000218180C18001810C2136
:101D9000418100218181704710B502460020108AE0
:101DA0004FF2FF0318400B884C8823438C88234351
:101DB000CC8823431843108210BD0021018041804C
:101DC0008180C180704721B1828942F400528281B2
:101DD00004E082894DF6FF731A4082817047F0B5A6
:101DE0000346002400260025002040F66A17B94269
:101DF00000D100BF1846C1F3421401F01F060127AD
:101E000007FA06F5012C01D10C3004E0022C01D1B7
:101E1000103000E014301AB107682F43076002E069
:101E20000768AF430760F0BD1AB1838A0B43838212
:101E300002E0838A8B4383827047028A4FF6F073F5
:101E40001A400282028A0A430282704782894FF254
:101E5000FF731A40828182890A438281704721B1CF
:101E6000828942F00202828104E082894FF6FD738A
:101E70001A4082817047028A4FF6DF731A4002824D
:101E8000028A0A430282704721B1028A42F48042E8
:101E9000028204E0028A4BF6FF731A400282704706
:101EA000C1F308028280704701468888C0F30800A9
:101EB0007047818941F0010181817047028BD2B264
:101EC0000283028B42EA012202837047028B02F4F2
:101ED0007F420283028B0A430283704721B1828AC8
:101EE00042F02002828204E0828A4FF6DF731A40B9
:101EF0008282704721B1828A42F01002828204E01D
:101F0000828A4FF6EF731A408282704721B1828A2B
:101F100042F00802828204E0828A4FF6F7731A4088
:101F20008282704721B1828942F40042828103E0BB
:101F30008289C2F30E028281704721B1828A42F403
:101F40000062828204E0828A4FF2FF731A4082822A
:101F50007047828A4FF6FB731A408282828A0A4354
:101F60008282704721B1828A42F00202828204E0BA
:101F7000828A4FF6FD731A40828270470246002023
:101F8000B1F5007F00D100BF13880B400BB10120D9
:101F900000E00020704701F40072B2F5007F00D12C
:101FA00000BFCA430280704770B502460024002378
:101FB0000025002040F66A16B14200D100BFC1F3EF
:101FC000421501F01F03012606FA03F3012D02D189
:101FD0009689334006E0022D02D1168A334001E093
:101FE000968A33400C12012606FA04F4168834400F
:101FF00013B10CB1012000E0002070BD10B500222B
:10200000002340F66A14A14200D100BF0A12012445
:102010009440A3B2DC43048010BD000000380140AE
:102020000044004000480040004C00400050004088
:10203000014691F90020002A01DD00201EE091F9FF
:102040000020002A01DA042018E091F90120002A7A
:1020500001DD012012E091F90120002A01DA0520BA
:102060000CE091F90220002A01DD022006E091F93E
:102070000220002A01DA062000E00720704770B530
:1020800005462846FFF7D4FF0446E81CFFF7D0FFBB
:1020900044EAC00084B2A81DFFF7CAFF44EA8010DA
:1020A00084B2204670BD70B588B002A905A802F0C0
:1020B000BFFD0446072C3FD101A802F02FF8059878
:1020C00006F05CFF0646019906F0B8FF054606F0EB
:1020D00019FF0590069806F051FF0646019906F093
:1020E000ADFF054606F00EFF0690079806F046FF86
:1020F0000646019906F0A2FF054606F003FF079089
:1021000005A803F0A6F8684602F025F8BDF800100F
:10211000029848430290BDF800100398484303908A
:10212000BDF8001004984843049002A803F024F975
:10213000FEA004F067FA00BF08B070BD2DE9F043BF
:1021400004460D46DDE907670021012041E0DFF884
:1021500000C43CF81080A0F1010CDFF8F49329F8DA
:102160001C8009F1160C3CF81090A0F1010CDFF86E
:10217000E08308F1160828F81C9008F1160C3CF8CA
:102180001090A0F1010C08F1160828F81C9008F135
:10219000160C3CF81090A0F1010C08F1160828F874
:1021A0001C9008F1160C3CF81090A0F1010C08F1FD
:1021B000160828F81C9008F1160C3CF81090A0F1B5
:1021C000010C08F1160828F81C9000F1010C0CF025
:1021D000FF000A28BBDBDFF878C3ACF81240ACF88C
:1021E0002850ACF83E20ACF85430ACF86A60ACF83B
:1021F00080700021002008E0DFF854C33CF910C0D3
:10220000614400F1010C0CF0FF000A28F4DB4FF0F0
:102210000A0C91FBFCFC0FFA8CFCDFF83483A8F865
:1022200014C0002100200AE0DFF824C30CF1160CD2
:102230003CF910C0614400F1010C0CF0FF000A28C9
:10224000F2DB4FF00A0C91FBFCFC0FFA8CF8DFF884
:1022500000C3ACF82A80002100200AE0DFF8F0C2B9
:102260000CF12C0C3CF910C0614400F1010C0CF095
:10227000FF000A28F2DB4FF00A0C91FBFCFC0FFA7E
:102280008CF8DFF8CCC2ACF84080002100200AE0D6
:10229000DFF8BCC20CF1420C3CF910C0614400F103
:1022A000010C0CF0FF000A28F2DB4FF00A0C91FB46
:1022B000FCFC0FFA8CF8DFF898C2ACF856800021CD
:1022C00000200AE0DFF888C20CF1580C3CF910C07D
:1022D000614400F1010C0CF0FF000A28F2DB4FF022
:1022E0000A0C91FBFCFC0FFA8CF8DFF864C2ACF826
:1022F0006C80002100200AE0DFF854C20CF16E0C63
:102300003CF910C0614400F1010C0CF0FF000A28F8
:10231000F2DB4FF00A0C91FBFCFC0FFA8CF8DFF8B3
:1023200030C2ACF88280BDE8F08338B504460323A0
:1023300002226B21D020009403F0DFFF38BD38B5B6
:102340000446022304221B21D020009403F0D5FF71
:1023500038BD38B50446022304221C21D020009445
:1023600003F0CBFF38BD10B50446234606226B218F
:10237000D02003F0F7FF10BD10B5764B0122752178
:10238000D02003F049FF7348007810BD10B5FFF767
:10239000F3FF682801D1012010BD0020FCE710B533
:1023A0000446234605226A21D02003F0DBFF10BD3E
:1023B00010B50446234601223721D02003F0D2FF76
:1023C00010BD10B50220FFF7B0FF0320FFF7B7FFE5
:1023D0000020FFF7BEFF0020FFF7C5FF0020FFF73A
:1023E000DEFF0020FFF7E4FF10BD38B500200090AD
:1023F0006B4601227521682003F0B0FE56A004F060
:1024000001F99DF8000068280ED000BF5B48006805
:1024100000F4E0605A490843001D58490860BFF3C2
:102420004F8F00BF00BFFEE701F085FB00283CD1C5
:10243000782000F0E8FF10B947A004F0E3F8782016
:1024400001F0C8F910B94FA004F0DCF8C82001F081
:10245000A2FA10B955A004F0D5F802F05FFE10B949
:102460005CA004F0CFF86848FFF709FE044602F0CC
:102470005FFE10B965A004F0C5F840F2731003F0D8
:1024800098FA10B96BA004F0BDF8C82003F00AF860
:1024900010B972A004F0B6F8FFF705FE012002F0B3
:1024A00082FB10B976A004F0ADF838BD2DE9F04FED
:1024B00091B00446894692460EA87A490FAB0AAA03
:1024C000CDE900107849794803F0D2FB75480088BF
:1024D00000F48070002827D00A9806F04FFD0546CA
:1024E0004FF09D4106F018FC714908600B9806F00A
:1024F00045FD05464FF09D4106F00EFC6D49086014
:102500000C9806F03BFD05464FF09D4106F004FC9B
:10251000694908600D9806F031FD05464FF09D4170
:1025200006F0FAFB6549CBE0A5E100007365747421
:10253000696E672062696173207375636365736692
:10254000756C6C79202E2E2E2E2E2E0D0A0000007A
:1025500082130020741300206D70755F7365745FC3
:1025600073656E736F7220636F6D706C6574652038
:102570002E2E2E2E2E2E0D0A000000000CED00E057
:102580000000FA056D70755F636F6E66696775723E
:10259000655F6669666F20636F6D706C657465203A
:1025A0002E2E2E2E2E2E0D0A000000006D70755F4F
:1025B0007365745F73616D706C655F7261746520C3
:1025C000636F6D706C657465202E2E2E2E2E2E0D71
:1025D0000A000000646D705F6C6F61645F6D6F7402
:1025E000696F6E5F6472697665725F6669726D7736
:1025F00061726520636F6D706C657465202E2E2E80
:102600002E2E2E0D0A00000054000020646D705F15
:102610007365745F6F7269656E746174696F6E2043
:10262000636F6D706C657465202E2E2E2E2E2E0D10
:102630000A000000646D705F656E61626C655F66C4
:1026400065617475726520636F6D706C657465206B
:102650002E2E2E2E2E2E0D0A00000000646D705FAF
:102660007365745F6669666F5F7261746520636F1E
:102670006D706C657465202E2E2E2E2E2E0D0A0088
:102680006D70755F7365745F646D705F7374617492
:102690006520636F6D706C657465202E2E2E2E2E56
:1026A0002E0D0A00400000203A00002034000020D7
:1026B00044000020480000204C0000205000002072
:1026C0000860A44801684FF0804006F0B7FC059010
:1026D000A1480168059806F0B1FC83469F4801684F
:1026E0004FF0404006F0AAFC05909D48016805980F
:1026F00006F0A4FC5946069006F0A0FA079006F0F2
:1027000071FACDE9080105F0BFF907464FF06632CE
:10271000944B05F08DFF054605F008FD20608E48BE
:1027200001684FF0804006F089FC02908A480168F9
:10273000029806F083FC8346884801684FF04040C9
:1027400006F07CFC029085480168029806F076FC51
:102750005946039006F070FD80464FF07E5106F01A
:102760006DFA074606F03EFACDE9060179480168A0
:102770004FF0804006F062FC0390784801680398AF
:1027800006F05CFC8046744801684FF0804006F01B
:1027900055FC039072480168039806F04FFC83468D
:1027A000414606F04BFA074606F01CFACDE9040153
:1027B000DDE9062305F0B0FB4FF06632694BCDE949
:1027C000080105F035FF054605F0B0FCC9F800002A
:1027D00063480168006806F031FC04905E480168B7
:1027E000006806F02BFC02905C480168006806F067
:1027F00025FC019057480168006806F01FFC009016
:10280000019906F01BFA8346029906F015FD039024
:10281000049906F011FD059006F0E4F905460E4610
:102820004F4801684B48006806F008FC04904A488D
:1028300001684A48006806F001FC0390049906F01C
:10284000FDF94FF08041059006F0F8FB834606F055
:10285000C9F92A463346CDE9060105F05DFB4FF084
:102860006632404BCDE9080105F0E2FE074605F06F
:102870005DFCCAF8000011B0BDE8F08F2DE9F05FF3
:102880004221D02003F0A5FC05464121D02003F0D1
:10289000A0FC05EB0024204606F070FB82464FF0BA
:1028A0008E41504606F096FC05D24FF08F415046BF
:1028B00006F0C2FC82462C49504606F02DFA8346AB
:1028C00006F090F98046294A294B05F061FC06463E
:1028D0000022284B05F0ACFE044605F027FC82469A
:1028E000504606F00FFBBDE8F09F1FB501210846DA
:1028F000FEF728FA01210820FEF724FA2020ADF87F
:102900000C0048208DF80F0003A91B48FDF75EFF5F
:1029100005210120FEF770F82020019000208DF89D
:1029200008000C208DF8090001208DF80A0001A88C
:10293000FDF76CFE17208DF8000002208DF80100D5
:1029400001208DF802008DF803006846FDF7E7FDD1
:102950001FBD0000440000204C0000204800002063
:102960005000002066A64C400000AA43A4703D0A17
:10297000D743424000002440000C014010B5202104
:10298000F948FDF7D0FF8021F748FDF7CEFF802101
:10299000F548FDF7C8FF10BD10B52021F248FDF73E
:1029A000C2FF2021F048FDF7C0FF10BD70B50446FE
:1029B00000251BE02021EC48FDF7B7FF04F0800064
:1029C00020B18021E848FDF7AEFF03E08021E64812
:1029D000FDF7ABFF2021E448FDF7A5FF2021E248E9
:1029E000FDF7A3FF6006040E681CC5B2082DE1DBED
:1029F00070BD10B58021DC48FDF795FF2021DA4835
:102A0000FDF791FF8021D848FDF78FFF2021D648A0
:102A1000FDF78BFF10BD70B505460C46FFF7E9FFCB
:102A20007820FFF7C3FFFFF7B7FF1CB14020FFF787
:102A3000BDFF02E00020FFF7B9FFFFF7ADFF28461A
:102A4000FFF7B4FFFFF7A8FFFFF798FF70BD10B5C1
:102A500004461CB90021A620FFF7DDFF012C03D19D
:102A60000021A720FFF7D7FF10BD10B504463CB9E1
:102A70000021C820FFF7CFFF0021A120FFF7CBFFE7
:102A8000012C07D10021C020FFF7C5FF0021A020A5
:102A9000FFF7C1FF10BD10B500218D20FFF7BBFF70
:102AA00000211420FFF7B7FF0021AF20FFF7B3FF8D
:102AB00010BD10B500218D20FFF7ADFF00211020C3
:102AC000FFF7A9FF0021AF20FFF7A5FF10BD70B5EC
:102AD00000241CE004F1B001C8B20021FFF79BFF05
:102AE00000210846FFF797FF00211020FFF793FF12
:102AF000002508E09D4901EBC501085D0121FFF7B4
:102B00008AFF681CC5B2802DF4DB601CC4B2082C9F
:102B1000E0DB70BD70B500240CE0002506E000206D
:102B2000924901EBC5010855681CC5B2802DF6DB42
:102B3000601CC4B2082CF0DBFFF7C9FF70BD70B594
:102B40000A46CE1701EB5676C6F3C703CE1701EB44
:102B50005676F610A1EBC606F4B20122A240D5B219
:102B6000824A02EBC002D25C2A43804E06EBC006CA
:102B7000F25470BD70B50B46CE1701EB5676C6F316
:102B8000C702CE1701EB5676F610A1EBC606F4B2DB
:102B90000123A340DDB2754B03EBC0039B5CDB4319
:102BA000724E06EBC006B354704B03EBC0039B5C44
:102BB0002B436E4E06EBC006B3546C4B03EBC003C5
:102BC0009B5CDB43694E06EBC006B35470BD00BF8F
:102BD00070472DE9F04306460F46904600254446CF
:102BE0003BE03A1BD1B27219D0B2FFF7A8FF3A1BF3
:102BF000D1B2721BD0B2FFF7A2FF3A19D1B2721B49
:102C0000D0B2FFF79CFF3A19D1B27219D0B2FFF7D8
:102C100096FF7A19D1B23219D0B2FFF790FF7A1B22
:102C2000D1B23219D0B2FFF78AFF7A1BD1B2321B70
:102C3000D0B2FFF784FF7A19D1B2321BD0B2FFF7BE
:102C40007EFF6D1C05FB05F004FB040008FB180962
:102C5000B9F1000F01DD641E6D1E6000604308FBCA
:102C600008F18842BDDABDE8F0832DE9FF4F81B05D
:102C700080460E461C4600962046E31704EB53732D
:102C8000DB1021464FEAE47C04EB5C7C4FEAEC0C61
:102C9000A4EBCC0CBCF1000F02D04FF0010C01E012
:102CA0004FF0000C6344224604EBD27C4FEA6C0CDC
:102CB00003FB0CF303F0FF0B03982038C7B2002589
:102CC00047E00C2C07D107EB4700294901EB8000B6
:102CD00010F805A014E0102C05D1264800EB0710D1
:102CE00010F805A00CE0182C07D107EBC70022490B
:102CF00001EB800010F805A002E005B0BDE8F08F00
:102D00004FF000091FE00AF0800020B13146404634
:102D1000FFF715FF03E031464046FFF72BFF4FEA70
:102D20004A604FEA106A701CC6B20098301AA0427E
:102D300005D1009E08F1010000F0FF0806E009F14E
:102D4000010000F0FF09B9F1080FDCDB00BF681CCF
:102D5000C5B25D45B5DB00BFCFE7F0B506460F460F
:102D600014461D461EE00000000801400614002025
:102D7000169400088A9800087A9E000822782B464C
:102D800039463046FFF771FF284605EBD07106EB58
:102D90006101CEB2C5F18000B04202DA0026B81C53
:102DA000C7B2641C2078202802DB20787E28E5DD6D
:102DB000F0BD10B50246012000E050430B1EA1F10A
:102DC0000104E1B2F9D110BD2DE9F04F06468A4663
:102DD00091461F46099C00252CE0781B401EC1B27D
:102DE0000A20FFF7E6FFB9FBF0F00A21B0FBF1F291
:102DF00001FB1208B8F1000F0CD1A34604EBDB7104
:102E0000491001FB0561C8B2234630225146FFF745
:102E10002CFF0DE0A34604EBDB71491001FB0561BB
:102E2000C8B208F13001CAB223465146FFF71DFF70
:102E3000681CC5B2BD42D0DBBDE8F08F2DE9FF4F65
:102E40000746884691461C464FF0000B0297CDF886
:102E500004802046E11704EB5171C1F3C7010091D2
:102E600060E009FB04F0C11700EB51710BEBE101CD
:102E7000CEB20BF1010000F0FF0B002550E0102C4A
:102E800005D1BE4800EB0610405D03901BE0182CF6
:102E900007D106EBC600BA4901EBC000405D0390C4
:102EA00011E0202C05D1B74800EBC610405D03901F
:102EB00009E0402C05D1B44800EB4620405D03906A
:102EC00001E0BDE8FF8F4FF0000A17E0039800F023
:102ED000010020B141463846FFF731FE03E041468C
:102EE0003846FFF747FE03984010039008F10100B1
:102EF00000F0FF080AF1010000F0FF0ABAF1080F24
:102F0000E4DB781CC7B20298381AA04204D1029FB1
:102F100001980830C0B20190DDF80480681CC5B289
:102F2000A542ACDB0098411EC9B20091002898D19F
:102F300000BFC6E7804689460026002749E03FB922
:102F40001023324618218020FFF778FF701CC6B28C
:102F5000464522D14FF0000A1AE0002410E0002577
:102F60000AE08A4800EBC400415D601E874A02EB1C
:102F7000C0004155681CC5B2082DF2DB601CC4B20C
:102F8000902CECDBFFF7A3FD0AF1010000F0FF0A33
:102F90004FEA09105045E0DC0026781CC7B2102F1C
:102FA00000D10027002410E000250AE0774800EB5C
:102FB000C400415D601E754A02EBC0004155681CAB
:102FC000C5B2082DF2DB601CC4B2902CECDBFFF71D
:102FD0007EFDB4E770B504460D4605F1B001C8B2F8
:102FE0000021FFF718FD102141EA14100021FFF71E
:102FF00012FD04F00F0141F001000021FFF70BFD6D
:1030000070BD2DE9F05F05460E4617469846DDF87F
:1030100028B04FF00009CA460024E11704EB5171B3
:10302000C910A4EBC10101B901E0601CC4B234466F
:1030300014E021462846FFF7CDFFAA460AE01BF818
:1030400009000121FFF7E7FC09F101090AF101007C
:1030500000F0FF0ABA45F2DB601CC4B24445E8DB6D
:10306000BDE8F09F08B501210420FDF76BFEA0200C
:10307000ADF8000010208DF8030003208DF8020049
:1030800069464348FDF7A2FBA0214148FDF74BFCF0
:10309000C82003F0C4F90021AE20FFF7BCFC0021DA
:1030A0000846FFF7B8FC00211020FFF7B4FC002110
:1030B0004020FFF7B0FC00218120FFF7ACFC00218D
:1030C000CF20FFF7A8FC0021A120FFF7A4FC0021DE
:1030D000C820FFF7A0FC0021A620FFF79CFC0021E0
:1030E000A820FFF798FC00213F20FFF794FC002167
:1030F000D320FFF790FC00210846FFF78CFC00214D
:10310000D520FFF788FC00218020FFF784FC0021F8
:10311000D920FFF780FC0021F120FFF77CFC002183
:10312000DA20FFF778FC00211220FFF774FC002161
:10313000DB20FFF770FC00214020FFF76CFC002132
:103140002020FFF768FC00210220FFF764FC00212B
:103150008D20FFF760FC00211420FFF75CFC0021AC
:10316000A420FFF758FC0021A620FFF754FC002103
:10317000AF20FFF750FCFFF7CDFC08BDD6AB000831
:10318000640000203C0100203C03002006140020C5
:10319000000801407FB505460C4601210846FDF7B1
:1031A000DEFDADF80850ADF804400020ADF80A008F
:1031B000ADF8060001A94FF08040FDF7FBFE0122AB
:1031C00041218807FEF76DFA01218807FEF74EFAC4
:1031D0001C208DF8000000208DF8010003208DF8E0
:1031E000020001208DF803006846FDF798F97FBDC5
:1031F0002DE9FF4701218807FEF701FD01281ED1B7
:10320000124A13491348FFF751F91048006805F0B6
:10321000E9FC04460D460E48006805F0E3FC06464E
:103220000F460C48006805F0DDFC804642460B4620
:1032300009A0CDE90067CDE9024503F0E3F90121DA
:103240008807FEF7EDFCBDE8FF87000008000020BE
:1032500004000020000000200A0D20B8A9D1F6BD0E
:10326000C73D252E3266202020202020BAE1B9F665
:10327000BDC73D252E3266202020202020C6ABBAB7
:10328000BDBDC73D252E3266200A0D0038B5044667
:10329000FB4890F82400C0B114B10220009001E076
:1032A00000200090F64A1268D17BF54A52681078E7
:1032B0006B46012202F022FF10B14FF0FF3038BD03
:1032C0009DF80010EE48417423E0ED48807A10B973
:1032D0004FF0FF30F3E724B1E948407C08B100200B
:1032E000EDE714B10120009001E000200090E44AD5
:1032F0001268D17BE24A526810786B46012202F0D4
:10330000FDFE10B14FF0FF30D9E79DF80010DC480A
:1033100041740020D3E738B5002419E0D84800688C
:10332000C07AA04204D0D6480068407DA04200D1B7
:103330000CE0D349496808786B460122214602F027
:103340000DFF10B14FF0FF3038BD00BF601CC4B29C
:10335000CB4840680079A042E0DC0020F4E770B57B
:1033600004460D46C6480068C07AA04204D0C4484E
:103370000068407DA04202D14FF0FF3070BDC048D0
:1033800040680079A04202DC4FF0FF30F6E7BC490C
:10339000496808782B460122214602F0DFFEEDE75E
:1033A00038B50446B64890F82300A04201D1002069
:1033B00038BD14B13020009001E000200090B048EA
:1033C000807C20B19DF8000040F002000090AC48E5
:1033D00090F8220020B19DF8000040F0800000909D
:1033E000A74A1268117DA64A526810786B460122DE
:1033F00002F084FE10B14FF0FF30D9E7A04880F80A
:1034000023400020D4E738B5044604F0700010B122
:103410000120009005E014B10020009001E0402060
:103420000090974A1268917C954A526810786B46D2
:10343000012202F063FE20B1002191488172481EF2
:1034400038BD9DF8000020F040018D480173002038
:10345000009004F0400020B99DF8000040F0040006
:10346000009004F0200020B99DF8000040F0020018
:10347000009004F0100020B99DF8000040F0010019
:10348000009004F0080020B99DF8000040F03800DA
:1034900000907B4A1268D17C794A526810786B465A
:1034A000012202F02BFE20B1002175488172481ED6
:1034B000C6E724B1082C02D00020FFF771FF704846
:1034C000847200210175322002F0A9FF0020B7E7C5
:1034D00038B504466A48807CA04201D1002038BD3E
:1034E000002C46D0664A12681179654A52681078F5
:1034F0006B46012202F032FE10B14FF0FF30EEE7D2
:103500009DF8000020F0200000905D4A12681179BB
:103510005B4A526810786B46012202F0EFFD10B151
:103520004FF0FF30DBE7032002F079FF022000902C
:10353000534890F8220020B19DF8000040F0800030
:1035400000904F4890F8230020B19DF8000040F013
:10355000300000904A4A1268117D494A526810783A
:103560006B46012202F0CAFD002851D04FF0FF3017
:10357000B5E7434A12681179414A526810786B46A0
:10358000012202F0EBFD10B14FF0FF30A7E73C48FD
:10359000807A00F0010028B19DF8000040F0200082
:1035A000009004E09DF8000020F020000090344AD4
:1035B00012681179324A526810786B46012202F083
:1035C0009DFD10B14FF0FF3089E7032002F027FF87
:1035D0002B4890F8220010B18020009001E00020DC
:1035E0000090274890F8230020B19DF8000040F09B
:1035F00030000090224A1268117D214A52681078EA
:103600006B46012202F07AFD10B14FF0FF3066E701
:103610001B488474002062E708B51948807A10B905
:103620004FF0FF3008BD00200090154A1268D17B92
:10363000134A526810786B46012202F05FFD10B108
:103640004FF0FF30EEE70E4A126851790C4A52688B
:1036500010786B46012202F051FD10B14FF0FF309F
:10366000E0E7074A12681179054A526810786B46FC
:10367000012202F043FD28B14FF0FF30D2E70000F5
:103680003C130020F74890F82400002850D00C206C
:103690000090F44A12681179F24A526810786B4629
:1036A000012202F02BFD10B14FF0FF30BAE7C0202D
:1036B0000090EC48807A00F0010020B19DF80000F5
:1036C00040F020000090E74A12681179E54A5268FC
:1036D00010786B46012202F011FD10B14FF0FF305F
:1036E000A0E7E048407C10B10220009001E00020FB
:1036F0000090DC4A1268D17BDA4A526810786B4637
:10370000012202F0FBFC10B14FF0FF308AE70020ED
:103710000090D44A12685179D24A526810786B46A8
:10372000012202F0EBFC002852D04FF0FF3079E785
:1037300004200090CB4A12681179CA4A5268107866
:103740006B46012202F0DAFC10B14FF0FF3069E75E
:10375000C448807C20B9C348807A00F0010010B9C9
:103760004020009001E060200090BE4A126811796C
:10377000BC4A526810786B46012202F0BFFC10B1BF
:103780004FF0FF304EE7B748407C10B10120009069
:1037900001E000200090B34A1268D17BB14A526820
:1037A00010786B46012202F0A9FC10B14FF0FF30F7
:1037B00038E7AC4A12685179AA4A52681078A94B86
:1037C0001033012202F09AFC10B14FF0FF3029E7CC
:1037D000002027E770B50446002624F00104A14824
:1037E00090F8240008B1002070BD9E48807A10B97E
:1037F0004FF0FF30F8E79B48057C807A20409949DC
:1038000008740846007CA04202D04FF0FF3600E06A
:10381000002614B99348007D18B10120FFF736FD4A
:1038200002E00020FFF732FD3CB1FFF7F5FE20B1CA
:103830008C4805744FF0FF30D6E73046D4E738B5F2
:1038400004468848807A10B94FF0FF3038BDBC2C50
:1038500002DB0120009015E0622C02DB02200090C8
:1038600010E02A2C02DB032000900BE0142C02DB7A
:103870000420009006E00A2C02DB0520009001E005
:10388000062000907748C07A9DF80010884201D148
:103890000020DBE7734A12689178724A5268107808
:1038A0006B46012202F02AFC10B14FF0FF30CDE749
:1038B0009DF800106B48C1720020C7E738B5044678
:1038C000282C02DD4FF0FF3038BDDCB90020FFF7B7
:1038D00067FD00208DF8000007208DF80100614A87
:1038E0001268917C5F4A526810786B46022202F09F
:1038F00005FC10B14FF0FF30E6E700215948017593
:103900000020E1E70120FFF74BFD20208DF80000AB
:10391000012C06D100208DF801000520FFF78FFF54
:1039200017E0052C06DC01208DF801000520FFF7CB
:1039300086FF0EE0142C06DC02208DF801000A2020
:10394000FFF77DFF05E003208DF801001420FFF74D
:1039500076FF9DF80100072101EB8010C0B28DF8C1
:103960000100404A1268917C3E4A526810786B46CA
:10397000022202F0C3FB10B14FF0FF30A4E7082190
:103980003848817200210173012101750020FFF781
:1039900021FF002098E738B504463248807A10B9F4
:1039A0004FF0FF3038BD2F4890F8240010B14FF091
:1039B000FF30F7E72B48007D50B134B1282C04DCF0
:1039C000E0B2FFF77BFF0020ECE70020FFF776FF77
:1039D000042C01DA042404E0B4F57A7F01DD4FF40D
:1039E0007A744FF47A7090FBF4F0401EC0B20090ED
:1039F0001C4A126851781B4A526810786B460122A3
:103A000002F07CFB10B14FF0FF30CBE79DF80000D7
:103A1000401C4FF47A7191FBF0F081B21148C181E2
:103A20000146C9894810FFF70AFF0020BAE738B5F8
:103A300004460C48807A10B94FF0FF3038BD022C94
:103A400006D0042C07D0082C08D0102C0FD10BE086
:103A5000002000900EE0082000900BE01020009065
:103A600008E000003C1300201820009002E04FF016
:103A7000FF30E3E700BFF948407A9DF80010B0EB53
:103A8000E10F01D10020D9E7F44A1268D179F34A55
:103A9000526810786B46012202F030FB10B14FF0F3
:103AA000FF30CBE79DF80000C110EC4841720020C8
:103AB000C4E738B50446E948807A10B94FF0FF30C2
:103AC00038BDFA2C09D0B4F5FA7F09D0B4F57A7F65
:103AD00009D0B4F5FA6F0CD108E0002000900BE09B
:103AE0000820009008E01020009005E018200090C9
:103AF00002E04FF0FF30E3E700BFD848007A9DF8BE
:103B00000010B0EBE10F01D10020D9E7D34A1268D1
:103B10009179D24A526810786B46012202F0EEFA8F
:103B200010B14FF0FF30CBE79DF80000C010CB493B
:103B300008720020C4E71CB580208DF80000C74A39
:103B40001268917CC54A526810786B46012202F0D7
:103B5000D5FA10B14FF0FF301CBD642002F05FFCBD
:103B600000208DF80000BD4A1268917CBB4A526863
:103B700010786B46012202F0C1FA10B14FF0FF300D
:103B8000EAE7B64A1268917DB44A526810786B46EB
:103B9000062202F0E3FA10B14FF0FF30DCE79DF8A7
:103BA0000500C007400F9DF8031001F0010140EA35
:103BB00041009DF8011001F0010140EA010494B1B7
:103BC000012C03D10121A548C17431E0022C03D19D
:103BD0000021A248C1742BE02146A1A002F012FDF1
:103BE0004FF0FF30B8E79D4A1268D1789B4A52687F
:103BF00010786B46012202F0B1FA10B14FF0FF309D
:103C0000AAE79DF8000000F00F042CB99E4802F0CE
:103C1000F9FC4FF0FF309FE7042C06D19BA002F087
:103C2000F1FC01218D48C17402E000218B48C17470
:103C3000FF218A488172FF2088490872FF21874846
:103C40004172C1724FF6FF71C181FF21017481740D
:103C50000121017380F82210002180F823104175A2
:103C600001751630016041608160163880F82410BB
:103C700080F82510C1844FF4FA60FFF71AFF10B1E5
:103C80004FF0FF3068E70220FFF7D1FE10B14FF090
:103C9000FF3061E72A20FFF7D2FD10B14FF0FF306F
:103CA0005AE73220FFF777FE10B14FF0FF3053E7AD
:103CB0000020FFF78FFD10B14FF0FF304CE70020E0
:103CC000FFF706FC10B14FF0FF3045E70020FFF78B
:103CD0009AFB002040E770477CB504460D465F48DC
:103CE000807A00F0700010B94FF0FF307CBD5B4A65
:103CF0001268117B594A526810786B46062202F00E
:103D00002DFA10B14FF0FF30F0E79DF801009DF85B
:103D1000001040EA012000B220809DF803009DF8C9
:103D2000021040EA012000B260809DF805009DF875
:103D3000041040EA012000B2A08015B12846FFF728
:103D4000CAFF0020D2E77CB504460D464348807A7E
:103D500000F0080010B94FF0FF307CBD3F4A1268F8
:103D6000517B3E4A526810786B46062202F0F6F903
:103D700010B14FF0FF30F0E79DF801009DF8001002
:103D800040EA012000B220809DF803009DF8021057
:103D900040EA012000B260809DF805009DF8041003
:103DA00040EA012000B2A08015B12846FFF793FF3A
:103DB0000020D2E72DE9FE4F05460C462748807AC1
:103DC00018B94FF0FF30BDE8FE8F244A1268917B8E
:103DD000224A5268107802AB022202F0BFF910B1F9
:103DE0004FF0FF30EFE79DF809009DF8081040EA1A
:103DF000012006B214B12046FFF76DFF174949684C
:103E0000C88805F0D3F8154901904968B1F9080050
:103E100005F0B4F88346304605F0B0F859460090F6
:103E200005F00AFA8246019904F076FF81461F499F
:103E300004F004FF80464FF08F4105F0FFF807467D
:103E400005F060F828600020BDE710B588B0044692
:103E50001CB94FF0FF3008B010BD29E03C13002022
:103E6000556E737570706F7274656420736F6674CD
:103E7000776172652070726F647563742072657605
:103E80002025642E0A000000C4BB000848616C664F
:103E90002073656E736974697669747920706172D4
:103EA0007420666F756E642E0D0A000000000C42CF
:103EB000206830B9606820B9A06810B9002008B047
:103EC00010BDFA494968087806AB0322114602F092
:103ED00045F910B14FF0FF30F1E79DF818000821C7
:103EE00001EB201000F00F00ADF800009DF8190064
:103EF00001EB201000F00F00ADF802009DF81A0051
:103F000001EB201000F00F00ADF804002068410024
:103F1000BDF90000403091FBF0F000B2ADF81000A8
:103F200060684100BDF90200403091FBF0F000B242
:103F3000ADF81200A0684100BDF90400403091FBCB
:103F4000F0F000B2ADF81400D8494968087806AB23
:103F50000622114602F002F910B14FF0FF30AEE731
:103F60009DF819009DF8181040EA012000B2ADF844
:103F700008009DF81B009DF81A1040EA012000B2CD
:103F8000ADF80A009DF81D009DF81C1040EA0120C4
:103F900000B2ADF80C00BDF81000BDF808100844E0
:103FA00000B2ADF81000BDF81200BDF80A100844C8
:103FB00000B2ADF81200BDF81400BDF80C100844B2
:103FC00000B2ADF81400BDF81000000A8DF818001A
:103FD000BDF81000C0B28DF81900BDF81200000A3B
:103FE0008DF81A00BDF81200C0B28DF81B00BDF8A4
:103FF0001400000A8DF81C00BDF81400C0B28DF842
:104000001D00AA494968087806AB0622114602F04D
:1040100075F810B14FF0FF3051E700204FE701462F
:10402000A248007A30B1012807D0022809D003281D
:104030000FD10AE0FA2008800EE04FF4FA700880F1
:104040000AE04FF47A70088006E04FF4FA600880C6
:1040500002E00020088000BF00BF0020704701463A
:104060009248407A30B1012807D0022808D00328AE
:104070000CD108E0022008700BE00420087008E072
:104080000820087005E01020087002E04FF0FF30B3
:10409000704700BF8548C07C18B108784006000E04
:1040A00008700020F4E701468048C07A082817D23B
:1040B000DFE800F01704070A0D101318BC20088071
:1040C00013E06220088010E02A2008800DE0142010
:1040D00008800AE00A20088007E00520088004E044
:1040E00000BF00BF0020088000BF00BF0020704755
:1040F00001466E4890F8240010B14FF0FF30704731
:104100006A48C08908800020F9E70146002008803D
:10411000401E704701464FF0FF307047014663482C
:10412000007A30B1012807D0022808D003280CD12A
:1041300008E05F4808600BE05E48086008E05E4801
:10414000086005E05D48086002E04FF0FF3070470E
:1041500000BF0020FBE701465448407A30B10128F7
:1041600008D002280AD0032810D10BE04FF4804079
:1041700008800EE041F69C7008800AE04FF4805001
:10418000088006E04FF40060088002E04FF0FF3046
:10419000704700BF4548C07C10B1088840100880B7
:1041A0000020F5E701464148007C08700020704778
:1041B00001463E48807A10B10120087001E00020DD
:1041C00008700020704738B504463848807A10B926
:1041D0004FF0FF3038BD354A1268117C334A5268BF
:1041E00010786B46022201F0B9FF10B14FF0FF309A
:1041F000F0E79DF801009DF8001040EA012000B2B0
:1042000020800020E6E72DE9FE4F074688469246CB
:104210001D46DDF830B000260024244890F8240024
:1042200010B1601EBDE8FE8F002028701F48807A04
:1042300010B94FF0FF30F5E71C48007C10B94FF083
:10424000FF30EFE71948007C00F0400008B1B01CD7
:10425000C6B21648007C00F0200008B1B01CC6B2FF
:104260001248007C00F0100008B1B01CC6B20F4824
:10427000007C00F0080008B1B01DC6B20B4A1268FD
:10428000917A0A4A526810786B46022201F066FF62
:1042900010B14FF0FF30C5E79DF801009DF8001008
:1042A00040EA0129B1450BDA0020BBE73C130020AE
:1042B000000003430000834233330342333383411E
:1042C000FC4840684088B9EB600F17DDF94A126876
:1042D000517CF84A526810786B46012201F03EFF8B
:1042E00010B14FF0FF309DE79DF8000000F0100086
:1042F00020B1FFF791F96FF0010093E75046FFF707
:10430000EAFCEC4A1268D17AEA4A526810786B46A5
:10431000324601F023FF10B14FF0FF3082E799FBE6
:10432000F6F0401E8BF8000000202870B4422AD01E
:10433000E048007C00F0080028B3601C1DF8000075
:104340001DF8041040EA012000B2A8F80000E01CAB
:104350001DF80010A01C1DF8000041EA002000B26A
:10436000A8F80200601D1DF80010201D1DF80000B7
:1043700041EA002000B2A8F80400287840F00800C4
:104380002870A01D84B2B44213D0CA48007C00F04B
:10439000400070B1601C1DF800001DF8041040EAD8
:1043A000012000B23880287840F040002870A01C1E
:1043B00084B2B44213D0BF48007C00F0200070B13A
:1043C000601C1DF800001DF8041040EA012000B236
:1043D0007880287840F020002870A01C84B2B44275
:1043E00013D0B448007C00F0100070B1601C1DF8C0
:1043F00000001DF8041040EA012000B2B8802878BF
:1044000040F010002870A01C84B200200AE7F8B524
:1044100004460F461646A74890F8240010B94FF0FE
:10442000FF30F8BDA348807A10B94FF0FF30F8E7AD
:10443000A04A1268917A9F4A526810786B4602220D
:1044400001F08CFE10B14FF0FF30EAE79DF801005B
:104450009DF8001040EA0125A54203DA00203070E3
:10446000401EDEE7934840684088B5EB600F17DDDB
:10447000904A1268517C8F4A526810786B4601222C
:1044800001F06CFE10B14FF0FF30CAE79DF800005C
:1044900000F0100020B1FFF7BFF86FF00100C0E797
:1044A000E2B2844B1B68D97A824B5B6818783B4632
:1044B00001F054FE10B14FF0FF30B2E795FBF4F07D
:1044C000401E30700020ACE701467A4880F8221088
:1044D000002070477CB5054676494968087801ABED
:1044E00004220D2101F03AFE08B107207CBD9DF8A1
:1044F0000700C0F301109DF8041001F0E00140EA4C
:10450000E1008DF800009DF80700C0F381009DF8E0
:10451000051001F0E00140EAE1008DF801009DF88E
:10452000070000F003009DF8061001F0E00140EAEA
:10453000E1008DF8020000241CE01DF8040018B909
:10454000002045F8240013E05B4845F8240006E00D
:1045500055F82400594904F071FD45F824001DF870
:104560000400401EC0B20DF804000028F0D100BFC6
:10457000601CC4B2032CE0DB0020B7E72DE9FE4F3E
:1045800006460F4600256846FFF7A4FF002442E0D8
:1045900056F8240057F82410A0EB010ABAF1000FD6
:1045A00001DB514601E0CAF10001084604F0E6FCD7
:1045B00083464FF08F4104F0AFFB80465DF8240046
:1045C000002104F06BFC16D05DF82410404604F086
:1045D000A3FB82464FF07E5104F02EFE814629F067
:1045E000004A3748416A504604F0F4FD12D20120D7
:1045F000A04005430EE03248C169404604F0EAFCA1
:1046000005D32F48016A404604F0E4FD02D20120A0
:10461000A0400543641C032CBADB2846BDE8FE8F8E
:104620002DE9FC5F06460F460025224949680878B7
:1046300001AB03220D2101F091FD10B10720BDE86F
:10464000FC9F9DF8040000F01F008DF804009DF809
:10465000050000F01F008DF805009DF8060000F031
:104660001F008DF80600002462E056F8240057F879
:104670002410A0EB010BBBF1000F01DB594601E058
:10468000CBF10001084604F079FC4FF08F41009017
:1046900004F042FB814601A8005DC0B308490868E8
:1046A00004F084FC83465946064804F035FB8046F6
:1046B0000FE000003C1300207B14AE3E1D5A843FE7
:1046C00020AE000800B04C45FE49404604F0B6FC60
:1046D000804601A8005D401EC0B201A9085500280F
:1046E000F2D14146484604F017FB83464FF07E5115
:1046F00004F0A2FD82462AF0004BF3488169584637
:1047000004F068FD13D20120A04005430FE0FFE74D
:10471000ED480169484604F05DFC05D3EA4841696B
:10472000484604F057FD02D20120A0400543641C16
:10473000032C9ADB284682E72DE9F04F87B0054627
:104740000C46914601208DF8100000208DF81100D4
:10475000DE4A1268917CDD4A5268107804AB02226E
:1047600001F0CCFC20B14FF0FF3007B0BDE8F08F76
:10477000C82001F054FE00208DF81000D34A1268C2
:10478000D17BD24A5268107804AB012201F0B6FC0A
:1047900010B14FF0FF30E8E7CC4A12685179CB4AAC
:1047A0005268107804AB012201F0A8FC10B14FF060
:1047B000FF30DAE7C54A1268917CC44A5268107823
:1047C00004AB012201F09AFC10B14FF0FF30CCE7AE
:1047D000BE4A1268D17DBD4A5268107804AB0122EE
:1047E00001F08CFC10B14FF0FF30BEE7B74A126801
:1047F0001179B64A5268107804AB012201F07EFCB0
:1048000010B14FF0FF30B0E70C208DF81000AF4A28
:1048100012681179AD4A5268107804AB012201F098
:104820006DFC10B14FF0FF309FE70F2001F0F7FD56
:10483000A648806A407A8DF81000A44A12689178E0
:10484000A24A5268107804AB012201F057FC10B163
:104850004FF0FF3089E79D48806A007A8DF810009C
:104860009A4A12685178994A5268107804AB01222A
:1048700001F044FC10B14FF0FF3076E7B9F1000FC2
:1048800007D09248806A807A40F0E0008DF81000EE
:1048900004E08E48806A807A8DF810008B4A126896
:1048A00091798A4A5268107804AB012201F026FC03
:1048B00010B14FF0FF3058E7B9F1000F07D083482F
:1048C000806AC07A40F0E0008DF8100003E07E4876
:1048D000C07A8DF810007D4A1268D1797B4A5268FF
:1048E000107804AB012201F009FC10B14FF0FF3049
:1048F0003BE7B9F1000F02D0C82001F090FD402045
:104900008DF81000714A12681179704A5268107857
:1049100004AB012201F0F2FB10B14FF0FF3024E7AD
:1049200078208DF81000694A12685179674A5268F8
:10493000107804AB012201F0E1FB10B14FF0FF3021
:1049400013E76149888901F06AFD00208DF81000A5
:104950005E4A126851795D4A5268107804AB0122B0
:1049600001F0CCFB10B14FF0FF30FEE6574A126861
:10497000917A564A5268107804AB022201F0EEFB9D
:1049800010B14FF0FF30F0E69DF811009DF81010C7
:1049900040EA012B0C209BFBF0F0C6B20020A8607F
:1049A00068602860A06060602060824665E0474AD9
:1049B0001268D17A454A5268107804AB0C2201F093
:1049C000CDFB10B14FF0FF30CFE69DF811009DF800
:1049D000101040EA012000B2ADF808009DF8130065
:1049E0009DF8121040EA012000B2ADF80A009DF8CF
:1049F00015009DF8141040EA012000B2ADF80C003B
:104A0000BDF90810206808442060BDF90A106068EC
:104A100008446060BDF90C10A0680844A0609DF8CF
:104A200017009DF8161040EA012000B2ADF8000012
:104A30009DF819009DF8181040EA012000B2ADF869
:104A400002009DF81B009DF81A1040EA012000B2F8
:104A5000ADF80400BDF90010286808442860BDF9CD
:104A60000210686808446860BDF90410A86808442A
:104A7000A8600AF1010000F0FF0AB24597DB124876
:104A8000D0F800C02868C117090441EA10410704A2
:104A900062460023384601F090FD32460023CDE9FE
:104AA000020101F08AFD28600748D0F800C068685C
:104AB000C117090441EA1041070462460023384641
:104AC00006E0000054E3853F20AE00083C130020C0
:104AD00001F073FD32460023CDE9020101F06DFDC6
:104AE0006860FE48D0F800C0A868C117090441EA10
:104AF0001041070462460023384601F05EFD32464D
:104B00000023CDE9020101F058FDA860F348D0F878
:104B100004C02068C117090441EA10410704624635
:104B20000023384601F049FD32460023CDE9020159
:104B300001F043FD2060E948D0F804C06068C11767
:104B4000090441EA1041070462460023384601F097
:104B500034FD32460023CDE9020101F02EFD6060F4
:104B6000DE48D0F804C0A068C117090441EA10412A
:104B7000070462460023384601F01FFD3246002339
:104B8000CDE9020101F019FDA060A068002804DD54
:104B9000A068A0F58030A06003E0A06800F5803038
:104BA000A0600020E1E538B50446CD4890F8240027
:104BB000A04201D1002038BD24B3C94890F8250097
:104BC00010B94FF0FF30F6E70020FEF75FFB002042
:104BD000FEF77EFCC249C88CFEF7DDFE0020009087
:104BE000BF49496808786B460122232101F086FA03
:104BF0000121BB4880F824100120FEF747FBFEF797
:104C00000BFD13E00020FEF741FBB548007C00904F
:104C1000B349496808786B460122232101F06EFAF6
:104C20000021AF4880F82410FEF7F6FC0020C2E710
:104C30002DE9F04F8DB083460F4602200C90A84816
:104C400090F8240020B10020FFF7ADFF012600E01E
:104C5000002603A8FFF7E3F905A8FFF700FA01A86B
:104C6000FFF721FA02A8FFF743FA9D4890F80AA03F
:104C700004A8FFF797FA002407E0002239465846B7
:104C8000FFF75AFD00B902E0641C022CF5DB00BFFF
:104C9000022C01D1002528E0002407E0012206A90A
:104CA00009A8FFF749FD00B902E0641C022CF5DBFE
:104CB00000BF022C01D1002517E006A93846FFF7F6
:104CC0005DFC00F0FF0809A95846FFF7A9FC00F0B9
:104CD000FF090025B9F1000F01D145F00105B8F138
:104CE000000F01D145F0020500BFFF207C4908728A
:104CF000FF217B484172C1724FF6FF71C181FF21D4
:104D00008172017401210173BDF80C00FEF7D1FE20
:104D10009DF81400FEF78BFEBDF80400FEF78FFD32
:104D2000BDF80800FEF737FE5046FEF76CFB9DF815
:104D30001000FEF74FFD16B10120FFF734FF2846A3
:104D40000DB0BDE8F08FF8B504460D46164616B90D
:104D50004FF0FF30F8BD6248807A10B94FF0FF3055
:104D6000F8E720128DF80000E0B28DF801009DF800
:104D7000010028445A4949684989884202DD4FF0B8
:104D8000FF30E7E7564A1268117E554A526810789C
:104D90006B46022201F0B2F910B14FF0FF30D9E7B3
:104DA000EAB24F4B1B68597D4D4B5B681878334610
:104DB00001F0A4F910B14FF0FF30CBE70020C9E7B4
:104DC000F8B504460D46164616B94FF0FF30F8BD4B
:104DD0004348807A10B94FF0FF30F8E720128DF881
:104DE0000000E0B28DF801009DF8010028443C4924
:104DF00049684989884202DD4FF0FF30E7E7384AC9
:104E00001268117E364A526810786B46022201F011
:104E100075F910B14FF0FF30D9E7EAB2304B1B689B
:104E2000597D2F4B5B681878334601F097F910B124
:104E30004FF0FF30CBE70020C9E72DE9F04385B004
:104E400005460E4690469946254890F8250020B123
:104E50004FF0FF3005B0BDE8F08316B94FF0FF30DA
:104E6000F8E7002423E0281B102801DD102000E0D3
:104E7000281B87B2321939462046FFF764FF10B16C
:104E80004FF0FF30E6E701AA39462046FFF798FFCA
:104E900010B14FF0FF30DDE730193A4601A901F0BB
:104EA00094FC10B16FF00100D4E7E01984B2AC4279
:104EB000D9DB4FEA28208DF8000008F0FF008DF8BC
:104EC0000100074A1268917E054A526810786B46C5
:104ED000022201F013F940B104E0000020AE000806
:104EE0003C1300204FF0FF30B4E701218A4880F8DE
:104EF0002510A0F826900020ACE70146864890F8DF
:104F0000240008700020704702464FF0FF307047C1
:104F100001464FF0FF307047F8B505460F4614467E
:104F2000002C70D0B5F5FF5F01DDFF2605E0202DD8
:104F300001DA012601E0C5F3471607B90127282C3D
:104F400002DD4FF0FF30F8BD7348407D28BB72484A
:104F500090F8240038B10020FFF725FE01216E48AB
:104F600080F8201003E000216B4880F820106A4888
:104F70001630FFF754F868481830FFF770F86648A5
:104F80001A30FFF790F864481C30FFF7B1F8624818
:104F9000817A81771F30FFF705F90020FEF776F957
:104FA0000020FEF78BFC00208DF800005A4A1268A2
:104FB0009178594A526810786B46012201F09EF8A8
:104FC00010B14FF0FF30BEE740208DF80000524A8C
:104FD0001268D17B504A526810786B46012201F06A
:104FE0008DF800B165E08DF800608DF801704A4AD7
:104FF0001268117A484A526810786B46022201F012
:105000007DF808B155E047E0052001F008FA424874
:10501000407A072101EBC000C0B28DF800003E4A83
:105020001268D1793C4A526810786B46012201F02F
:1050300065F800B13DE020208DF80000012C03D17F
:1050400000208DF801000EE0052C03DC01208DF816
:10505000010008E0142C03DC02208DF8010002E0BE
:1050600003208DF801009DF80100072101EB80105D
:10507000C0B28DF80100284A1268917C264A526815
:1050800010786B46022201F039F800B111E00121DD
:1050900021484175002056E71F4A1632002103E0DF
:1050A000505C00B105E0491C0C29F9D34FF0FF30EA
:1050B00049E7FF2018490872FF2117484172C17261
:1050C0004FF6FF71C181FF218172017401210173CB
:1050D0000146887FFEF797F90F49C88AFEF7E9FC79
:1050E0000D49087EFEF7A3FC0B49488BFEF7A7FB92
:1050F0000949888BFEF74FFC0749C87FFEF76AFB1A
:10510000054890F8200010B10120FFF74CFD002168
:1051100001484175002016E73C13002010B5C82354
:105120004FF48062F74940F6F630FFF786FE10BD77
:1051300010B586B00446F4A000680390F3A00068A0
:105140000290F3A000680190F2A00068009004F0C3
:10515000030003A9085C8DF8140003A8C4F3C1017F
:10516000405C8DF8150003A8C4F38111405C8DF8F4
:10517000160004F0030002A9085C8DF8100002A8D4
:10518000C4F3C101405C8DF8110002A8C4F3811181
:10519000405C8DF8120005AA032140F22640FFF77B
:1051A000D2FD18B14FF0FF3006B010BD04AA0321A4
:1051B00040F22A40FFF7C7FD10B14FF0FF30F3E790
:1051C000019805900098049004F0040058B19DF8EF
:1051D000140040F001008DF814009DF8100040F01C
:1051E00001008DF8100004F0200058B19DF8150062
:1051F00040F001008DF815009DF8110040F001000D
:105200008DF8110004F4807058B19DF8160040F03C
:1052100001008DF816009DF8120040F001008DF895
:10522000120005AA03214FF48860FFF78CFD10B12E
:105230004FF0FF30B8E704AA032140F23140FFF7F6
:1052400082FD10B14FF0FF30AEE7B348048100207B
:10525000AAE71FB50446B048007A00F0030054F8EE
:1052600020000190AC48007A00F0040010B10198D1
:1052700040420190A848007AC0F3C10054F82000D1
:105280000290A548007A00F0200010B10298404238
:105290000290A148007AC0F3811054F820000390D6
:1052A0009D48008900F4807010B10398404203903B
:1052B0009A49019880FB0101800F40EA810001902A
:1052C0009649029880FB0110820042EA9170029098
:1052D0009249039880FB0110820042EA917003908A
:1052E0000198000E8DF800000198000C8DF8010067
:1052F0000198000A8DF802000198C0B28DF80300F1
:105300006A4604214FF47470FFF71DFD18B14FF089
:10531000FF3004B010BD0298000E8DF80000029816
:10532000000C8DF801000298000A8DF80200029826
:10533000C0B28DF803006A4604214FF47570FFF780
:1053400002FD10B14FF0FF30E3E70398000E8DF837
:1053500000000398000C8DF801000398000A8DF8F6
:1053600002000398C0B28DF803006A4604214FF48E
:105370007670FFF7E8FCCCE770B588B0064601A868
:10538000FEF7E9FEBDF804000021C90341EA5045DB
:10539000C4036148007A00F0030056F8200005902D
:1053A0005D48007A00F0040010B105984042059075
:1053B0005948007AC0F3C10056F8200006905648BC
:1053C000007A00F0200010B1069840420690524842
:1053D000007AC0F3811056F8200007904E480089EB
:1053E00000F4807010B10798404207900598C117EB
:1053F000A0FB042301FB043100FB0510810041EAFE
:10540000927005900698C117A0FB042301FB04319C
:1054100000FB0510810041EA927006900798C117C1
:10542000A0FB042301FB043100FB0510810041EACD
:10543000927007900598000E8DF808000598000CF2
:105440008DF809000598000A8DF80A000598C0B289
:105450008DF80B000698000E8DF80C000698000CD5
:105460008DF80D000698000A8DF80E000698C0B25F
:105470008DF80F000798000E8DF810000798000CAB
:105480008DF811000798000A8DF812000798C0B235
:105490008DF8130002AA0C214FF42570FFF753FC7E
:1054A00008B070BD30B585B004461DA207CA02AB76
:1054B00007C3C82C03DD4FF0FF3005B030BDC82056
:1054C00090FBF4F0401E85B2280A8DF80000E8B287
:1054D0008DF801006A46022140F21620FFF733FCE6
:1054E00010B14FF0FF30E8E702AA0C2140F6C120CE
:1054F000FFF729FC10B14FF0FF30DEE7064884814A
:105500000020DAE748AE00084CCD6C000CC92C0036
:1055100036567600264666008818002009E3CA023F
:10552000FEF2ABC4AAF1DFDFBBAFDFDF0146FC4810
:1055300080890880002070472DE9FC4706460F4609
:1055400006F0070010B1B7F5C86F03DD4FF0FF306C
:10555000BDE8FC87384603F029FD8146F14903F098
:10556000DBFB80466846FEF77AFD9DF800000228C6
:1055700006D0042816D0082826D0102848D135E0B7
:105580004FF08D41404603F059FD814603F0D6FCB3
:1055900084B2E549404603F051FD814603F0CEFC5C
:1055A00085B238E04FF08C41404603F047FD81461C
:1055B00003F0C4FC84B2DD49404603F03FFD814660
:1055C00003F0BCFC85B226E04FF08B41404603F06F
:1055D00035FD814603F0B2FC84B2D549404603F064
:1055E0002DFD814603F0AAFC85B214E04FF08A41FC
:1055F000404603F023FD814603F0A0FC84B2CD4970
:10560000404603F01BFD814603F098FC85B202E0A2
:105610004FF0FF309CE700BF20128DF80400E0B28D
:105620008DF8050028128DF80600E8B28DF8070005
:1056300006F00100A0B101AA02214FF4EA70FFF7C1
:1056400082FB10B14FF0FF3082E70DF1060202211C
:105650004FF49270FFF777FB10B14FF0FF3077E710
:1056600006F00200A0B101AA02214FF4EC70FFF78E
:105670006AFB10B14FF0FF306AE70DF1060202211C
:105680004FF49470FFF75FFB10B14FF0FF305FE70E
:1056900006F00400A0B101AA02214FF4EE70FFF75A
:1056A00052FB10B14FF0FF3052E70DF1060202211C
:1056B0004FF49670FFF747FB10B14FF0FF3047E70C
:1056C000002045E738B504460020009004F00100B2
:1056D00020B19DF8000040F03000009004F002007E
:1056E00020B19DF8000040F00C00009004F0040090
:1056F00020B19DF8000040F0030000906A460121AF
:105700004FF4A470FFF71FFB38BD38B50446012CD9
:1057100001DA012402E0042C00DD0424601EC0B282
:1057200000906A46012140F24F10FFF70CFB38BD94
:1057300038B50446052094FBF0F085B228128DF8A8
:105740000000E8B28DF801006A4602214FF4EF70C4
:10575000FFF7F9FA38BD38B50446052094FBF0F0A0
:1057600085B228128DF80000E8B28DF801006A4673
:1057700002214FF4ED70FFF7E6FA38BDF8B50546A3
:105780000E464FF47A7095FBF0F000FB06F4200E05
:105790008DF80000200C8DF80100200A8DF8020021
:1057A000E0B28DF803006A4604214FF4AE70FFF7B3
:1057B000CAFAF8BD38B50446052094FBF0F084B26F
:1057C00020128DF80000E0B28DF801006A46022137
:1057D0004FF4AD70FFF7B7FA38BD38B50446052071
:1057E00094FBF0F084B220128DF80000E0B28DF846
:1057F00001006A4602214FF4AC70FFF7A4FA38BDED
:1058000038B5044614B94FF0FF3038BD6A4604215C
:105810004FF45870FFF7D4FA10B14FF0FF30F4E7AF
:105820009DF8000000069DF8011040EA01409DF837
:10583000021040EA01209DF8031008432060002078
:10584000E3E738B50446200E8DF80000200C8DF8F3
:105850000100200A8DF80200E0B28DF803006A46CC
:1058600004214FF45870FFF76EFA38BD38B504467E
:1058700014B94FF0FF3038BD6A4604214FF47170FF
:10588000FFF79EFA10B14FF0FF30F4E79DF80000EB
:1058900000069DF8011040EA01409DF8021040EA20
:1058A00001209DF80310084300EB80008000206079
:1058B0000020E0E738B504461420B4FBF0F4200ED5
:1058C0008DF80000200C8DF80100200A8DF80200F0
:1058D000E0B28DF803006A4604214FF47170FFF7BF
:1058E00032FA38BD38B5044664B120208DF8000086
:1058F00028208DF8010030208DF8020038208DF826
:10590000030004E0A3220421684600F08AFF6A46EF
:10591000042140F69E20FFF716FAFDF77DFE38BD04
:105920008818002000004843000040460000C045A1
:10593000000040450000C04438B5044664B1C020B2
:105940008DF80000C2208DF80100C4208DF80200FF
:10595000C6208DF8030004E08B220421684600F085
:1059600060FF6A46042140F69820FFF7ECF9FDF746
:1059700053FE38BD3EB504466CB1FDA1D1E900200F
:105980008968CDE9002002916A4609214FF49760A9
:10599000FFF7D9F93EBDF9A2D2E900109268CDE92E
:1059A000010200916A4609214FF49760FFF7CBF995
:1059B000F0E73EB5044602208DF80000CA208DF8BD
:1059C0000100E3208DF8020009208DF803006A46EB
:1059D00004216820FFF7B7F9A3208DF8000004F038
:1059E000400048B1C0208DF80100C8208DF80200A9
:1059F000C2208DF8030006E0A3208DF801008DF889
:105A000002008DF8030004F4C07048B1C4208DF882
:105A10000400CC208DF80500C6208DF8060006E0B5
:105A2000A3208DF804008DF805008DF80600A32052
:105A30008DF807008DF808008DF809006A460A21E4
:105A400040F6A720FFF77FF904F0030018B12020EB
:105A50008DF8000002E0D8208DF800006A46012190
:105A600040F6B620FFF76FF904F0200018B10120CE
:105A7000FFF780FF02E00020FFF77CFF04F4C07016
:105A800008B304F4807060B1B2208DF800008B2060
:105A90008DF80100B6208DF802009B208DF80300E0
:105AA0000BE0B0208DF8000080208DF80100B420BC
:105AB0008DF8020090208DF803006A46042140F61C
:105AC000A220FFF740F904F0010020B3F8208DF880
:105AD00000006A4601214FF40B60FFF734F9FA2108
